:100000000C9465000C948D000C948D000C94150BD1
:100010000C94150B0C94150B0C948D000C948D0006
:100020000C948D000C948D000C948D000C948D001C
:100030000C948D000C948D000C948D000C948D000C
:100040000C94B80F0C948D000C9472020C944C021A
:100050000C948D000C948D000C948D000C948D00EC
:100060000C948D000C948D0000000008000201002B
:100070000003040700000000000000000000000072
:10008000250028002B0000000000240027002A0083
:10009000040404040404040402020202020203032E
:1000A0000303030301020408102040800102040836
:1000B00010200102040810207C3C3E5E2B3D3F2FA7
:1000C0005B5D3B2C2A225C00021011241FBECFEF87
:1000D000D8E0DEBFCDBF24E0AEE7B1E001C01D92A5
:1000E000AC39B207E1F711E0A0E0B1E0E2E9FFE2EC
:1000F00002C005900D92AE37B107D9F710E0C5E602
:10010000D0E004C02197FE010E94A915C436D10792
:10011000C9F70E9459100C94C7170C940000CF9295
:10012000DF92EF92FF920F931F93CF93DF936C01B7
:100130007A018B01C0E0D0E0CE15DF0581F0D80157
:100140006D918D01D601ED91FC910190F081E02D32
:10015000C6010995892B11F02196EECF7E01C701CA
:10016000DF91CF911F910F91FF90EF90DF90CF9093
:100170000895FC01538D448D252F30E0842F90E0AD
:10018000821B930B541710F0CF9608950197089592
:10019000FC01918D828D981761F0828DDF01A80F8F
:1001A000B11D5D968C91928D9F5F9F73928F90E0B1
:1001B00008958FEF9FEF0895FC01918D828D981720
:1001C00031F0828DE80FF11D858D90E008958FEF5D
:1001D0009FEF0895FC01918D228D892F90E0805C26
:1001E0009F4F821B91098F73992708958DE893E0A3
:1001F0000E94EA0021E0892B09F420E0822F089573
:10020000FC01848DDF01A80FB11DA35ABF4F2C91B3
:10021000848D90E001968F739927848FA689B78982
:100220002C93A089B1898C91837080648C93938D79
:10023000848D981306C00288F389E02D80818F7D1C
:1002400080830895EF92FF920F931F93CF93DF93D4
:10025000EC0181E0888F9B8D8C8D981305C0E88917
:10026000F989808185FD26C0F62E0B8D10E00F5F89
:100270001F4F0F731127E02E8C8DE8120CC00FB6A4
:1002800007FCFACFE889F989808185FFF5CFCE0197
:100290000E940001F1CF8B8DFE01E80FF11DE35AA2
:1002A000FF4FF0829FB7F8940B8FEA89FB8980811A
:1002B00080620AC09FB7F894EE89FF896083E8895D
:1002C000F98980818370806480839FBF81E090E0A2
:1002D000DF91CF911F910F91FF90EF900895CF93F1
:1002E000DF93EC01888D8823C9F0EA89FB8980813E
:1002F00085FD05C0A889B9898C9186FD0FC00FB610
:1003000007FCF5CF808185FFF2CFA889B9898C9150
:1003100085FFEDCFCE010E940001E7CFDF91CF91A5
:10032000089580E090E0892B29F00E94F600811169
:100330000C9400000895DC015996ED91FC915A97B8
:100340003097B9F083899489A589B6894285538508
:1003500064857585841B950BA60BB70B811520E86A
:100360009207A105B10538F08FEF9FE7A0E0B0E05C
:10037000089580E090E00895CF93DF931F92CDB76A
:10038000DEB76983DC01ED91FC910280F381E02D01
:1003900041E050E0BE016F5F7F4F09950F90DF9104
:1003A000CF910895089580E090E00895EF92FF9234
:1003B0000F931F93CF93DF93EC017B018A01888118
:1003C0009981009729F02A813B8124173507F8F499
:1003D000B8016F5F7F4F0E94D016009759F0998344
:1003E00088831B830A832C813D81232B81F4FC01AC
:1003F00010820DC088819981009711F00E944716E4
:10040000198218821D821C821B821A8207C01D83DA
:100410000C83B701888199810E94B117CE01DF91C9
:10042000CF911F910F91FF90EF900895CF93DF939D
:10043000EC01FB0186179707B1F0608171816115AE
:10044000710529F0448155810E94D6010CC0888134
:100450009981009711F00E944716198218821D8217
:100460001C821B821A82CE01DF91CF910895FC017C
:100470001182108213821282158214826115710515
:1004800051F0FB0101900020E9F73197AF01461BC5
:10049000570B0C94D60108951F920F920FB60F922E
:1004A00011242F933F934F935F936F937F938F9379
:1004B0009F93AF93BF93EF93FF938DE893E00E94D8
:1004C0000001FF91EF91BF91AF919F918F917F912B
:1004D0006F915F914F913F912F910F900FBE0F90B1
:1004E0001F9018951F920F920FB60F9211242F9301
:1004F0008F939F93EF93FF93E0919D03F0919E0361
:100500008081E091A303F091A40382FD12C0908149
:100510008091A6038F5F8F732091A703821751F0FC
:10052000E091A603F0E0E357FC4F958F8093A6037C
:1005300001C08081FF91EF919F918F912F910F903A
:100540000FBE0F901F9018958FB7F894809181017E
:100550008FBF089561E0FC0184810E945D0F80914E
:10056000800181111092800108958EBD00000DB4AC
:1005700007FEFDCF8EB508958FEF0C94B5020F9353
:100580001F93CF93DF93EB010E94AA0F8B010E9470
:10059000BC028F3F49F00E94AA0F601B710B6C17C1
:1005A0007D07A8F380E001C081E0DF91CF911F912A
:1005B0000F910895CF93DF93EC018E81882389F00A
:1005C0008F8198859C012F5F3F4F38872F83823022
:1005D000924018F40E94BC02F3CFCE010E94AA02FE
:1005E0001E82DF91CF9108958CBD9DBD0895CF935C
:1005F000DF93EC0180918001811109C081E080933B
:10060000800180912A0490912B040E94F40260E002
:100610008C81DF91CF910C945D0F8F929F92AF925E
:10062000BF92FF920F931F93CF93DF93EC01F62EAF
:1006300049015A010E94DA02CE010E94F7026CE2DF
:1006400071E0CE010E94BF028F2D80640E94B5022E
:1006500008E110E0D501C401002E04C0B695A795AD
:10066000979587950A94D2F70E94B5020850110910
:10067000083F8FEF180771F7FF2029F088E0F81284
:1006800004C087E803C085E901C08FEF0E94B5026E
:1006900010E00E94BC028A8787FF04C01F3F11F050
:1006A0001F5FF7CFDF91CF911F910F91FF90BF9008
:1006B000AF909F908F900895AF92BF92CF92DF92AC
:1006C000EF92FF920F931F93CF93DF93EC01690199
:1006D000C801820F931F8130924008F070C08E8154
:1006E000882371F088819981AA81BB81841795073D
:1006F000A607B70729F48F819885C816D906B0F5E3
:10070000488359836A837B838B85833039F089E002
:10071000440F551F661F771F8A95D1F79A01AB01C9
:1007200061E1CE010E940D03882319F083E08D83DF
:1007300046C00E94AA0F5B010E94BC028A878F3FBD
:1007400049F40E94AA0F6A197B096D327140A0F327
:100750008FE003C08E3F31F08DE08D83CE010E948B
:10076000AA022DC018861F8281E08E838F81988512
:100770008C159D0540F40E94BC028F8198850196DE
:1007800098878F83F3CF6701E00EF11EEC14FD0410
:1007900031F00E94BC02F60181936F01F7CF8F8187
:1007A0009885080F191F18870F838985882319F0EA
:1007B0000115124048F0CE010E94DA0205C0CE01B8
:1007C0000E94AA0280E001C081E0DF91CF911F91D9
:1007D0000F91FF90EF90DF90CF90BF90AF90089572
:1007E000EF92FF920F931F93CF93DF93EC01790168
:1007F000411551056105710511F482E13CC08B85FD
:10080000833039F089E0440F551F661F771F8A95A2
:10081000D1F79A01AB0168E1CE010E940D03882354
:1008200011F084E028C08EEF0E94B50287018EEFA0
:10083000F81AF80181918F010E94B502E016F106C5
:10084000C1F78FEF0E94B5028FEF0E94B5020E94A0
:10085000BC028A878F71853031F081E18D83CE01B2
:100860000E94AA0209C068E572E0CE010E94BF02A0
:10087000811107C085E18D83CE010E94AA0280E02C
:1008800014C020E030E0A9016DE0CE010E940D030C
:10089000811109C00E94BC02811105C0CE010E94D5
:1008A000AA0281E002C084E1E6CFDF91CF911F91DF
:1008B0000F91FF90EF90089580918C018823A9F10A
:1008C000409100015091010160910201709103017A
:1008D0002DE831E080918A0190918B010E94F00314
:1008E000811102C080E008954091820150918301FE
:1008F0006091840170918501411551056105710573
:1009000091F02DE831E080918A0190918B010E9455
:10091000F003882339F31092820110928301109220
:1009200084011092850110928C0181E008958F92CC
:100930009F92AF92BF92EF92FF920F931F93CF932C
:100940004B015C01C42F8091000190910101A091A5
:100950000201B091030188159905AA05BB0501F1B3
:100960000E945C04811102C080E020C08DE8E82E66
:1009700081E0F82E00E012E020E030E0B501A401B3
:1009800080918A0190918B010E945C03882361F31E
:100990008092000190920101A0920201B0920301A5
:1009A00080918C01C82BC0938C0181E0CF911F9165
:1009B0000F91FF90EF90BF90AF909F908F90089510
:1009C0004F925F926F927F928F929F92AF92BF925F
:1009D000CF92DF92EF92FF920F931F93CF93DF930B
:1009E000EC01423051056105710510F480E078C0DA
:1009F00089859A85AB85BC850196A11DB11D84179B
:100A00009507A607B70790F3CB88DC88ED88FE88AA
:100A10008F89803129F4BB27A72F962F852F09C0F6
:100A2000DB01CA01E7E0B695A79597958795EA950A
:100A3000D1F7480159012A013B01C80ED91EEA1E0F
:100A4000FB1E8091000190910101A0910201B091E3
:100A50000301C816D906EA06FB0681F48F898031A6
:100A6000A9F4B301A201552766277727440F551F24
:100A7000FA01E357FE4F9182808219C040E0C7011E
:100A8000B6010E9497048111E9CFB0CFB301A20152
:100A90004F77552766277727440F551F440F551F5B
:100AA000FA01E357FE4F80829182A282B382809145
:100AB0008C01816080938C018A89823080F08D81E5
:100AC0009E81AF81B885C80ED91EEA1EFB1EC0925A
:100AD0008201D0928301E0928401F092850181E04D
:100AE000DF91CF911F910F91FF90EF90DF90CF900A
:100AF000BF90AF909F908F907F906F905F904F903E
:100B000008958F929F92AF92BF92CF92DF92EF9211
:100B1000FF920F931F93CF93DF93FC018185928502
:100B2000A385B4850196A11DB11D84179507A6075D
:100B3000B70710F480E05BC083889488A588B688E6
:100B40008789803129F4BB27A72F962F852F09C0CD
:100B5000DB01CA01C7E0B695A79597958795CA9519
:100B6000D1F7E9016A017B018F01BC01CD01680D5C
:100B7000791D8A1D9B1D8090000190900101A0901D
:100B80000201B0900301681579058A059B0591F46F
:100B9000F80187898031A1F4DD24EE24FF24C60109
:100BA000880F991FFC01E357FE4F80819181A0E0DF
:100BB000B0E018C040E00E9497048111E9CFBACF9D
:100BC000E894C7F8DD24EE24FF24C601880F991F9E
:100BD000880F991FFC01E357FE4F80819181A2810C
:100BE000B381BF7088839983AA83BB8381E0DF913F
:100BF000CF911F910F91FF90EF90DF90CF90BF901A
:100C0000AF909F908F9008958F929F92AF92BF92D6
:100C1000CF92DF92EF92FF920F931F93CF93DF93C8
:100C2000EC018D81811102C080E078C00B891C89A4
:100C30002D893E890417150726073707A8F36A018F
:100C40007B01823029F4CA86DB86EC86FD860DC0E6
:100C5000C114D104E104F10451F41E821F821886EC
:100C600019861A861B861C861D8681E057C08A84D9
:100C70009B84AC84BD84EB8DFC8D258530E0275FA3
:100C80003F4FB501A4014150510961097109022E7C
:100C900004C076956795579547950A94D2F7D70182
:100CA000C6010197A109B10904C0B695A79597950A
:100CB00087952A95D2F784179507A607B70720F0DE
:100CC00089288A288B2871F44F89588D698D7A8DEF
:100CD0004E835F83688779874C015D018E010A5FCF
:100CE0001F4F16C0841B950BA60BB70BF5CF4E817B
:100CF0005F816885798598018B8D9C8D0E94810527
:100D000091E0891A9108A108B108882309F48CCFD1
:100D100081149104A104B10451F795CFDF91CF91D3
:100D20001F910F91FF90EF90DF90CF90BF90AF9009
:100D30009F908F9008953F924F925F926F927F9213
:100D40008F929F92AF92BF92CF92DF92EF92FF92DB
:100D50000F931F93CF93DF93CDB7DEB72C970FB6CA
:100D6000F894DEBF0FBECDBF5C01DC015B968D90B9
:100D70009C905C971696CD90DD90ED90FC90199725
:100D8000C114D104E104F10439F0BFEFCB1ADB0A3E
:100D9000EB0AFB0A312C07C0F401C080D180E2804D
:100DA000F38033243394F40181859285A385B4853F
:100DB0009C01AD012F5F3F4F4F4F5F4F29873A870F
:100DC0004B875C87260137011D821E821F82188691
:100DD000F40181859285A385B4852D813E814F8163
:100DE0005885281739074A075B0708F063C08985CB
:100DF0009A85AB85BC858C159D05AE05BF0550F465
:100E000082E0C82ED12CE12CF12C92E0492E512CFD
:100E1000612C712C9E012F5F3F4FB701A601C401C9
:100E20000E948105882309F445C089819A81AB819C
:100E3000BC81892B8A2B8B2B41F0260137019FEF38
:100E4000491A590A690A790A05C0C414D504E60486
:100E5000F70491F02D813E814F8158852F5F3F4FE0
:100E60004F4F5F4F2D833E834F8358873FEFC31A09
:100E7000D30AE30AF30AACCF0FEF1FEF2FEF3FE0E7
:100E8000B301A201C4010E94E004882399F0D501B6
:100E900016964D915D916D917C9119974115510573
:100EA0006105710549F093018201C4010E94E004CB
:100EB000811102C080E02AC0D50116964D925D9244
:100EC0006D927C921997332051F0D301C2010196A3
:100ED000A11DB11DF40180839183A283B383F50129
:100EE0008789908DA18DB28D892B8A2B8B2B69F4EC
:100EF000D50157964D925D926D927C925A971496B9
:100F00008C911497806814968C9381E02C960FB680
:100F1000F894DEBF0FBECDBFDF91CF911F910F912F
:100F2000FF90EF90DF90CF90BF90AF909F908F9009
:100F30007F906F905F904F903F900895CF93DF9395
:100F4000EC018D81882379F18C8187FF28C06E8523
:100F50007F858889998941E00E949704882319F147
:100F6000EA8980E2E89FF0011124E357FE4F3097B1
:100F7000D1F08D81823040F48B899C89AD89BE8906
:100F8000848F958FA68FB78F8F89988DA98DBA8DF5
:100F9000938F828FB58BA48B8C818F778C83DF911D
:100FA000CF910C945C0480E0DF91CF910895CF93B2
:100FB000DF93EC010E949E07882311F01D8281E0DF
:100FC000DF91CF910895FC01818D928D009711F0F2
:100FD0000C949E0708952F923F924F925F926F92CA
:100FE0007F928F929F92AF92BF92CF92DF92EF92B9
:100FF000FF920F931F93CF93DF9300D000D0CDB714
:10100000DEB78C015B011A01DC0115968C911597F6
:101010008130C9F414968C9181FF15C082FF1DC0E8
:10102000F801438954896589768982859385A485E9
:10103000B58584179507A607B70779F0C8010E9400
:10104000040681110AC081E090E0D80113969C93B8
:101050008E93129780E090E036C1610183C05B9669
:101060008D919C915C97FC0174802FEF270D2A01D4
:101070003B0139E076946794579447943A95D1F7B9
:10108000722E74207A01F1E0FF22772009F476C0F5
:1010900080E092E08E199F0946018C159D0508F4A9
:1010A0004C01D8015B962D913C915C9716968D91E1
:1010B0009D910D90BC91A02D0297A109B109F90154
:1010C000058404C0880F991FAA1FBB1F0A94D2F77A
:1010D0004685578560897189840F951FA61FB71FA4
:1010E0009C01AD01270D311D411D511D29013A0102
:1010F000811432E0930609F088C08091000190913C
:101100000101A0910201B0910301481659066A0637
:101110007B0659F48FEF9FEFDC01809300019093E1
:101120000101A0930201B09303019501B301A20153
:1011300080918A0190918B010E94F003882309F429
:1011400082CF9EEFB91AC818D908F8018285938515
:10115000A485B585880D991DA11DB11D8287938732
:10116000A487B587D8011A964D915D916D917C91B8
:101170001D97C114D10409F072CF87C0E114F104A6
:1011800009F086CF16964D915D916D917C911997DE
:10119000411551056105710559F457968D919D9141
:1011A0000D90BC91A02D0097A105B10541F521C07E
:1011B0009E012F5F3F4F0E948105882309F44BCF8A
:1011C00089819A81AB81BC81F801238D348DF9012D
:1011D0002789203129F048EF5FEF6FEF7FE004C0EF
:1011E00048EF5FEF60E070E084179507A607B70748
:1011F00030F0C8010E949B0681114ACF24CFF8012C
:1012000086839783A087B18743CFE114F10429F542
:10121000D8011A964D915D916D917C911D975396D1
:101220008D919D910D90BC91A02D481759076A078B
:101230007B0798F00E945C04882309F404CF409255
:1012400000015092010160920201709203018091AD
:101250008C01816080938C0108C041E0C301B20120
:101260000E949704882309F4EECED501F701E357D5
:10127000FE4F9F01280D391D2E173F0719F08D9144
:101280008193FACFA80CB91C5ECFF80183899489A9
:10129000A589B68984179507A607B70738F4438B45
:1012A000548B658B768B848180688483F80184817C
:1012B00083FD02C0C10107C0C8010E949E078823A8
:1012C00009F4C1CEF7CF0F900F900F900F90DF91E0
:1012D000CF911F910F91FF90EF90DF90CF90BF9033
:1012E000AF909F908F907F906F905F904F903F90C6
:1012F0002F900895CF93DF931F92CDB7DEB7698308
:1013000041E050E0BE016F5F7F4F0E94EB070F90FE
:10131000DF91CF910895CF93DF93EC01898D9A8D62
:10132000009739F481E090E09B838A8380E090E02D
:101330000BC0FC01138212820E94EB07E98DFA8D2B
:1013400022813381232B71F7DF91CF910895FC0126
:10135000DB0112968D919C9113979383828382E295
:1013600091E09183808314968C91149784831596D1
:101370008C911597858316964D915D916D917C9119
:10138000199746835783608771871A964D915D91AF
:101390006D917C911D9742875387648775871E9650
:1013A0004D915D916D917C91519746875787608BE8
:1013B000718B52968C915297828B53964D915D9181
:1013C0006D917C915697438B548B658B768B57969A
:1013D0004D915D916D917C915A97478B508F618FA4
:1013E000728F5B968D919C915C97948F838F0895FB
:1013F0004F925F926F927F92AF92BF92CF92DF92A5
:10140000EF92FF920F931F93CF93DF931F92CDB76D
:10141000DEB7FC012581222309F4C1C0848180FF4D
:10142000BEC083899489A589B68942845384648423
:10143000758484159505A605B70509F4B0C06F013C
:101440005201F1E0BF22D6015B968D919C915C9791
:10145000B301A20139E076956795579547953A957E
:10146000D1F7223071F4FC01828D938DA48DB58D5E
:101470008A019B01080F191F2A1F3B1FC901B801D0
:101480004AC0DC0114961C9111501423A114B1041C
:10149000F9F411111DC045284628472851F4F601DA
:1014A0008789908DA18DB28D86839783A087B18720
:1014B0000FC0D60116964D915D916D917C91199753
:1014C00096012A5F3F4F0E948105882309F467C077
:1014D000F601238D348D86819781A085B185029791
:1014E000A109B109AC01BD01F901058404C0440F93
:1014F000551F661F771F0A94D2F786859785A089A6
:10150000B189840F951FA61FB71FBC01CD01610FC4
:10151000711D811D911DD60114962C9126FF0DC0C1
:101520004090000150900101609002017090030111
:10153000461657066806790699F440E00E9497041B
:10154000882369F1F501E357FE4FDE0111969F01F3
:101550002F5F3F4F2E173F0799F081918D93FACF60
:10156000FE0131967F0101E010E09501AB01BC0165
:1015700080918A0190918B010E945C03882379F00D
:10158000F60182859385A485B5850196A11DB11DBF
:1015900082879387A487B587898190E002C08FEF07
:1015A0009FEF0F90DF91CF911F910F91FF90EF90E0
:1015B000DF90CF90BF90AF907F906F905F904F90F3
:1015C0000895FC01818D928D009711F00C94F8091B
:1015D0008FEF9FEF08950F931F93CF93DF93FC013D
:1015E000818D928D0097B9F0EF010E94F8098C016E
:1015F0000F3F8FEF180791F0898D9A8DFC0142857E
:1016000053856485758541505109610971090E94AE
:101610000406C80105C080E090E002C08FEF9FEF94
:10162000DF91CF911F910F9108951F920F920FB6E6
:101630000F9211240F900FBE0F901F9018954F928C
:101640005F926F927F92AF92BF92CF92DF92EF92B2
:10165000FF920F931F93CF93DF9300D000D0CDB7AD
:10166000DEB78C0149835A836B837C835901C12C7B
:10167000D12C7601412C82E0582E612C712C4981AD
:101680005A816B817C819E012F5F3F4FC8010E9470
:101690008105882351F1D301C201F801058404C0FA
:1016A000880F991FAA1FBB1F0A94D2F7C80ED91E14
:1016B000EA1EFB1E49815A816B817C8187898031BA
:1016C00029F088EF9FEFAFEFBFE004C088EF9FEFF6
:1016D000A0E0B0E0481759076A077B0780F2F501E0
:1016E000C082D182E282F38281E00F900F900F904E
:1016F0000F90DF91CF911F910F91FF90EF90DF90AE
:10170000CF90BF90AF907F906F905F904F90089573
:10171000CF93DF93EC0180E2689FF0011124E3573F
:10172000FE4F6A8B8091000190910101A09102010E
:10173000B09103018E879F87A88BB98B4489558907
:1017400060E070E0BA0155274427828D938DA0E0B8
:10175000B0E0482B592B6A2B7B2B4F8B588F698F0E
:101760007A8F8385887151F4848D958DA68DB78D80
:101770008B8B9C8BAD8BBE8B81E00EC0803111F0CA
:1017800080E015C09E012D5E3F4F8B8D9C8D0E9489
:101790001F0B8823A9F384E08D8381E08C831E8254
:1017A0001F82188619861A861B861C861D86DF9165
:1017B000CF910895009769F0FC0101900020E9F7AE
:1017C0003197AF01481B590BBC018DE893E00C9495
:1017D0008F0080E090E00895EDE8F3E0A089B18902
:1017E00082E08C93A485B5851C92A685B7858FEC85
:1017F0008C93108EA489B58986E08C93A289B389D5
:101800008C9180618C93A289B3898C9188608C9330
:10181000A289B3898C9180688C930288F389E02D2A
:1018200080818F7D80830895EF92FF920F931F93A5
:10183000CF93DF93EC017B018A011B821A8288EE31
:1018400093E0A0E0B0E08C839D83AE83BF838CE403
:1018500091E0998388838DE190E00E94AF159A8F83
:10186000898F009779F02DE1F701DC0101900D924D
:101870002A95E1F74CE050E0B801CE010C960E94A9
:10188000B817188EDF91CF911F910F91FF90EF90B5
:101890000895AF92BF92CF92DF92EF92FF920F9393
:1018A0001F93CF93DF93CDB7DEB72B970FB6F89486
:1018B000DEBF0FBECDBF6C01FE013196CE010C968E
:1018C0007F0120E22193E817F907E1F7DA0120E030
:1018D00037E09D91992331F19E3231F43A3009F489
:1018E000AAC028E03AE0F5CFE8EBF0E08491882345
:1018F00021F031969813FACF9EC0321708F49BC09E
:101900008FED890F8E3508F096C081E0820FF701C8
:10191000E20FF11D2FE9290F2A3108F4905290832C
:10192000282FD7CF8981803209F485C08B01FB0134
:10193000838D948DF601948F838FFB01168217821D
:10194000108611861286138614861586B12CF8012E
:1019500082859385A485B58543895489658976896F
:1019600084179507A607B70708F065C025E0B69568
:10197000A795979587952A95D1F7F82FFF70AF2EE9
:10198000F8018581823008F456C0C8010E94F80928
:1019900097FD51C0F80182859385A485B5854F9642
:1019A000A11DB11D82879387A487B587F0E2AF9E02
:1019B000B001112463577E4F61157105E1F1FB0100
:1019C00080818823F1F0853E99F14BE050E0C7011A
:1019D0000E949B17892B09F0BACF6A2DC6012B965E
:1019E0000FB6F894DEBF0FBECDBFDF91CF911F9130
:1019F0000F91FF90EF90DF90CF90BF90AF900C943D
:101A0000880BB11018C0F601A28A80910001909154
:101A10000101A0910201B091030186879787A08BF5
:101A2000B18BFB018081882331F0BB24B3948FCF2D
:101A3000B110FBCFE8CF80E02B960FB6F894DEBF55
:101A40000FBECDBFDF91CF911F910F91FF90EF900F
:101A5000DF90CF90BF90AF900895CF93DF93FC01BC
:101A60002581222311F080E049C0EC0180914F04D0
:101A70008031C1F482E08583178A108E118E128E18
:101A80008091500490915104A0E0B0E025E0880FCF
:101A9000991FAA1FBB1F2A95D1F7838B948BA58B07
:101AA000B68B19C08032F9F683E0858340915204E9
:101AB000509153046091540470915504478B508F9A
:101AC000618F728F9F012D5E3F4F88E394E00E94EB
:101AD0001F0B882341F288E394E09C8F8B8F81E079
:101AE0008C831E821F82188619861A861B861C8686
:101AF0001D861E861F86188A198A1A8ADF91CF9141
:101B000008958F929F92AF92BF92CF92DF92EF9201
:101B1000FF92CF93DF93C82F8CE294E090938B01D8
:101B200080938A01CC2369F1C53010F080E00CC1AC
:101B300040E060E070E0CB010E9497048823B1F39D
:101B400020E1C29FC001112483589E4FFC01E25442
:101B5000FE4F20812F7751F73C9640815181628161
:101B60007381443651056105710500F33497C080D7
:101B7000D180E280F380C114D104E104F10421F4A6
:101B8000D5CFC12CD12C760140E0C701B6010E940F
:101B90009704882359F280919801909199018115B9
:101BA000924021F6A0919D01AA2309F4BFCF609134
:101BB0009B0170919C016115710509F4B7CF2091CB
:101BC0009A01222309F4B2CFA0934A0420933C0443
:101BD00080E030E041E050E0C82FFA01082E02C05A
:101BE000EE0FFF1F0A94E2F72E173F0739F08F5FC1
:101BF000C83091F789E08093450498CF80934504DD
:101C00002091A3013091A4012115310519F040E084
:101C100050E008C02091B1013091B2014091B30170
:101C20005091B40120933D0430933E0440933F040F
:101C30005093400446015701860E971EA11CB11C0B
:101C400080924B0490924C04A0924D04B0924E04AA
:101C5000E0919E01F0919F01F0935104E0935004B4
:101C6000B0E00E945815860E971EA81EB91E8092DD
:101C7000520490925304A0925404B092550485E00B
:101C8000EE0FFF1F8A95E1F7E150FE4FEF2FFF2780
:101C9000E6958E0E9F1EA11CB11C80924604909268
:101CA0004704A0924804B09249042091A0013091C9
:101CB000A1012115310521F0A90160E070E008C003
:101CC0004091AD015091AE016091AF017091B001B2
:101CD000D701C60188199909AA09BB09840F951F64
:101CE000A61FB71F04C0B695A79597958795CA9567
:101CF000D2F78093410490934204A0934304B0939D
:101D00004404853F2FE09207A105B10510F48CE053
:101D100018C0853F9F4FA105B10510F480E111C0A7
:101D20008091B9019091BA01A091BB01B091BC0121
:101D30008093520490935304A0935404B093550499
:101D400080E280934F0481E0DF91CF91FF90EF908C
:101D5000DF90CF90BF90AF909F908F90089590E0CC
:101D6000FC01EC55FF4F2491FC01E057FF4F84919B
:101D7000882399F090E0880F991FFC01EA57FF4FE4
:101D8000A591B491FC01E458FF4F859194918FB7D0
:101D9000F894EC91E22BEC938FBF0895CF93DF93EF
:101DA000FC0144815581608171818DE893E00E943E
:101DB0008F00EC018AE591E00E94DA0B8C0F9D1FE9
:101DC000DF91CF9108958F929F92AF92BF92CF9261
:101DD000DF92EF92FF920F931F93CF93DF93CDB7D4
:101DE000DEB7A1970FB6F894DEBF0FBECDBF6B0173
:101DF0007C0197FF2BC06DE28DE893E00E942201E9
:101E00008C0122273327A9012C193D094E095F09AE
:101E100019A2CE0181967C019AE0892E912CA12CE9
:101E2000B12CCA01B901A50194010E943615605D6B
:101E3000F70162937F01211531054105510589F7AD
:101E4000CF010E94DA0B080F191F1EC09B01AC01C5
:101E500019A28E010F5D1F4F8AE0C82ED12CE12CF4
:101E6000F12CCA01B901A70196010E943615605DE7
:101E7000F80162938F01211531054105510589F75C
:101E8000CF010E94DA0B8C018AE591E00E94DA0B07
:101E9000800F911FA1960FB6F894DEBF0FBECDBF85
:101EA000DF91CF911F910F91FF90EF90DF90CF9036
:101EB000BF90AF909F908F90089590E0FC01E859FB
:101EC000FF4F2491FC01EC55FF4F3491FC01E0578A
:101ED000FF4FE491EE2309F43CC0222339F1233073
:101EE00091F038F42130A9F0223001F584B58F7DCE
:101EF00012C0273091F02830A1F02430B9F480913D
:101F000080008F7D03C0809180008F778093800058
:101F10000DC084B58F7784BD09C08091B0008F77E4
:101F200003C08091B0008F7D8093B000F0E0EE0F91
:101F3000FF1FE458FF4FA591B4919FB7F89461112A
:101F400004C08C913095382302C0EC913E2B3C9319
:101F50009FBF08952FB7F894609186017091870113
:101F600080918801909189012FBF08950E94961752
:101F70001F920F920FB60F9211242F933F938F93BE
:101F80009F93AF93BF938091860190918701A09119
:101F90008801B09189013091950423E0230F2D37FA
:101FA00020F40196A11DB11D05C026E8230F02965D
:101FB000A11DB11D20939504809386019093870104
:101FC000A0938801B093890180919104909192042B
:101FD000A0919304B09194040196A11DB11D80932A
:101FE000910490939204A0939304B0939404BF91AE
:101FF000AF919F918F913F912F910F900FBE0F90B6
:102000001F901895EDE8F3E01382128288EE93E0BA
:10201000A0E0B0E084839583A683B78320E131E01C
:102020003183208325EC30E03587248724EC30E0B1
:102030003787268720EC30E0318B208B21EC30E095
:10204000338B228B22EC30E0358B248B26EC30E076
:10205000378B268B118E128E138E148EEAE2F4E0EB
:1020600020E520831182ECE2F4E0158216821186CD
:10207000138642E050E060E070E044875587668751
:10208000778713A215A614A622E231E033A722A770
:1020900017A6E5E7F4E01382128284839583A68372
:1020A000B7838CE491E091838083128E118E148625
:1020B0000895CF93DF93CDB7DEB7C153D1400FB6AC
:1020C000F894DEBF0FBECDBF789484B5826084BD26
:1020D00084B5816084BD85B5826085BD85B581602C
:1020E00085BD80916E00816080936E0010928100AA
:1020F0008091810082608093810080918100816065
:102100008093810080918000816080938000809125
:10211000B10084608093B1008091B00081608093B1
:10212000B00080917A00846080937A0080917A0078
:10213000826080937A0080917A00816080937A0037
:1021400080917A00806880937A001092C1000E948A
:10215000EC0B0E94EC0B80915B04882321F086E558
:1021600094E00E94D7071092370410923504109221
:102170003204109231048AE0809330040E94AA0F46
:102180007B01809130040E94AF0E61E080913004A9
:102190000E945D0F1FB7F89480919004811124C0B4
:1021A000EAE9F0E08491EEEAF0E09491E82FF0E0C3
:1021B000EE0FFF1FEA57FF4FA591B491EC91E92371
:1021C00021F461E08AE00E945D0F8AE00E94AF0E78
:1021D0008CB580618CBD8CB580648CBD8DE00E9417
:1021E000AF0E8BE00E94AF0E809190048F5F8093C2
:1021F00090041FBF82E580932A0410922B048091E3
:102200002A0490912B040E94F4021AE08FEF0E949E
:10221000B5021150D9F78CE294E00E94F70220E059
:1022200030E0A90160E08CE294E00E940D03182FD9
:1022300080933604813049F00E94AA0F6E197F09FD
:10224000613D774060F381E054C02AEA31E040E02C
:1022500050E068E08CE294E00E940D0382FF03C02E
:10226000109337040EC014E00E94BC028093360421
:102270001150D1F78A3A11F082E03BC082E080939E
:10228000370480913704823021F0812C912C540145
:1022900005C0812C912CA12C80E4B82E20E030E0E8
:1022A000A90167E38CE294E00E940D03A50194016B
:1022B00069E28CE294E00E940D0380933604882347
:1022C00049F00E94AA0F6E197F09613D774030F3F3
:1022D00088E00FC080913704823001F520E030E0C3
:1022E000A9016AE38CE294E00E940D03882341F087
:1022F00086E0809331048CE294E00E94AA0228C018
:102300000E94BC02807C803C19F483E080933704F7
:102310000E94BC020E94BC020E94BC028CE294E0BB
:102320000E94AA0280E580932A0410922B0481E087
:102330000E94810D882339F086E594E00E942D0DDE
:10234000882331F008C080E00E94810D8111F4CF14
:102350008DE591E0BBC01C821B8202E211E01A8372
:1023600009831E82CE0101960E942D0DBE016F5F72
:102370007F4FCE018A519F4F0E94A709C553DF4F5F
:1023800019821882CB5CD040C753DF4F1983088372
:10239000C95CD040C253DF4F1882CE5CD040C551DB
:1023A000DF4F8881CB5ED040811126C0CB5FDE4FEE
:1023B00019821882C550D14088EE93E0A0E0B0E0C9
:1023C000C95FDE4F88839983AA83BB83C750D140FE
:1023D0008CE491E0CD5FDE4F99838883C350D14078
:1023E000C45EDE4F19821882CC51D140C15FDE4FEE
:1023F0001882CF50D14022C049E651E0BE016A5157
:102400007F4FCE0187539F4F0E94490C882371F262
:10241000CE018A519F4F0E94D707BE0167537F4F5D
:10242000CE0101960E94A70949E651E0BE016F5F07
:102430007F4FCE018D5F9E4F0E94140CCB5FDE4F0D
:1024400088819981C550D140909378048093770416
:10245000C95FDE4F88819981AA81BB81C750D14075
:102460008093790490937A04A0937B04B0937C04C6
:10247000C55FDE4F88819981AA81BB81CB50D14055
:1024800080937D0490937E04A0937F04B093800496
:10249000A3E0B1E0AC0FBD1F1C96E1E8F4E08D9124
:1024A000819384E0EE38F807D1F7C45EDE4FE8810F
:1024B000F981CC51D140F0938F04E0938E04309792
:1024C00019F08581811108C081E791E00E94DA0B43
:1024D0008AE591E00E94DA0B6CE571E0CE018C5D3B
:1024E0009E4F0E9437026CE571E0CE01825E9E4FE6
:1024F0000E9437028E010F5F1F4FE12CF12C680103
:1025000085E794E00E94E10A97FF1CC0E114F10402
:1025100009F440C1F601EE0DFF1D10824AE050E0C3
:10252000BE01645D7E4FC6010E94DD132B013C019C
:10253000C45DDE4F88819981CC52D140C816D9063E
:10254000D1F428C18A30910529F3F80181938F01D4
:10255000FFEFEF1AFF0A88ECE816F10489F61AC1BA
:10256000CF010196C45DDE4F99838883CC52D14060
:1025700080818C3249F0C45DDE4FE881F981CC5214
:10258000D14080818111ECCF4AE050E0BE01665D10
:102590007E4FC45DDE4F88819981CC52D1400E942C
:1025A000DD134B015C010BC0CF010196C45DDE4F12
:1025B00099838883CC52D14080818C3249F0C45DAC
:1025C000DE4FE881F981CC52D14080818111ECCF7E
:1025D0004AE050E0BE01665D7E4FC45DDE4F8881FB
:1025E0009981CC52D1400E94DD136B017C010BC05C
:1025F000CF010196C45DDE4F99838883CC52D140D0
:1026000080818C3249F0C45DDE4FE881F981CC5283
:10261000D14080818111ECCF4AE050E0BE01665D7F
:102620007E4FC45DDE4F88819981CC52D1400E949B
:10263000DD13C25DDE4F688379838A839B83CE522C
:10264000D1400BC0CF010196C45DDE4F99838883D2
:10265000CC52D14080818C3249F0C45DDE4FE8819C
:10266000F981CC52D14080818111ECCFAE01465D21
:102670005E4F6CE771E0C45DDE4F88819981CC527A
:10268000D1400E94FC14BC01CE018D5F9E4F0E9480
:102690003702C65DDE4F68817981CA52D140CE01D2
:1026A0008A519F4F0E943702BE016A517F4FCE016F
:1026B0008C5D9E4F0E941602C753DF4F198218820D
:1026C000C95CD040C553DF4F19821882CB5CD04023
:1026D000C353DF4F19821882CD5CD040BE016D5FBD
:1026E0007E4FCE0187539F4F0E941602BE01675353
:1026F0007F4FCE01825E9E4F0E94160211E0C65DA2
:10270000DE4F28813981CA52D140C45DDE4F8881B5
:102710009981CC52D1402817390709F410E0C753EA
:10272000DF4F88819981C95CD0400E944716CA5109
:10273000DF4F88819981C65ED0400E944716CD5FE9
:10274000DE4F88819981C350D1400E9447161123E2
:1027500009F1C301B2010E94E30EC501B4010E9458
:10276000E30EC701B6010E94E30EC25DDE4F688131
:1027700079818A819B81CE52D1400E94E30ECE01A5
:102780008C5D9E4F0E94CE0ECE01825E9E4F0E94B7
:10279000CE0EB0CEC25EDE4F88819981CE51D1403F
:1027A0000E944716CC5DDE4F88819981C452D1408A
:1027B0000E9447160E9491018FCEA0E0B0E0E3EEA8
:1027C000F3E10C9464155C016B017A0161157105EC
:1027D00019F0FB0191838083E114F10429F0C70112
:1027E0000297839708F0E5C0E5012196F501108175
:1027F000812F90E00E94F314892B11F05E01F4CF39
:102800001D3229F42196F501118101E007C01B3228
:1028100021F4E5012296F501118100E0E114F104B3
:1028200009F1F0E1EF16F10429F43FC010E3E114DF
:10283000F10421F128E0E216F10401F154F4E2E0A0
:10284000EE16F10421F5812C912CA12CB0E4BB2EC5
:102850003EC0FAE0EF16F10439F020E1E216F1048F
:10286000B1F430C0103319F1FAE0EF2EF12CACECDA
:102870008A2E982CA82CACE0BA2E29C078E0E72E3E
:10288000F12C812C912CA12CE0E1BE2E20C060E027
:1028900070E080E090E897010F2C000C440B550B82
:1028A0000E94361549015A0112C0103359F488812B
:1028B0008F7D883509F0BACF19812296026080E1B8
:1028C000E82EF12C812C912CA12C68E0B62E40E052
:1028D00060E070E0CB0127010F2C000C6608770840
:1028E000FE0150ED352E310E29E0231570F42FEB4B
:1028F000210F2A3118F439EC332E06C02FE9210FAD
:102900002A3118F529EA322E310E232D30E02E150A
:102910003F05DCF447FD16C086169706A806B906E3
:1029200070F0A30192010E942615630D711D811D97
:10293000911D61307105810520E8920710F04FEF7D
:1029400001C041E021961081CBCF202F2170C1140E
:10295000D10471F0442329F02197F601D183C0837B
:1029600007C001FF19C02297F601D183C08314C0AC
:1029700047FF12C0222329F060E070E080E090E879
:1029800004C06FEF7FEF8FEF9FE722E230E03093DC
:1029900097042093960409C0222381F09095809596
:1029A000709561957F4F8F4F9F4F462F372F282F60
:1029B00012C040E030E020E090E00DC097FFF5CF7E
:1029C00082E290E090939704809396046FEF7FEFFC
:1029D0008FEF9FE7EACF642F732F822FCDB7DEB73B
:1029E000E1E10C94801591110C942315803219F0BB
:1029F00089508550C8F70895FA01A191B0810097D8
:102A000019F41097E1F0CD01DC01CD010D9000200B
:102A100011F4C00113C0FB012191222319F02015EC
:102A2000D9F7F3CFFB012191201519F41E921196CD
:102A300006C02223C1F70D900020A1F7D001FA01B2
:102A4000A193B0830895992788270895DB018F9378
:102A50009F930E945815BF91AF91A29F800D911D29
:102A6000A39F900DB29F900D11240895A1E21A2EFC
:102A7000AA1BBB1BFD010DC0AA1FBB1FEE1FFF1F22
:102A8000A217B307E407F50720F0A21BB30BE40B72
:102A9000F50B661F771F881F991F1A9469F76095B9
:102AA0007095809590959B01AC01BD01CF01089573
:102AB0000E949A15A59F900DB49F900DA49F800D24
:102AC000911D112408952F923F924F925F926F9221
:102AD0007F928F929F92AF92BF92CF92DF92EF92AE
:102AE000FF920F931F93CF93DF93CDB7DEB7CA1B2F
:102AF000DB0B0FB6F894DEBF0FBECDBF09942A885A
:102B0000398848885F846E847D848C849B84AA8401
:102B1000B984C884DF80EE80FD800C811B81AA818E
:102B2000B981CE0FD11D0FB6F894DEBF0FBECDBF59
:102B3000ED010895A29FB001B39FC001A39F700D46
:102B4000811D1124911DB29F700D811D1124911DB5
:102B50000895EE0FFF1F0590F491E02D09940F9357
:102B60001F93CF93DF938230910510F482E090E0C1
:102B7000E0919A04F0919B0420E030E0A0E0B0E006
:102B8000309719F14081518102811381481759070B
:102B9000C8F08417950769F4109731F012960C93DA
:102BA000129713961C9327C000939A0410939B04CA
:102BB00022C02115310519F04217530718F49A0164
:102BC000BD01EF01DF01F801DBCF21153105F9F07F
:102BD000281B390B2430310580F48A819B816115D3
:102BE000710521F0FB019383828304C090939B04C1
:102BF00080939A04FE01329644C0FE01E20FF31F57
:102C00008193919322503109398328833AC02091CE
:102C1000980430919904232B41F4209106013091BE
:102C20000701309399042093980420910401309176
:102C300005012115310541F42DB73EB7409108013A
:102C400050910901241B350BE0919804F0919904EF
:102C5000E217F307A0F42E1B3F0B2817390778F073
:102C6000AC014E5F5F4F2417350748F04E0F5F1FD2
:102C700050939904409398048193919302C0E0E0AB
:102C8000F0E0CF01DF91CF911F910F910895CF9385
:102C9000DF93009709F481C0FC01329713821282FE
:102CA000A0919A04B0919B04109781F42081318106
:102CB000820F931F209198043091990428173907A7
:102CC00051F5F0939904E093980467C0ED0120E07A
:102CD00030E0CE17DF0740F44A815B819E01411549
:102CE0005105F1F0EA01F5CFD383C28340815181D0
:102CF000840F951FC817D90759F488819981840FCB
:102D0000951F0296918380838A819B81938382831E
:102D10002115310529F4F0939B04E0939A043DC0FA
:102D2000E901FB83EA8349915991C40FD51FEC1740
:102D3000FD0761F480819181840F951F0296E9015E
:102D400099838883828193819B838A83E0E0F0E08A
:102D500012968D919C911397009719F0FD01DC015B
:102D6000F7CF8D919C9111979D012E5F3F4F820F60
:102D7000931F20919804309199042817390769F41A
:102D8000309729F410929B0410929A0402C0138287
:102D90001282B0939904A0939804DF91CF91089583
:102DA000A0E0B0E0E6EDF6E10C946715EC010097C9
:102DB00021F4CB010E94AF15B4C0FC01E60FF71F50
:102DC0009C0122503109E217F30708F4A8C0D90189
:102DD0000D911C91119706171707B0F005301105DA
:102DE00008F49BC0C80104978617970708F495C09C
:102DF00002501109061B170B019311936D937C93DD
:102E0000CF010E94471689C05B01A01AB10A4C018C
:102E1000800E911EA0919A04B0919B04612C712C9C
:102E2000E12CF12C109709F446C08D919C911197DB
:102E3000A815B905B1F56C0142E0C40ED11CCA1445
:102E4000DB0478F14C018A189B08640142E0C40E4F
:102E5000D11C1296BC9012971396AC91B5E0CB168C
:102E6000D10440F0B282A38391828082D9016D9314
:102E70007C9309C00E5F1F4F800F911FF901918352
:102E80008083EB2DFA2FE114F10431F0D701139672
:102E9000FC93EE93129741C0F0939B04E0939A0445
:102EA0003CC06816790608F43C017D0112960D902D
:102EB000BC91A02DB7CF8091980490919904881669
:102EC0009906E1F466167706C8F4809104019091A2
:102ED0000501009741F48DB79EB7409108015091CC
:102EE0000901841B950BE817F907C8F4F0939904BE
:102EF000E0939804F901718360830FC0CB010E94B5
:102F0000AF157C01009759F0A801BE010E94A817D7
:102F1000CE010E944716C70104C0CE0102C080E066
:102F200090E0CDB7DEB7EEE00C94831581E090E041
:102F3000F8940C94C717FB01DC0104C08D9101903B
:102F4000801921F441505040C8F7881B990B08950F
:102F5000FB01DC0102C001900D9241505040D8F7B6
:102F60000895FB01DC0101900D920020E1F7089526
:102F7000FB01DC014150504048F001900D920020CF
:102F8000C9F701C01D9241505040E0F70895F894F0
:022F9000FFCF71
:102F9200FFFFFFFF00009C04800000000000000013
:102FA20022018F00B9006F01EA00C800DC000000B6
:102FB20000007A098F00D301D20100000000B60F91
:102FC2008F00D301D201B60FB60FB60F000000007A
:102FD200B60F8F00D301D20100000000BC018B09A3
:102FE200D301E3079B01E10AEB0A0D0A0062656760
:102FF200696E206572726F72006770732E4353564A
:0E300200006F70656E206572726F72002C0098
:107E0000112484B714BE81FFF0D085E080938100F7
:107E100082E08093C00088E18093C10086E0809377
:107E2000C20080E18093C4008EE0C9D0259A86E02C
:107E300020E33CEF91E0309385002093840096BBD3
:107E4000B09BFECF1D9AA8958150A9F7CC24DD24C4
:107E500088248394B5E0AB2EA1E19A2EF3E0BF2EE7
:107E6000A2D0813461F49FD0082FAFD0023811F036
:107E7000013811F484E001C083E08DD089C08234E0
:107E800011F484E103C0853419F485E0A6D080C0E4
:107E9000853579F488D0E82EFF2485D0082F10E0AE
:107EA000102F00270E291F29000F111F8ED06801E7
:107EB0006FC0863521F484E090D080E0DECF843638
:107EC00009F040C070D06FD0082F6DD080E0C81688
:107ED00080E7D80618F4F601B7BEE895C0E0D1E017
:107EE00062D089930C17E1F7F0E0CF16F0E7DF06D8
:107EF00018F0F601B7BEE89568D007B600FCFDCFD4
:107F0000A601A0E0B1E02C9130E011968C91119780
:107F100090E0982F8827822B932B1296FA010C0160
:107F200087BEE89511244E5F5F4FF1E0A038BF0790
:107F300051F7F601A7BEE89507B600FCFDCF97BE46
:107F4000E89526C08437B1F42ED02DD0F82E2BD052
:107F50003CD0F601EF2C8F010F5F1F4F84911BD097
:107F6000EA94F801C1F70894C11CD11CFA94CF0C13
:107F7000D11C0EC0853739F428D08EE10CD085E9AC
:107F80000AD08FE07ACF813511F488E018D01DD067
:107F900080E101D065CF982F8091C00085FFFCCF94
:107FA0009093C60008958091C00087FFFCCF809118
:107FB000C00084FD01C0A8958091C6000895E0E648
:107FC000F0E098E1908380830895EDDF803219F02E
:107FD00088E0F5DFFFCF84E1DECF1F93182FE3DFCA
:107FE0001150E9F7F2DF1F91089580E0E8DFEE27F6
:047FF000FF270994CA
:027FFE00040479
:0400000300007E007B
:00000001FF
