:100000000C9465000C948D000C948D000C94B90A2E
:100010000C94B90A0C94B90A0C948D000C948D00C0
:100020000C948D000C948D000C948D000C948D001C
:100030000C948D000C948D000C948D000C948D000C
:100040000C94E30D0C948D000C9416020C94F001AA
:100050000C948D000C948D000C948D000C948D00EC
:100060000C948D000C948D0000000008000201002B
:100070000003040700000000000000000000000072
:10008000250028002B0000000000240027002A0083
:10009000040404040404040402020202020203032E
:1000A0000303030301020408102040800102040836
:1000B00010200102040810207C3C3E5E2B3D3F2FA7
:1000C0005B5D3B2C2A225C00191311241FBECFEF6D
:1000D000D8E0DEBFCDBF24E0ACE7B1E001C01D92A7
:1000E000AA39B207E1F711E0A0E0B1E0EAE3FFE2EC
:1000F00002C005900D92AC37B107D9F710E0C5E604
:10010000D0E004C02197FE010E947D15C436D107BE
:10011000C9F70E94DA0F0C949B170C940000089505
:10012000CF92DF92EF92FF920F931F93CF93DF93C3
:100130006C017A018B01C0E0D0E0CE15DF0581F0C3
:10014000D8016D918D01D601ED91FC910190F08166
:10015000E02DC6010995892B11F02196EECF7E0185
:10016000C701DF91CF911F910F91FF90EF90DF902A
:10017000CF900895FC01538D448D252F30E0842FBE
:1001800090E0821B930B541710F0CF9608950197BF
:100190000895FC01918D828D981761F0828DDF01A9
:1001A000A80FB11D5D968C91928D9F5F9F73928F6A
:1001B00090E008958FEF9FEF0895FC01918D828D5F
:1001C000981731F0828DE80FF11D858D90E008952C
:1001D0008FEF9FEF0895FC01918D228D892F90E084
:1001E000805C9F4F821B91098F739927089581E945
:1001F00093E00E94EB0021E0892B09F420E0822F9C
:100200000895FC01848DDF01A80FB11DA35ABF4FD3
:100210002C91848D90E001968F739927848FA68905
:10022000B7892C93A089B1898C91837080648C9359
:10023000938D848D981306C00288F389E02D808108
:100240008F7D80830895EF92FF920F931F93CF933A
:10025000DF93EC0181E0888F9B8D8C8D981305C016
:10026000E889F989808185FD26C0F62E0B8D10E086
:100270000F5F1F4F0F731127E02E8C8DE8120CC0FB
:100280000FB607FCFACFE889F989808185FFF5CFA1
:10029000CE010E940101F1CF8B8DFE01E80FF11D0F
:1002A000E35AFF4FF0829FB7F8940B8FEA89FB89DE
:1002B000808180620AC09FB7F894EE89FF896083CD
:1002C000E889F98980818370806480839FBF81E0A1
:1002D00090E0DF91CF911F910F91FF90EF900895E3
:1002E000CF93DF93EC01888D8823C9F0EA89FB89DD
:1002F000808185FD05C0A889B9898C9186FD0FC0D4
:100300000FB607FCF5CF808185FFF2CFA889B989A8
:100310008C9185FFEDCFCE010E940101E7CFDF91E7
:10032000CF91089580E090E0892B29F00E94F7009A
:1003300081110C9400000895DC015996ED91FC9117
:100340005A973097B9F083899489A589B6894285EF
:10035000538564857585841B950BA60BB70B81159A
:1003600020E89207A105B10538F08FEF9FE7A0E0E4
:10037000B0E0089580E090E00895CF93DF931F925E
:10038000CDB7DEB76983DC01ED91FC910280F3818A
:10039000E02D41E050E0BE016F5F7F4F09950F9067
:1003A000DF91CF91089580E090E00895FC01808175
:1003B00091810C941B16FC0111821082138212820F
:1003C000158214826115710551F0FB010190002026
:1003D000E9F73197AF01461B570B0C94C50A0895F6
:1003E0001F920F920FB60F9211242F933F934F93AA
:1003F0005F936F937F938F939F93AF93BF93EF938D
:10040000FF9381E993E00E940101FF91EF91BF9179
:10041000AF919F918F917F916F915F914F913F919C
:100420002F910F900FBE0F901F9018951F920F9253
:100430000FB60F9211242F938F939F93EF93FF93F7
:10044000E091A103F091A2038081E091A703F091D4
:10045000A80382FD12C090818091AA038F5F8F73E1
:100460002091AB03821751F0E091AA03F0E0EF5620
:10047000FC4F958F8093AA0301C08081FF91EF917B
:100480009F918F912F910F900FBE0F901F901895F5
:100490008FB7F89480917F018FBF089561E0FC01D0
:1004A00084810E948A0D80917E01811110927E01CB
:1004B00008958EBD00000DB407FEFDCF8EB50895E2
:1004C0008FEF0C9459020F931F93CF93DF93EB019F
:1004D0000E94D70D8B010E9460028F3F49F00E945D
:1004E000D70D601B710B6C177D07A8F380E001C06E
:1004F00081E0DF91CF911F910F910895CF93DF930A
:10050000EC018E81882389F08F8198859C012F5F73
:100510003F4F38872F838230924018F40E94600248
:10052000F3CFCE010E944E021E82DF91CF9108953B
:100530008CBD9DBD0895CF93DF93EC0180917E012A
:10054000811109C081E080937E0180912E049091F9
:100550002F040E94980260E08C81DF91CF910C946F
:100560008A0D8F929F92AF92BF92FF920F931F932B
:10057000CF93DF93EC01F62E49015A010E947E02CF
:10058000CE010E949B026CE271E0CE010E946302E8
:100590008F2D80640E94590208E110E0D501C4014A
:1005A000002E04C0B695A795979587950A94D2F723
:1005B0000E94590208501109083F8FEF180771F780
:1005C000FF2029F088E0F81204C087E803C085E91D
:1005D00001C08FEF0E94590210E00E9460028A87DA
:1005E00087FF04C01F3F11F01F5FF7CFDF91CF914E
:1005F0001F910F91FF90BF90AF909F908F900895A3
:10060000AF92BF92CF92DF92EF92FF920F931F9320
:10061000CF93DF93EC016901C801820F931F8130F2
:10062000924008F070C08E81882371F08881998192
:10063000AA81BB8184179507A607B70729F48F8184
:100640009885C816D906B0F5488359836A837B8399
:100650008B85833039F089E0440F551F661F771F63
:100660008A95D1F79A01AB0161E1CE010E94B102F6
:10067000882319F083E08D8346C00E94D70D5B016B
:100680000E9460028A878F3F49F40E94D70D6A1941
:100690007B096D327140A0F38FE003C08E3F31F0D3
:1006A0008DE08D83CE010E944E022DC018861F82E0
:1006B00081E08E838F8198858C159D0540F40E9482
:1006C00060028F819885019698878F83F3CF6701A9
:1006D000E00EF11EEC14FD0431F00E946002F60100
:1006E00081936F01F7CF8F819885080F191F1887A5
:1006F0000F838985882319F00115124048F0CE0137
:100700000E947E0205C0CE010E944E0280E001C020
:1007100081E0DF91CF911F910F91FF90EF90DF90DB
:10072000CF90BF90AF900895EF92FF920F931F93D9
:10073000CF93DF93EC0179014115510561057105F6
:1007400011F482E13CC08B85833039F089E0440F9D
:10075000551F661F771F8A95D1F79A01AB0168E193
:10076000CE010E94B102882311F084E028C08EEFF0
:100770000E94590287018EEFF81AF80181918F01CA
:100780000E945902E016F106C1F78FEF0E9459024C
:100790008FEF0E9459020E9460028A878F71853014
:1007A00031F081E18D83CE010E944E0209C068E5DF
:1007B00072E0CE010E946302811107C085E18D8342
:1007C000CE010E944E0280E014C020E030E0A9017A
:1007D0006DE0CE010E94B102811109C00E94600249
:1007E000811105C0CE010E944E0281E002C084E169
:1007F000E6CFDF91CF911F910F91FF90EF90089579
:10080000809187018823A9F1409100015091010155
:10081000609102017091030121E931E0809185012D
:10082000909186010E949403811102C080E0089596
:10083000409180015091810160918201709183010A
:10084000411551056105710591F021E931E0809173
:100850008501909186010E949403882339F31092B8
:1008600080011092810110928201109283011092F6
:10087000870181E008958F929F92AF92BF92EF928D
:10088000FF920F931F93CF934B015C01C42F809174
:10089000000190910101A0910201B091030188151E
:1008A0009905AA05BB0501F10E940004811102C04F
:1008B00080E020C081E9E82E81E0F82E00E012E01F
:1008C00020E030E0B501A40180918501909186017E
:1008D0000E940003882361F380920001909201013D
:1008E000A0920201B092030180918701C82BC093AE
:1008F000870181E0CF911F910F91FF90EF90BF9002
:10090000AF909F908F9008954F925F926F927F92D9
:100910008F929F92AF92BF92CF92DF92EF92FF920F
:100920000F931F93CF93DF93EC0142305105610584
:10093000710510F480E078C089859A85AB85BC8507
:100940000196A11DB11D84179507A607B70790F35F
:10095000CB88DC88ED88FE888F89803129F4BB271D
:10096000A72F962F852F09C0DB01CA01E7E0B695B6
:10097000A79597958795EA95D1F7480159012A01DE
:100980003B01C80ED91EEA1EFB1E8091000190910A
:100990000101A0910201B0910301C816D906EA062F
:1009A000FB0681F48F898031A9F4B301A201552798
:1009B00066277727440F551FFA01EF56FE4F9182A5
:1009C000808219C040E0C701B6010E943B0481113A
:1009D000E9CFB0CFB301A2014F775527662777271C
:1009E000440F551F440F551FFA01EF56FE4F8082EA
:1009F0009182A282B3828091870181608093870176
:100A00008A89823080F08D819E81AF81B885C80E41
:100A1000D91EEA1EFB1EC0928001D0928101E09295
:100A20008201F092830181E0DF91CF911F910F91BC
:100A3000FF90EF90DF90CF90BF90AF909F908F90FE
:100A40007F906F905F904F9008958F929F92AF929A
:100A5000BF92CF92DF92EF92FF920F931F93CF93AB
:100A6000DF93FC0181859285A385B4850196A11D44
:100A7000B11D84179507A607B70710F480E05BC087
:100A800083889488A588B6888789803129F4BB2714
:100A9000A72F962F852F09C0DB01CA01C7E0B695A5
:100AA000A79597958795CA95D1F7E9016A017B01CA
:100AB0008F01BC01CD01680D791D8A1D9B1D8090A1
:100AC000000190900101A0900201B090030168150F
:100AD00079058A059B0591F4F80187898031A1F495
:100AE000DD24EE24FF24C601880F991FFC01EF5678
:100AF000FE4F80819181A0E0B0E018C040E00E94EC
:100B00003B048111E9CFBACFE894C7F8DD24EE2485
:100B1000FF24C601880F991F880F991FFC01EF560B
:100B2000FE4F80819181A281B381BF7088839983B8
:100B3000AA83BB8381E0DF91CF911F910F91FF903A
:100B4000EF90DF90CF90BF90AF909F908F900895DF
:100B50008F929F92AF92BF92CF92DF92EF92FF92CD
:100B60000F931F93CF93DF93EC018D81811102C00E
:100B700080E078C00B891C892D893E8904171507F0
:100B800026073707A8F36A017B01823029F4CA8659
:100B9000DB86EC86FD860DC0C114D104E104F104AE
:100BA00051F41E821F82188619861A861B861C869F
:100BB0001D8681E057C08A849B84AC84BD84EB8D04
:100BC000FC8D258530E0275F3F4FB501A4014150E2
:100BD000510961097109022E04C0769567955795F0
:100BE00047950A94D2F7D701C6010197A109B10927
:100BF00004C0B695A795979587952A95D2F784173F
:100C00009507A607B70720F089288A288B2871F452
:100C10004F89588D698D7A8D4E835F836887798778
:100C20004C015D018E010A5F1F4F16C0841B950B9E
:100C3000A60BB70BF5CF4E815F816885798598014A
:100C40008B8D9C8D0E94250591E0891A9108A10841
:100C5000B108882309F48CCF81149104A104B10454
:100C600051F795CFDF91CF911F910F91FF90EF90AA
:100C7000DF90CF90BF90AF909F908F9008953F925C
:100C80004F925F926F927F928F929F92AF92BF929C
:100C9000CF92DF92EF92FF920F931F93CF93DF9348
:100CA000CDB7DEB72C970FB6F894DEBF0FBECDBF21
:100CB0005C01DC015B968D909C905C971696CD90C4
:100CC000DD90ED90FC901997C114D104E104F1047A
:100CD00039F0BFEFCB1ADB0AEB0AFB0A312C07C055
:100CE000F401C080D180E280F38033243394F40196
:100CF00081859285A385B4859C01AD012F5F3F4F0F
:100D00004F4F5F4F29873A874B875C872601370112
:100D10001D821E821F821886F40181859285A3851B
:100D2000B4852D813E814F815885281739074A07A0
:100D30005B0708F063C089859A85AB85BC858C15F7
:100D40009D05AE05BF0550F482E0C82ED12CE12CE4
:100D5000F12C92E0492E512C612C712C9E012F5FB9
:100D60003F4FB701A601C4010E942505882309F45D
:100D700045C089819A81AB81BC81892B8A2B8B2BC1
:100D800041F0260137019FEF491A590A690A790A89
:100D900005C0C414D504E604F70491F02D813E810A
:100DA0004F8158852F5F3F4F4F4F5F4F2D833E83BD
:100DB0004F8358873FEFC31AD30AE30AF30AACCF35
:100DC0000FEF1FEF2FEF3FE0B301A201C4010E941C
:100DD0008404882399F0D50116964D915D916D910B
:100DE0007C911997411551056105710549F09301F1
:100DF0008201C4010E948404811102C080E02AC0E3
:100E0000D50116964D925D926D927C921997332082
:100E100051F0D301C2010196A11DB11DF4018083DF
:100E20009183A283B383F5018789908DA18DB28DC3
:100E3000892B8A2B8B2B69F4D50157964D925D92A5
:100E40006D927C925A9714968C91149780681496A0
:100E50008C9381E02C960FB6F894DEBF0FBECDBF09
:100E6000DF91CF911F910F91FF90EF90DF90CF9086
:100E7000BF90AF909F908F907F906F905F904F90BA
:100E80003F900895CF93DF93EC018D81882379F112
:100E90008C8187FF28C06E857F858889998941E08C
:100EA0000E943B04882319F1EA8980E2E89FF0015F
:100EB0001124EF56FE4F3097D1F08D81823040F4EF
:100EC0008B899C89AD89BE89848F958FA68FB78FBA
:100ED0008F89988DA98DBA8D938F828FB58BA48BB6
:100EE0008C818F778C83DF91CF910C94000480E00C
:100EF000DF91CF910895CF93DF93EC010E944207D9
:100F0000882311F01D8281E0DF91CF910895FC01CB
:100F1000818D928D009711F00C94420708952F92C5
:100F20003F924F925F926F927F928F929F92AF9279
:100F3000BF92CF92DF92EF92FF920F931F93CF93C6
:100F4000DF9300D000D0CDB7DEB78C015B011A0172
:100F5000DC0115968C9115978130C9F414968C910B
:100F600081FF15C082FF1DC0F8014389548965893E
:100F7000768982859385A485B58584179507A6070C
:100F8000B70779F0C8010E94A80581110AC081E065
:100F900090E0D80113969C938E93129780E090E096
:100FA00036C1610183C05B968D919C915C97FC0179
:100FB00074802FEF270D2A013B0139E07694679466
:100FC000579447943A95D1F7722E74207A01F1E044
:100FD000FF22772009F476C080E092E08E199F0905
:100FE00046018C159D0508F44C01D8015B962D91A6
:100FF0003C915C9716968D919D910D90BC91A02D82
:101000000297A109B109F901058404C0880F991F4D
:10101000AA1FBB1F0A94D2F746855785608971893C
:10102000840F951FA61FB71F9C01AD01270D311D11
:10103000411D511D29013A01811432E0930609F046
:1010400088C08091000190910101A0910201B091AE
:101050000301481659066A067B0659F48FEF9FEF85
:10106000DC018093000190930101A0930201B093F1
:1010700003019501B301A201809185019091860140
:101080000E949403882309F482CF9EEFB91AC818EE
:10109000D908F80182859385A485B585880D991DA9
:1010A000A11DB11D82879387A487B587D8011A96A1
:1010B0004D915D916D917C911D97C114D10409F002
:1010C00072CF87C0E114F10409F086CF16964D91D6
:1010D0005D916D917C9119974115510561057105DF
:1010E00059F457968D919D910D90BC91A02D00972C
:1010F000A105B10541F521C09E012F5F3F4F0E9420
:101100002505882309F44BCF89819A81AB81BC8165
:10111000F801238D348DF9012789203129F048EF1A
:101120005FEF6FEF7FE004C048EF5FEF60E070E0DB
:1011300084179507A607B70730F0C8010E943F063D
:1011400081114ACF24CFF80186839783A087B18786
:1011500043CFE114F10429F5D8011A964D915D9120
:101160006D917C911D9753968D919D910D90BC91A1
:10117000A02D481759076A077B0798F00E940004C2
:10118000882309F404CF409200015092010160923B
:101190000201709203018091870181608093870131
:1011A00008C041E0C301B2010E943B04882309F456
:1011B000EECED501F701EF56FE4F9F01280D391DE8
:1011C0002E173F0719F08D918193FACFA80CB91C07
:1011D0005ECFF80183899489A589B689841795071C
:1011E000A607B70738F4438B548B658B768B8481C5
:1011F00080688483F801848183FD02C0C10107C037
:10120000C8010E944207882309F4C1CEF7CF0F908E
:101210000F900F900F90DF91CF911F910F91FF9042
:10122000EF90DF90CF90BF90AF909F908F907F9086
:101230006F905F904F903F902F900895CF93DF93E2
:101240001F92CDB7DEB7698341E050E0BE016F5F0A
:101250007F4F0E948F070F90DF91CF910895CF931A
:10126000DF93EC01898D9A8D009739F481E090E04D
:101270009B838A8380E090E00BC0FC011382128282
:101280000E948F07E98DFA8D22813381232B71F71C
:10129000DF91CF910895FC01DB0112968D919C9115
:1012A00013979383828380E291E0918380831496E5
:1012B0008C911497848315968C9115978583169637
:1012C0004D915D916D917C9119974683578360870D
:1012D00071871A964D915D916D917C911D97428712
:1012E0005387648775871E964D915D916D917C91B2
:1012F000519746875787608B718B52968C91529786
:10130000828B53964D915D916D917C915697438B55
:10131000548B658B768B57964D915D916D917C9139
:101320005A97478B508F618F728F5B968D919C91EE
:101330005C97948F838F08954F925F926F927F9204
:10134000AF92BF92CF92DF92EF92FF920F931F93D3
:10135000CF93DF931F92CDB7DEB7FC012581222307
:1013600009F4C1C0848180FFBEC083899489A589A6
:10137000B689428453846484758484159505A605D2
:10138000B70509F4B0C06F015201F1E0BF22D601E8
:101390005B968D919C915C97B301A20139E07695A3
:1013A0006795579547953A95D1F7223071F4FC012E
:1013B000828D938DA48DB58D8A019B01080F191F15
:1013C0002A1F3B1FC901B8014AC0DC0114961C91B9
:1013D00011501423A114B104F9F411111DC04528B2
:1013E0004628472851F4F6018789908DA18DB28D4A
:1013F00086839783A087B1870FC0D60116964D913B
:101400005D916D917C91199796012A5F3F4F0E94E3
:101410002505882309F467C0F601238D348D868164
:101420009781A085B1850297A109B109AC01BD01E1
:10143000F901058404C0440F551F661F771F0A94E5
:10144000D2F786859785A089B189840F951FA61F3D
:10145000B71FBC01CD01610F711D811D911DD6010A
:1014600014962C9126FF0DC0409000015090010170
:1014700060900201709003014616570668067906CF
:1014800099F440E00E943B04882369F1F501EF568E
:10149000FE4FDE0111969F012F5F3F4F2E173F0732
:1014A00099F081918D93FACFFE0131967F0101E091
:1014B00010E09501AB01BC018091850190918601FE
:1014C0000E940003882379F0F60182859385A48524
:1014D000B5850196A11DB11D82879387A487B58725
:1014E000898190E002C08FEF9FEF0F90DF91CF9145
:1014F0001F910F91FF90EF90DF90CF90BF90AF9032
:101500007F906F905F904F900895FC01818D928D38
:10151000009711F00C949C098FEF9FEF08950F93A3
:101520001F93CF93DF93FC01818D928D0097B9F0CB
:10153000EF010E949C098C010F3F8FEF180791F07B
:10154000898D9A8DFC01428553856485758541504E
:101550005109610971090E94A805C80105C080E010
:1015600090E002C08FEF9FEFDF91CF911F910F911D
:1015700008951F920F920FB60F9211240F900FBE75
:101580000F901F9018950E946A17EF92FF920F9389
:101590001F93CF93DF93EC017B018A0188819981AE
:1015A000009729F02A813B8124173507F8F4B80108
:1015B0006F5F7F4F0E94A416009759F0998388832C
:1015C0001B830A832C813D81232B81F4FC01108233
:1015D0000DC088819981009711F00E941B16198215
:1015E00018821D821C821B821A8207C01D830C83F5
:1015F000B701888199810E948517CE01DF91CF9133
:101600001F910F91FF90EF900895AF92BF92CF92EC
:10161000DF92EF92FF920F931F93CF93DF93CDB79B
:10162000DEB72B970FB6F894DEBF0FBECDBF6C01AF
:10163000FE013196CE010C967F0120E22193E8173E
:10164000F907E1F7DA0120E037E09D91992331F1C4
:101650009E3231F43A3009F4AAC028E03AE0F5CFDE
:10166000E8EBF0E08491882321F031969813FACFCB
:101670009EC0321708F49BC08FED890F8E3508F09D
:1016800096C081E0820FF701E20FF11D2FE9290FCB
:101690002A3108F490529083282FD7CF8981803245
:1016A00009F485C08B01FB01838D948DF601948F25
:1016B000838FFB011682178210861186128613868D
:1016C00014861586B12CF80182859385A485B5858D
:1016D000438954896589768984179507A607B707D2
:1016E00008F065C025E0B695A795979587952A954A
:1016F000D1F7F82FFF70AF2EF8018581823008F402
:1017000056C0C8010E949C0997FD51C0F80182850E
:101710009385A485B5854F96A11DB11D82879387BA
:10172000A487B587F0E2AF9EB00111246F567E4FBB
:1017300061157105E1F1FB0180818823F1F0853E9F
:1017400099F14BE050E0C7010E946F17892B09F017
:10175000BACF6A2DC6012B960FB6F894DEBF0FBE26
:10176000CDBFDF91CF911F910F91FF90EF90DF9050
:10177000CF90BF90AF900C94880FB11018C0F601B5
:10178000A28A8091000190910101A0910201B09183
:10179000030186879787A08BB18BFB01808188230B
:1017A00031F0BB24B3948FCFB110FBCFE8CF80E0F2
:1017B0002B960FB6F894DEBF0FBECDBFDF91CF9151
:1017C0001F910F91FF90EF90DF90CF90BF90AF905F
:1017D0000895CF93DF93FC012581222311F080E04F
:1017E00049C0EC01809153048031C1F482E08583CB
:1017F000178A108E118E128E809154049091550488
:10180000A0E0B0E025E0880F991FAA1FBB1F2A9512
:10181000D1F7838B948BA58BB68B19C08032F9F6E8
:1018200083E0858340915604509157046091580499
:1018300070915904478B508F618F728F9F012D5E7D
:101840003F4F8CE394E00E941F0F882341F28CE30A
:1018500094E09C8F8B8F81E08C831E821F82188680
:1018600019861A861B861C861D861E861F86188A68
:10187000198A1A8ADF91CF9108958F929F92AF9221
:10188000BF92CF92DF92EF92FF92CF93DF93C82F58
:1018900080E394E09093860180938501CC2369F1E5
:1018A000C53010F080E00CC140E060E070E0CB019A
:1018B0000E943B048823B1F320E1C29FC0011124A0
:1018C0008F579E4FFC01E254FE4F20812F7751F736
:1018D0003C96408151816281738144365105610596
:1018E000710500F33497C080D180E280F380C11489
:1018F000D104E104F10421F4D5CFC12CD12C76011F
:1019000040E0C701B6010E943B04882359F2809150
:101910009C0190919D018115924021F6A091A10119
:10192000AA2309F4BFCF60919F017091A0016115B6
:10193000710509F4B7CF20919E01222309F4B2CF9B
:10194000A0934E042093400480E030E041E050E05A
:10195000C82FFA01082E02C0EE0FFF1F0A94E2F70B
:101960002E173F0739F08F5FC83091F789E08093D9
:10197000490498CF809349042091A7013091A80190
:101980002115310519F040E050E008C02091B50163
:101990003091B6014091B7015091B80120934104B4
:1019A000309342044093430450934404460157014A
:1019B000860E971EA11CB11C80924F049092500479
:1019C000A0925104B0925204E091A201F091A301BF
:1019D000F0935504E0935404B0E00E942C15860E59
:1019E000971EA81EB91E8092560490925704A0928A
:1019F0005804B092590485E0EE0FFF1F8A95E1F775
:101A0000E150FE4FEF2FFF27E6958E0E9F1EA11C83
:101A1000B11C80924A0490924B04A0924C04B09264
:101A20004D042091A4013091A5012115310521F02B
:101A3000A90160E070E008C04091B1015091B2018D
:101A40006091B3017091B401D701C6018819990959
:101A5000AA09BB09840F951FA61FB71F04C0B6951E
:101A6000A79597958795CA95D2F78093450490934B
:101A70004604A0934704B0934804853F2FE09207A3
:101A8000A105B10510F48CE018C0853F9F4FA1055A
:101A9000B10510F480E111C08091BD019091BE01AB
:101AA000A091BF01B091C001809356049093570458
:101AB000A0935804B093590480E28093530481E0CA
:101AC000DF91CF91FF90EF90DF90CF90BF90AF90DC
:101AD0009F908F90089590E0FC01EC55FF4F24916A
:101AE000FC01E057FF4F8491882399F090E0880F24
:101AF000991FFC01EA57FF4FA591B491FC01E458EE
:101B0000FF4F859194918FB7F894EC91E22BEC9371
:101B10008FBF089590E0FC01E859FF4F2491FC012C
:101B2000EC55FF4F3491FC01E057FF4FE491EE2359
:101B300009F43CC0222339F1233091F038F42130EC
:101B4000A9F0223001F584B58F7D12C0273091F0C5
:101B50002830A1F02430B9F4809180008F7D03C03B
:101B6000809180008F77809380000DC084B58F773F
:101B700084BD09C08091B0008F7703C08091B00010
:101B80008F7D8093B000F0E0EE0FFF1FE458FF4F11
:101B9000A591B4919FB7F894611104C08C913095D0
:101BA000382302C0EC913E2B3C939FBF08952FB782
:101BB000F89460918D0170918E0180918F019091C8
:101BC00090012FBF08951F920F920FB60F9211240C
:101BD0002F933F938F939F93AF93BF9380918D01EA
:101BE00090918E01A0918F01B091900130918C0164
:101BF00023E0230F2D3720F40196A11DB11D05C050
:101C000026E8230F0296A11DB11D20938C0180931D
:101C10008D0190938E01A0938F01B09390018091DC
:101C2000880190918901A0918A01B0918B01019660
:101C3000A11DB11D8093880190938901A0938A0111
:101C4000B0938B01BF91AF919F918F913F912F9155
:101C50000F900FBE0F901F90189542E050E069E77B
:101C600071E081E993E00C949000CF93DF930097AB
:101C700079F0FC0101900020E9F73197AF01481B92
:101C8000590BBC0181E993E00E949000EC0102C075
:101C9000C0E0D0E00E942D0E8C0F9D1FDF91CF91F0
:101CA0000895EF92FF920F931F93CF93DF93CDB7D9
:101CB000DEB7A2970FB6F894DEBF0FBECDBF8C0182
:101CC000CB01BA01F80111821082138212821582AF
:101CD00014822AE0AE014F5F5F4F7A010E94B61472
:101CE000F70101900020E9F73197AF014E195F0924
:101CF000B701C8010E94C50AA2960FB6F894DEBFCC
:101D00000FBECDBFDF91CF911F910F91FF90EF904C
:101D10000895E1E9F3E0A089B18982E08C93A4857C
:101D2000B5851C92A685B7858FEC8C93108EA489FF
:101D3000B58986E08C93A289B3898C9180618C935C
:101D4000A289B3898C9188608C93A289B3898C9184
:101D500080688C930288F389E02D80818F7D808359
:101D600008950F931F93CF93DF938C01EB01FC0138
:101D7000808191810097B1F0688179816115710549
:101D800079F0428153812C813D814217530740F005
:101D90000E9485178C819D81F8019583848313C0EF
:101DA0000E941B1688819981F801918380838A8122
:101DB0009B81938382838C819D8195838483198207
:101DC00018821B821A821D821C82DF91CF911F9183
:101DD0000F910895EF92FF920F931F93CF93DF938C
:101DE000EC017B018A011B821A8288EE93E0A0E05D
:101DF000B0E08C839D83AE83BF838AE491E09983B6
:101E000088838DE190E00E9483159A8F898F0097D7
:101E100079F02DE1F701DC0101900D922A95E1F7AF
:101E20004CE050E0B801CE010C960E948C17188E41
:101E3000DF91CF911F910F91FF90EF9008954F92F6
:101E40005F926F927F92AF92BF92CF92DF92EF92AA
:101E5000FF920F931F93CF93DF9300D000D0CDB7A5
:101E6000DEB78C0149835A836B837C835901C12C73
:101E7000D12C7601412C82E0582E612C712C4981A5
:101E80005A816B817C819E012F5F3F4FC8010E9468
:101E90002505882351F1D301C201F801058404C04E
:101EA000880F991FAA1FBB1F0A94D2F7C80ED91E0C
:101EB000EA1EFB1E49815A816B817C8187898031B2
:101EC00029F088EF9FEFAFEFBFE004C088EF9FEFEE
:101ED000A0E0B0E0481759076A077B0780F2F501D8
:101EE000C082D182E282F38281E00F900F900F9046
:101EF0000F90DF91CF911F910F91FF90EF90DF90A6
:101F0000CF90BF90AF907F906F905F904F9008956B
:101F1000CF93DF93EC0180E2689FF0011124EF562C
:101F2000FE4F6A8B8091000190910101A091020106
:101F3000B09103018E879F87A88BB98B44895589FF
:101F400060E070E0BA0155274427828D938DA0E0B0
:101F5000B0E0482B592B6A2B7B2B4F8B588F698F06
:101F60007A8F8385887151F4848D958DA68DB78D78
:101F70008B8B9C8BAD8BBE8B81E00EC0803111F0C2
:101F800080E015C09E012D5E3F4F8B8D9C8D0E9481
:101F90001F0F8823A9F384E08D8381E08C831E8248
:101FA0001F82188619861A861B861C861D86DF915D
:101FB000CF910895CF93DF93CDB7DEB7C752D1400D
:101FC0000FB6F894DEBF0FBECDBF789484B58260A3
:101FD00084BD84B5816084BD85B5826085BD85B5CD
:101FE000816085BD80916E00816080936E0010924B
:101FF00081008091810082608093810080918100C6
:102000008160809381008091800081608093800056
:102010008091B10084608093B1008091B0008160B4
:102020008093B00080917A00846080937A008091E0
:102030007A00826080937A0080917A008160809338
:102040007A0080917A00806880937A001092C100B3
:102050000E94890E0E94890E80915F04882321F0DE
:102060008AE594E00E947B0710923B0410923904A9
:1020700010923604109235048AE0809334040E9452
:10208000D70D8B01809134040E946B0D61E080912B
:1020900034040E948A0DFFB6F89480918401811166
:1020A00024C0EAE9F0E08491EEEAF0E09491E82FB0
:1020B000F0E0EE0FFF1FEA57FF4FA591B491EC91AE
:1020C000E92321F461E08AE00E948A0D8AE00E94FF
:1020D0006B0D8CB580618CBD8CB580648CBD8DE042
:1020E0000E946B0D8BE00E946B0D809184018F5FCD
:1020F00080938401FFBE82E580932E0410922F040A
:1021000080912E0490912F040E9498022AE0F22ED2
:102110008FEF0E945902FA94F110FACF80E394E015
:102120000E949B0220E030E0A90160E080E394E09F
:102130000E94B102F82E80933A0481E0F81649F02B
:102140000E94D70D601B710B613D774058F381E011
:1021500056C02AEA31E040E050E068E080E394E0D5
:102160000E94B10282FF03C0F0923B0410C094E0D1
:10217000F92E0E94600280933A04FA94F110F9CF8C
:102180008A3A11F082E03BC082E080933B04809168
:102190003B04823021F0C12CD12C760105C0C12C2A
:1021A000D12CE12C80E4F82E20E030E0A90167E397
:1021B00080E394E00E94B102A701960169E280E306
:1021C00094E00E94B10280933A04882349F00E946F
:1021D000D70D601B710B613D774030F388E00FC075
:1021E00080913B04823001F520E030E0A9016AE3F0
:1021F00080E394E00E94B102882341F086E080935E
:10220000350480E394E00E944E0228C00E946002E0
:10221000807C803C19F483E080933B040E94600240
:102220000E9460020E94600280E394E00E944E02DD
:1022300080E580932E0410922F0481E00E943D0CD3
:10224000882339F08AE594E00E94E90B882331F075
:1022500008C080E00E943D0C8111F4CF88E591E038
:10226000BBC01C821B8200E211E01A8309831E821C
:10227000CE0101960E94E90BBE016F5F7F4FCE0138
:102280008A519F4F0E944B09C553DF4F1982188214
:10229000CB5CD040C753DF4F19830883C95CD04063
:1022A000C253DF4F1882CE5CD040C551DF4F8881CA
:1022B000CB5ED040811126C0CB5FDE4F19821882E1
:1022C000C550D14088EE93E0A0E0B0E0C95FDE4F9A
:1022D00088839983AA83BB83C750D1408AE491E065
:1022E000CD5FDE4F99838883C350D140C45EDE4FFB
:1022F00019821882CC51D140C15FDE4F1882CF5075
:10230000D14022C044E651E0BE016A517F4FCE0168
:1023100087539F4F0E94050B882371F2CE018A518B
:102320009F4F0E947B07BE0167537F4FCE010196EE
:102330000E944B0944E651E0BE016F5F7F4FCE0122
:102340008D5F9E4F0E94EA0ECB5FDE4F88819981A0
:10235000C550D14090937C0480937B04C95FDE4FCD
:1023600088819981AA81BB81C750D14080937D0427
:1023700090937E04A0937F04B0938004C55FDE4FEA
:1023800088819981AA81BB81CB50D14080938104FF
:1023900090938204A0938304B0938404A3E0B1E0FB
:1023A000AC0FBD1F1C96E5E8F4E08D91819384E0AD
:1023B000E239F807D1F7C45EDE4FE881F981CC51EC
:1023C000D140F0939304E0939204309719F0858103
:1023D000811104C08CE691E00E94350E6BE771E03C
:1023E000CE01825E9E4F0E94DB016BE771E0CE0161
:1023F0008D5F9E4F0E94DB016BE771E0CE018A5139
:102400009F4F0E94DB01FE0131967F0100E010E04A
:102410006F0189E794E00E94850A97FF2EC001159D
:10242000110509F4F4C0F601E00FF11F10824AE033
:1024300050E0BE016A5D7E4FC6010E947013AB0181
:10244000BC01CE0187539F4F0E94510EBE016753BE
:102450007F4FCE01825E9E4F0E94B10ECE01875308
:102460009F4F0E94D601CA5DDE4F88819981C65276
:10247000D140C816D906C1F4CAC08A30910599F274
:10248000F70181937F010F5F1F4F083C110509F68B
:10249000BEC0CF010196CA5DDE4F99838883C652C4
:1024A000D14080818C3249F0CA5DDE4FE881F981EC
:1024B000C652D14080818111ECCF4AE050E0BE018C
:1024C0006C5D7E4FCA5DDE4F88819981C652D140D6
:1024D0000E947013AB01BC01CE0187539F4F0E9435
:1024E000510EBE0167537F4FCE018D5F9E4F0E94FC
:1024F000B10ECE0187539F4F0E94D6010BC0CF0172
:102500000196CA5DDE4F99838883C652D14080818F
:102510008C3249F0CA5DDE4FE881F981C652D14064
:1025200080818111ECCF4AE050E0BE016C5D7E4FAE
:10253000CA5DDE4F88819981C652D1400E947013D6
:10254000AB01BC01CE0187539F4F0E94510EBE01CB
:1025500067537F4FCE018A519F4F0E94B10ECE012B
:1025600087539F4F0E94D6010BC0CF010196CA5DD1
:10257000DE4F99838883C652D14080818C3249F0E6
:10258000CA5DDE4FE881F981C652D1408081811158
:10259000ECCFAE014C5D5E4F67E771E0CA5DDE4F88
:1025A00088819981C652D1400E948F14BC01CE010E
:1025B00087539F4F0E94DB0111E0CC5DDE4F2881E5
:1025C0003981C452D140CA5DDE4F88819981C6529B
:1025D000D1402817390709F410E0CE0187539F4FE7
:1025E0000E94D601112399F0C651DF4F48815981CD
:1025F000CA5ED040CA51DF4F68817981C65ED04043
:1026000081E993E00E9490000E942D0EFCCECE0145
:102610008A519F4F0E94D601CE018D5F9E4F0E942E
:10262000D601CE01825E9E4F0E94D6010E94920189
:10263000D5CEE1E9F3E01382128288EE93E0A0E0C8
:10264000B0E084839583A683B7832EE031E03183A5
:10265000208325EC30E03587248724EC30E0378771
:10266000268720EC30E0318B208B21EC30E0338B5F
:10267000228B22EC30E0358B248B26EC30E0378B3C
:10268000268B118E128E138E148EEEE2F4E020E56E
:1026900020831182E0E3F4E015821682118613860E
:1026A00042E050E060E070E04487558766877787B6
:1026B00013A215A614A620E231E033A722A717A67D
:1026C000E9E7F4E01382128284839583A683B783BB
:1026D0008AE491E091838083128E118E148608958E
:1026E000A0E0B0E0E6E7F3E10C9438155C016B0183
:1026F0007A016115710519F0FB0191838083E11462
:10270000F10429F0C7010297839708F0E5C0E501BD
:102710002196F5011081812F90E00E948614892B6B
:1027200011F05E01F4CF1D3229F42196F5011181DB
:1027300001E007C01B3221F4E5012296F501118169
:1027400000E0E114F10409F1F0E1EF16F10429F4DD
:102750003FC010E3E114F10421F128E0E216F10496
:1027600001F154F4E2E0EE16F10421F5812C912CF4
:10277000A12CB0E4BB2E3EC0FAE0EF16F10439F014
:1027800020E1E216F104B1F430C0103319F1FAE09F
:10279000EF2EF12CACEC8A2E982CA82CACE0BA2EA3
:1027A00029C078E0E72EF12C812C912CA12CE0E1BE
:1027B000BE2E20C060E070E080E090E897010F2C12
:1027C000000C440B550B0E940A1549015A0112C016
:1027D000103359F488818F7D883509F0BACF19817B
:1027E0002296026080E1E82EF12C812C912CA12C04
:1027F00068E0B62E40E060E070E0CB0127010F2CCE
:10280000000C66087708FE0150ED352E310E29E0E8
:10281000231570F42FEB210F2A3118F439EC332EE5
:1028200006C02FE9210F2A3118F529EA322E310E80
:10283000232D30E02E153F05DCF447FD16C086162B
:102840009706A806B90670F0A30192010E94FA1437
:10285000630D711D811D911D61307105810520E899
:10286000920710F04FEF01C041E021961081CBCFCD
:10287000202F2170C114D10471F0442329F0219735
:10288000F601D183C08307C001FF19C02297F6016A
:10289000D183C08314C047FF12C0222329F060E017
:1028A00070E080E090E804C06FEF7FEF8FEF9FE76C
:1028B00022E230E0309395042093940409C022234F
:1028C00081F090958095709561957F4F8F4F9F4FC8
:1028D000462F372F282F12C040E030E020E090E054
:1028E0000DC097FFF5CF82E290E09093950480931E
:1028F00094046FEF7FEF8FEF9FE7EACF642F732F82
:10290000822FCDB7DEB7E1E10C94541591110C94F0
:10291000E714803219F089508550C8F70895FA01FC
:10292000A191B081009719F41097E1F0CD01DC017D
:10293000CD010D90002011F4C00113C0FB012191C5
:10294000222319F02015D9F7F3CFFB01219120158F
:1029500019F41E92119606C02223C1F70D90002093
:10296000A1F7D001FA01A193B0830895BB272A30C3
:1029700051F4992342F4BDE290958095709561954C
:102980007F4F8F4F9F4F0C94C614BB27FA01A62F81
:102990006217710581059105330B30FB66F0AA279C
:1029A000660F771F881F991FAA1FA21710F0A21B7E
:1029B00063953850A9F7A05DAA3308F0A95DA193EB
:1029C00036F7B111B1931082CA010C94EA14992719
:1029D00088270895DC01FC01672F71917723E1F7C7
:1029E000329704C07C916D9370836291AE17BF07DC
:1029F000C8F30895DB018F939F930E942C15BF911C
:102A0000AF91A29F800D911DA39F900DB29F900D3D
:102A100011240895A1E21A2EAA1BBB1BFD010DC0B3
:102A2000AA1FBB1FEE1FFF1FA217B307E407F5077E
:102A300020F0A21BB30BE40BF50B661F771F881F5A
:102A4000991F1A9469F760957095809590959B01F0
:102A5000AC01BD01CF0108950E946E15A59F900D98
:102A6000B49F900DA49F800D911D112408952F9265
:102A70003F924F925F926F927F928F929F92AF920E
:102A8000BF92CF92DF92EF92FF920F931F93CF935B
:102A9000DF93CDB7DEB7CA1BDB0B0FB6F894DEBFF2
:102AA0000FBECDBF09942A88398848885F846E8418
:102AB0007D848C849B84AA84B984C884DF80EE8062
:102AC000FD800C811B81AA81B981CE0FD11D0FB66B
:102AD000F894DEBF0FBECDBFED010895A29FB001F7
:102AE000B39FC001A39F700D811D1124911DB29F42
:102AF000700D811D1124911D0895EE0FFF1F05908B
:102B0000F491E02D09940F931F93CF93DF938230BC
:102B1000910510F482E090E0E0919804F09199041E
:102B200020E030E0A0E0B0E0309719F14081518121
:102B30000281138148175907C8F08417950769F473
:102B4000109731F012960C93129713961C9327C08E
:102B5000009398041093990422C02115310519F0AF
:102B60004217530718F49A01BD01EF01DF01F80184
:102B7000DBCF21153105F9F0281B390B2430310545
:102B800080F48A819B816115710521F0FB0193839B
:102B9000828304C09093990480939804FE01329636
:102BA00044C0FE01E20FF31F81939193225031093B
:102BB000398328833AC02091960430919704232BBF
:102BC00041F420910601309107013093970420933E
:102BD000960420910401309105012115310541F43D
:102BE0002DB73EB74091080150910901241B350BC8
:102BF000E0919604F0919704E217F307A0F42E1BDE
:102C00003F0B2817390778F0AC014E5F5F4F241750
:102C1000350748F04E0F5F1F50939704409396047A
:102C20008193919302C0E0E0F0E0CF01DF91CF917A
:102C30001F910F910895CF93DF93009709F481C0FE
:102C4000FC01329713821282A0919804B0919904EA
:102C5000109781F420813181820F931F2091960477
:102C6000309197042817390751F5F0939704E093B2
:102C7000960467C0ED0120E030E0CE17DF0740F496
:102C80004A815B819E0141155105F1F0EA01F5CFC2
:102C9000D383C28340815181840F951FC817D90700
:102CA00059F488819981840F951F029691838083BE
:102CB0008A819B81938382832115310529F4F093C6
:102CC0009904E09398043DC0E901FB83EA834991AC
:102CD0005991C40FD51FEC17FD0761F480819181D4
:102CE000840F951F0296E9019983888382819381DD
:102CF0009B838A83E0E0F0E012968D919C9113977C
:102D0000009719F0FD01DC01F7CF8D919C9111978F
:102D10009D012E5F3F4F820F931F209196043091AB
:102D200097042817390769F4309729F41092990409
:102D30001092980402C013821282B0939704A09359
:102D40009604DF91CF910895A0E0B0E0EAEAF6E1C1
:102D50000C943B15EC01009721F4CB010E948315E4
:102D6000B4C0FC01E60FF71F9C0122503109E217A5
:102D7000F30708F4A8C0D9010D911C91119706170B
:102D80001707B0F00530110508F49BC0C80104977F
:102D90008617970708F495C002501109061B170BF8
:102DA000019311936D937C93CF010E941B1689C0F0
:102DB0005B01A01AB10A4C01800E911EA0919804EB
:102DC000B0919904612C712CE12CF12C109709F42D
:102DD00046C08D919C911197A815B905B1F56C016C
:102DE00042E0C40ED11CCA14DB0478F14C018A18ED
:102DF0009B08640142E0C40ED11C1296BC9012974D
:102E00001396AC91B5E0CB16D10440F0B282A38307
:102E100091828082D9016D937C9309C00E5F1F4F10
:102E2000800F911FF90191838083EB2DFA2FE1141C
:102E3000F10431F0D7011396FC93EE93129741C041
:102E4000F0939904E09398043CC06816790608F45E
:102E50003C017D0112960D90BC91A02DB7CF8091C1
:102E600096049091970488169906E1F46616770601
:102E7000C8F48091040190910501009741F48DB749
:102E80009EB74091080150910901841B950BE817EA
:102E9000F907C8F4F0939704E0939604F90171835D
:102EA00060830FC0CB010E9483157C01009759F00D
:102EB000A801BE010E947C17CE010E941B16C7010B
:102EC00004C0CE0102C080E090E0CDB7DEB7EEE0F6
:102ED0000C94571581E090E0F8940C949B17FB013B
:102EE000DC0104C08D910190801921F441505040C3
:102EF000C8F7881B990B0895FB01DC0102C0019003
:102F00000D9241505040D8F70895FB01DC0101902B
:102F10000D920020E1F70895FB01DC014150504083
:102F200048F001900D920020C9F701C01D92415058
:0A2F30005040E0F70895F894FFCF39
:102F3A00FFFFFFFF00009A04800000000000230149
:102F4A009000BA007001EB00C900DD00000000002B
:102F5A001E099000D3018F0000000000C30A9000F0
:102F6A00D3018F00C30AC30AC30A00000000C30AC0
:102F7A009000D3018F0000000000BD012F09D3018A
:102F8A0087079C01850A8F0A626567696E206572E8
:102F9A00726F72006770732E435356006F70656EBE
:0C2FAA00206572726F72002C000D0A008E
:107E0000112484B714BE81FFF0D085E080938100F7
:107E100082E08093C00088E18093C10086E0809377
:107E2000C20080E18093C4008EE0C9D0259A86E02C
:107E300020E33CEF91E0309385002093840096BBD3
:107E4000B09BFECF1D9AA8958150A9F7CC24DD24C4
:107E500088248394B5E0AB2EA1E19A2EF3E0BF2EE7
:107E6000A2D0813461F49FD0082FAFD0023811F036
:107E7000013811F484E001C083E08DD089C08234E0
:107E800011F484E103C0853419F485E0A6D080C0E4
:107E9000853579F488D0E82EFF2485D0082F10E0AE
:107EA000102F00270E291F29000F111F8ED06801E7
:107EB0006FC0863521F484E090D080E0DECF843638
:107EC00009F040C070D06FD0082F6DD080E0C81688
:107ED00080E7D80618F4F601B7BEE895C0E0D1E017
:107EE00062D089930C17E1F7F0E0CF16F0E7DF06D8
:107EF00018F0F601B7BEE89568D007B600FCFDCFD4
:107F0000A601A0E0B1E02C9130E011968C91119780
:107F100090E0982F8827822B932B1296FA010C0160
:107F200087BEE89511244E5F5F4FF1E0A038BF0790
:107F300051F7F601A7BEE89507B600FCFDCF97BE46
:107F4000E89526C08437B1F42ED02DD0F82E2BD052
:107F50003CD0F601EF2C8F010F5F1F4F84911BD097
:107F6000EA94F801C1F70894C11CD11CFA94CF0C13
:107F7000D11C0EC0853739F428D08EE10CD085E9AC
:107F80000AD08FE07ACF813511F488E018D01DD067
:107F900080E101D065CF982F8091C00085FFFCCF94
:107FA0009093C60008958091C00087FFFCCF809118
:107FB000C00084FD01C0A8958091C6000895E0E648
:107FC000F0E098E1908380830895EDDF803219F02E
:107FD00088E0F5DFFFCF84E1DECF1F93182FE3DFCA
:107FE0001150E9F7F2DF1F91089580E0E8DFEE27F6
:047FF000FF270994CA
:027FFE00040479
:0400000300007E007B
:00000001FF
