:100000000C945D000C9485000C9485000C94850084
:100010000C9485000C9485000C9485000C9485004C
:100020000C9485000C9485000C9485000C9485003C
:100030000C9485000C9485000C9485000C9485002C
:100040000C94220C0C9485000C94A8030C9482034D
:100050000C9485000C9485000C9485000C9485000C
:100060000C9485000C94850000000008000201003B
:100070000003040700000000000000000000000072
:10008000250028002B0000000000240027002A0083
:10009000040404040404040402020202020203032E
:1000A0000303030301020408102040800102040836
:1000B0001020010204081020D30E11241FBECFEF20
:1000C000D8E0DEBFCDBF11E0A0E0B1E0E2EAFEE1A2
:1000D00002C005900D92AC37B107D9F724E0ACE728
:1000E000B1E001C01D92A239B207E1F710E0CDE501
:1000F000D0E004C02197FE010E94350FCC35D10716
:10010000C9F70E946C0C0C944F0F0C940000CF9216
:10011000DF92EF92FF920F931F93CF93DF936C01C7
:100120007A018B01C0E0D0E0CE15DF0581F0D80167
:100130006D918D01D601ED91FC910190F081E02D42
:10014000C6010995892B11F02196EECF7E01C701DA
:10015000DF91CF911F910F91FF90EF90DF90CF90A3
:100160000895FC01538D448D252F30E0842F90E0BD
:10017000821B930B541710F0CF96089501970895A2
:10018000FC01918D828D981761F0828DDF01A80F9F
:10019000B11D5D968C91928D9F5F9F73928F90E0C1
:1001A00008958FEF9FEF0895FC01918D828D981730
:1001B00031F0828DE80FF11D858D90E008958FEF6D
:1001C0009FEF0895FC01918D228D892F90E0805C36
:1001D0009F4F821B91098F739927089586E893E0BA
:1001E0000E94E20021E0892B09F420E0822F08958B
:1001F000FC01848DDF01A80FB11DA35ABF4F2C91C4
:10020000848D90E001968F739927848FA689B78992
:100210002C93A089B1898C91837080648C93938D89
:10022000848D981306C00288F389E02D80818F7D2C
:1002300080830895EF92FF920F931F93CF93DF93E4
:10024000EC0181E0888F9B8D8C8D981305C0E88927
:10025000F989808185FD26C0F62E0B8D10E00F5F99
:100260001F4F0F731127E02E8C8DE8120CC00FB6B4
:1002700007FCFACFE889F989808185FFF5CFCE01A7
:100280000E94F800F1CF8B8DFE01E80FF11DE35ABB
:10029000FF4FF0829FB7F8940B8FEA89FB8980812A
:1002A00080620AC09FB7F894EE89FF896083E8896D
:1002B000F98980818370806480839FBF81E090E0B2
:1002C000DF91CF911F910F91FF90EF900895CF9301
:1002D000DF93EC01888D8823C9F0EA89FB8980814E
:1002E00085FD05C0A889B9898C9186FD0FC00FB620
:1002F00007FCF5CF808185FFF2CFA889B9898C9161
:1003000085FFEDCFCE010E94F800E7CFDF91CF91BE
:10031000089580E090E0892B29F00E94EE00811181
:100320000C94000008958FB7F89480917D018FBFE1
:1003300008958EBD00000DB407FEFDCF8EB5089563
:100340008FEF0C9499018CBD9DBD0895DC015996E9
:10035000ED91FC915A973097B9F083899489A589DA
:10036000B6894285538564857585841B950BA60BDC
:10037000B70B811520E89207A105B10538F08FEF82
:100380009FE7A0E0B0E0089580E090E00895CF936B
:10039000DF931F92CDB7DEB76983DC01ED91FC914D
:1003A0000280F381E02D41E050E0BE016F5F7F4F9E
:1003B00009950F90DF91CF910895089580E090E026
:1003C00008950F931F93CF93DF93EB010E94160CB8
:1003D0008B010E94A0018F3F49F00E94160C601B08
:1003E000710B6C177D07A8F380E001C081E0DF91FD
:1003F000CF911F910F910895CF93DF93EC018091DE
:100400007C01811109C081E080937C0180912304EB
:10041000909124040E94A30160E08C81DF91CF9130
:100420000C94A40B61E0FC0184810E94A40B8091D8
:100430007C01811110927C010895CF93DF93EC0130
:100440008E81882389F08F8198859C012F5F3F4F93
:1004500038872F838230924018F40E94A001F3CF96
:10046000CE010E9412021E82DF91CF9108958F92D9
:100470009F92AF92BF92FF920F931F93CF93DF9300
:10048000EC01F62E49015A010E941D02CE010E9484
:10049000FC016CE271E0CE010E94E1018F2D8064CD
:1004A0000E94990108E110E0D501C401002E04C0AA
:1004B000B695A795979587950A94D2F70E949901CA
:1004C00008501109083F8FEF180771F7FF2029F036
:1004D00088E0F81204C087E803C085E901C08FEF07
:1004E0000E94990110E00E94A0018A8787FF04C042
:1004F0001F3F11F01F5FF7CFDF91CF911F910F9139
:10050000FF90BF90AF909F908F900895EF92FF92D1
:100510000F931F93CF93DF93EC01790141155105A0
:100520006105710511F482E13CC08B85833039F09F
:1005300089E0440F551F661F771F8A95D1F79A01EE
:10054000AB0168E1CE010E943702882311F084E0FC
:1005500028C08EEF0E94990187018EEFF81AF801EA
:1005600081918F010E949901E016F106C1F78FEF8A
:100570000E9499018FEF0E9499010E94A0018A8731
:100580008F71853031F081E18D83CE010E9412029E
:1005900009C068E572E0CE010E94E101811107C047
:1005A00085E18D83CE010E94120280E014C020E01C
:1005B00030E0A9016DE0CE010E943702811109C02F
:1005C0000E94A001811105C0CE010E94120281E0AB
:1005D00002C084E1E6CFDF91CF911F910F91FF9090
:1005E000EF90089580917E018823A9F14091000148
:1005F00050910101609102017091030124E831E002
:1006000080918403909185030E948602811102C02B
:1006100080E0089540917F015091800160918101B7
:1006200070918201411551056105710591F024E831
:1006300031E080918403909185030E948602882393
:1006400039F310927F011092800110928101109273
:10065000820110927E0181E008950E944A0FEF927C
:10066000FF920F931F93CF93DF931F92CDB7DEB707
:10067000FC01818D928D009701F17F01BE016F5FBA
:100680007F4F0E94D10A019719F4098110E002C03E
:100690000FEF1FEF0F3F8FEF180789F0F701818DE4
:1006A000928DFC01428553856485758541505109C1
:1006B000610971090E943A0A02C000E010E0C80115
:1006C0000F90DF91CF911F910F91FF90EF900895C0
:1006D000CF93DF931F92CDB7DEB7FC01818D928D52
:1006E000009751F0BE016F5F7F4F0E94D10A0197C2
:1006F00019F4898190E002C08FEF9FEF0F90DF9196
:10070000CF9108951F920F920FB60F9211242F933D
:100710003F934F935F936F937F938F939F93AF9389
:10072000BF93EF93FF9386E893E00E94F800FF9158
:10073000EF91BF91AF919F918F917F916F915F9159
:100740004F913F912F910F900FBE0F901F901895D2
:100750001F920F920FB60F9211242F938F939F9396
:10076000EF93FF93E0919603F09197038081E091DE
:100770009C03F0919D0382FD12C0908180919F03A4
:100780008F5F8F732091A003821751F0E0919F0338
:10079000F0E0EA57FC4F958F80939F0301C0808162
:1007A000FF91EF919F918F912F910F900FBE0F901E
:1007B0001F901895AF92BF92CF92DF92EF92FF9267
:1007C0000F931F93CF93DF93EC016901C801820F50
:1007D000931F8130924008F070C08E81882371F0A1
:1007E00088819981AA81BB8184179507A607B707DD
:1007F00029F48F819885C816D906B0F548835983A6
:100800006A837B838B85833039F089E0440F551FE1
:10081000661F771F8A95D1F79A01AB0161E1CE017E
:100820000E943702882319F083E08D8346C00E941E
:10083000160C5B010E94A0018A878F3F49F40E9439
:10084000160C6A197B096D327140A0F38FE003C06A
:100850008E3F31F08DE08D83CE010E9412022DC0BB
:1008600018861F8281E08E838F8198858C159D0567
:1008700040F40E94A0018F819885019698878F830C
:10088000F3CF6701E00EF11EEC14FD0431F00E947D
:10089000A001F60181936F01F7CF8F819885080F32
:1008A000191F18870F838985882319F001151240B5
:1008B00048F0CE010E941D0205C0CE010E94120226
:1008C00080E001C081E0DF91CF911F910F91FF90F7
:1008D000EF90DF90CF90BF90AF9008958F929F924E
:1008E000AF92BF92EF92FF920F931F93CF934B0162
:1008F0005C01C42F8091000190910101A09102013F
:10090000B091030188159905AA05BB0501F10E9464
:10091000F202811102C080E020C084E8E82E81E06C
:10092000F82E00E012E020E030E0B501A401809153
:100930008403909185030E94DA03882361F38092F7
:10094000000190920101A0920201B09203018091F6
:100950007E01C82BC0937E0181E0CF911F910F9142
:10096000FF90EF90BF90AF909F908F9008954F921F
:100970005F926F927F928F929F92AF92BF92CF922F
:10098000DF92EF92FF920F931F93CF93DF93EC01CF
:10099000423051056105710510F480E078C0898509
:1009A0009A85AB85BC850196A11DB11D841795075D
:1009B000A607B70790F3CB88DC88ED88FE888F897F
:1009C000803129F4BB27A72F962F852F09C0DB0183
:1009D000CA01E7E0B695A79597958795EA95D1F76F
:1009E000480159012A013B01C80ED91EEA1EFB1E0F
:1009F0008091000190910101A0910201B091030149
:100A0000C816D906EA06FB0681F48F898031A9F45D
:100A1000B301A201552766277727440F551FFA0116
:100A2000EC57FE4F9182808219C040E0C701B601A9
:100A30000E946E048111E9CFB0CFB301A2014F77BC
:100A4000552766277727440F551F440F551FFA0176
:100A5000EC57FE4F80829182A282B38280917E0108
:100A6000816080937E018A89823080F08D819E81B1
:100A7000AF81B885C80ED91EEA1EFB1EC0927F0149
:100A8000D0928001E0928101F092820181E0DF91B9
:100A9000CF911F910F91FF90EF90DF90CF90BF907B
:100AA000AF909F908F907F906F905F904F90089540
:100AB0008F929F92AF92BF92CF92DF92EF92FF926E
:100AC0000F931F93CF93DF93FC0181859285A385BC
:100AD000B4850196A11DB11D84179507A607B70718
:100AE00010F480E05BC083889488A588B6888789E5
:100AF000803129F4BB27A72F962F852F09C0DB0152
:100B0000CA01C7E0B695A79597958795CA95D1F77D
:100B1000E9016A017B018F01BC01CD01680D791DDE
:100B20008A1D9B1D8090000190900101A090020100
:100B3000B0900301681579058A059B0591F4F801C9
:100B400087898031A1F4DD24EE24FF24C601880FBB
:100B5000991FFC01EC57FE4F80819181A0E0B0E02D
:100B600018C040E00E946E048111E9CFBACFE8942A
:100B7000C7F8DD24EE24FF24C601880F991F880FD3
:100B8000991FFC01EC57FE4F80819181A281B381B6
:100B9000BF7088839983AA83BB8381E0DF91CF9163
:100BA0001F910F91FF90EF90DF90CF90BF90AF908B
:100BB0009F908F900895CF93DF93EC018D818823D0
:100BC00079F18C8187FF28C06E857F858889998916
:100BD00041E00E946E04882319F1EA8980E2E89FCF
:100BE000F0011124EC57FE4F3097D1F08D81823007
:100BF00040F48B899C89AD89BE89848F958FA68F9F
:100C0000B78F8F89988DA98DBA8D938F828FB58B71
:100C1000A48B8C818F778C83DF91CF910C94F2021F
:100C200080E0DF91CF9108952F923F924F925F9293
:100C30006F927F928F929F92AF92BF92CF92DF92EC
:100C4000EF92FF920F931F93CF93DF9300D000D0CA
:100C5000CDB7DEB78C015B011A01DC0115968C91D2
:100C600015978130C9F414968C9181FF15C082FFCD
:100C70001DC0F801438954896589768982859385E9
:100C8000A485B58584179507A607B70779F0C8012D
:100C90000E943A0A81110AC081E090E0D8011396BF
:100CA0009C938E93129780E090E036C1610183C0DF
:100CB0005B968D919C915C97FC0174802FEF270DC2
:100CC0002A013B0139E076946794579447943A950A
:100CD000D1F7722E74207A01F1E0FF22772009F417
:100CE00076C080E092E08E199F0946018C159D0523
:100CF00008F44C01D8015B962D913C915C971696B7
:100D00008D919D910D90BC91A02D0297A109B109E3
:100D1000F901058404C0880F991FAA1FBB1F0A94FC
:100D2000D2F74685578560897189840F951FA61F64
:100D3000B71F9C01AD01270D311D411D511D29011A
:100D40003A01811432E0930609F088C080910001D5
:100D500090910101A0910201B0910301481659063A
:100D60006A067B0659F48FEF9FEFDC018093000148
:100D700090930101A0930201B09303019501B30187
:100D8000A20180918403909185030E9486028823AA
:100D900009F482CF9EEFB91AC818D908F8018285E4
:100DA0009385A485B585880D991DA11DB11D8287E8
:100DB0009387A487B587D8011A964D915D916D915F
:100DC0007C911D97C114D10409F072CF87C0E11442
:100DD000F10409F086CF16964D915D916D917C914D
:100DE0001997411551056105710559F457968D9173
:100DF0009D910D90BC91A02D0097A105B10541F5E5
:100E000021C09E012F5F3F4F0E945805882309F49F
:100E10004BCF89819A81AB81BC81F801238D348DC0
:100E2000F9012789203129F048EF5FEF6FEF7FE06C
:100E300004C048EF5FEF60E070E084179507A607F5
:100E4000B70730F0C8010E94370981114ACF24CF7B
:100E5000F80186839783A087B18743CFE114F1041B
:100E600029F5D8011A964D915D916D917C911D9750
:100E700053968D919D910D90BC91A02D48175907C7
:100E80006A077B0798F00E94F202882309F404CFD6
:100E900040920001509201016092020170920301A0
:100EA00080917E01816080937E0108C041E0C30192
:100EB000B2010E946E04882309F4EECED501F70139
:100EC000EC57FE4F9F01280D391D2E173F0719F0D3
:100ED0008D918193FACFA80CB91C5ECFF80183895C
:100EE0009489A589B68984179507A607B70738F4AA
:100EF000438B548B658B768B848180688483F80167
:100F0000848183FD02C0C10107C0C8010E94DB05C6
:100F1000882309F4C1CEF7CF0F900F900F900F9058
:100F2000DF91CF911F910F91FF90EF90DF90CF90C5
:100F3000BF90AF909F908F907F906F905F904F90F9
:100F40003F902F900895CF93DF931F92CDB7DEB7D8
:100F5000698341E050E0BE016F5F7F4F0E9414063D
:100F60000F90DF91CF910895CF93DF93EC01898D9E
:100F70009A8D009739F481E090E09B838A8380E02A
:100F800090E00BC0FC01138212820E941406E98DCE
:100F9000FA8D22813381232B71F7DF91CF91089550
:100FA000FC01818D928D009711F00C94DB05089562
:100FB000009769F0FC0101900020E9F73197AF013B
:100FC000481B590BBC0186E893E00C94870080E035
:100FD00090E008958F929F92AF92BF92CF92DF924E
:100FE000EF92FF92CF93DF93C82F85E294E0909326
:100FF000850380938403CC2369F1C53010F080E031
:101000000CC140E060E070E0CB010E946E048823D8
:10101000B1F320E1C29FC00111248C589E4FFC0106
:10102000E254FE4F20812F7751F73C964081518149
:1010300062817381443651056105710500F334976F
:10104000C080D180E280F380C114D104E104F104B6
:1010500021F4D5CFC12CD12C760140E0C701B601D7
:101060000E946E04882359F280918F019091900123
:101070008115924021F6A0919401AA2309F4BFCFD3
:1010800060919201709193016115710509F4B7CFD8
:1010900020919101222309F4B2CFA093430420931D
:1010A000350480E030E041E050E0C82FFA01082E1E
:1010B00002C0EE0FFF1F0A94E2F72E173F0739F028
:1010C0008F5FC83091F789E080933E0498CF80937A
:1010D0003E0420919A0130919B012115310519F0B0
:1010E00040E050E008C02091A8013091A901409152
:1010F000AA015091AB0120933604309337044093FA
:1011000038045093390446015701860E971EA11CDE
:10111000B11C8092440490924504A0924604B0927F
:101120004704E0919501F0919601F0934A04E09311
:101130004904B0E00E942A0F860E971EA81EB91E11
:1011400080924B0490924C04A0924D04B0924E04B5
:1011500085E0EE0FFF1F8A95E1F7E150FE4FEF2F7C
:10116000FF27E6958E0E9F1EA11CB11C80923F04A6
:1011700090924004A0924104B092420420919701C1
:10118000309198012115310521F0A90160E070E04E
:1011900008C04091A4015091A5016091A6017091F1
:1011A000A701D701C60188199909AA09BB09840FAB
:1011B000951FA61FB71F04C0B695A795979587954D
:1011C000CA95D2F780933A0490933B04A0933C04D1
:1011D000B0933D04853F2FE09207A105B10510F4BF
:1011E0008CE018C0853F9F4FA105B10510F480E148
:1011F00011C08091B0019091B101A091B201B09164
:10120000B30180934B0490934C04A0934D04B0938E
:101210004E0480E28093480481E0DF91CF91FF90FB
:10122000EF90DF90CF90BF90AF909F908F900895F8
:1012300090E0FC01EC55FF4F2491FC01E057FF4F7B
:101240008491882399F090E0880F991FFC01EA5758
:10125000FF4FA591B491FC01E458FF4F8591949103
:101260008FB7F894EC91E22BEC938FBF08953F92E7
:101270004F925F926F927F928F929F92AF92BF92A6
:10128000CF92DF92EF92FF920F931F93CF93DF9352
:10129000CDB7DEB72C970FB6F894DEBF0FBECDBF2B
:1012A0005C01DC015B968D909C905C971696CD90CE
:1012B000DD90ED90FC901997C114D104E104F10484
:1012C00039F0BFEFCB1ADB0AEB0AFB0A312C07C05F
:1012D000F401C080D180E280F38033243394F401A0
:1012E00081859285A385B4859C01AD012F5F3F4F19
:1012F0004F4F5F4F29873A874B875C87260137011D
:101300001D821E821F821886F40181859285A38525
:10131000B4852D813E814F815885281739074A07AA
:101320005B0708F063C089859A85AB85BC858C1501
:101330009D05AE05BF0550F482E0C82ED12CE12CEE
:10134000F12C92E0492E512C612C712C9E012F5FC3
:101350003F4FB701A601C4010E945805882309F434
:1013600045C089819A81AB81BC81892B8A2B8B2BCB
:1013700041F0260137019FEF491A590A690A790A93
:1013800005C0C414D504E604F70491F02D813E8114
:101390004F8158852F5F3F4F4F4F5F4F2D833E83C7
:1013A0004F8358873FEFC31AD30AE30AF30AACCF3F
:1013B0000FEF1FEF2FEF3FE0B301A201C4010E9426
:1013C000B704882399F0D50116964D915D916D91E2
:1013D0007C911997411551056105710549F09301FB
:1013E0008201C4010E94B704811102C080E02AC0BA
:1013F000D50116964D925D926D927C92199733208D
:1014000051F0D301C2010196A11DB11DF4018083E9
:101410009183A283B383F5018789908DA18DB28DCD
:10142000892B8A2B8B2B69F4D50157964D925D92AF
:101430006D927C925A9714968C91149780681496AA
:101440008C9381E02C960FB6F894DEBF0FBECDBF13
:10145000DF91CF911F910F91FF90EF90DF90CF9090
:10146000BF90AF909F908F907F906F905F904F90C4
:101470003F9008958F929F92AF92BF92CF92DF924A
:10148000EF92FF920F931F93CF93DF93EC018D8127
:10149000811102C080E078C00B891C892D893E89AA
:1014A0000417150726073707A8F36A017B01823066
:1014B00029F4CA86DB86EC86FD860DC0C114D104F2
:1014C000E104F10451F41E821F82188619861A86DF
:1014D0001B861C861D8681E057C08A849B84AC8451
:1014E000BD84EB8DFC8D258530E0275F3F4FB50136
:1014F000A4014150510961097109022E04C0769579
:101500006795579547950A94D2F7D701C601019779
:10151000A109B10904C0B695A795979587952A9515
:10152000D2F784179507A607B70720F089288A28DD
:101530008B2871F44F89588D698D7A8D4E835F8326
:10154000688779874C015D018E010A5F1F4F16C0C5
:10155000841B950BA60BB70BF5CF4E815F81688579
:10156000798598018B8D9C8D0E94580591E0891A90
:101570009108A108B108882309F48CCF8114910443
:10158000A104B10451F795CFDF91CF911F910F9135
:10159000FF90EF90DF90CF90BF90AF909F908F9093
:1015A00008958F929F92AF92BF92CF92DF92EF9267
:1015B000FF920F931F93CF93DF93EC012D812111A5
:1015C00003C08FEF9FEFB3C08C8180FFFACF8B8970
:1015D0009C89AD89BE898A849B84AC84BD8488152E
:1015E0009905AA05BB0519F480E090E0A0C07B0135
:1015F0006401F1E0DF228B8D9C8DB501A40139E0FF
:1016000076956795579547953A95D1F7223071F4BD
:10161000FC01828D938DA48DB58D8A019B01080FED
:10162000191F2A1F3B1FC901B80143C0FC011481C7
:1016300011501423C114D104D9F4111119C08928EF
:101640008A288B2849F48F89988DA98DBA8D8E832D
:101650009F83A887B9870CC04E815F816885798593
:101660009E012A5F3F4F0E945805882309F4A9CFA5
:10167000EB8DFC8D8E819F81A885B9850297A1098C
:10168000B109AC01BD01058404C0440F551F661F9C
:10169000771F0A94D2F786859785A089B189840F30
:1016A000951FA61FB71FBC01CD01610F711D811DC4
:1016B000911D2C8126FF0DC08090000190900101AA
:1016C000A0900201B090030186169706A806B906FD
:1016D00099F440E00E946E04882309F472CFD60189
:1016E000AC57BE4FF7019D012F5F3F4F2A173B07B5
:1016F00089F08D918193FACF01E010E09601AB0162
:10170000BC0180918403909185030E94DA038823B1
:1017100009F457CF8A859B85AC85BD850196A11DAF
:10172000B11D8A879B87AC87BD8781E05ECFDF9143
:10173000CF911F910F91FF90EF90DF90CF90BF90CE
:10174000AF909F908F90089590E0FC01E859FF4F73
:101750002491FC01EC55FF4F3491FC01E057FF4F01
:10176000E491EE2309F43CC0222339F1233091F0B7
:1017700038F42130A9F0223001F584B58F7D12C0F4
:10178000273091F02830A1F02430B9F48091800006
:101790008F7D03C0809180008F77809380000DC083
:1017A00084B58F7784BD09C08091B0008F7703C066
:1017B0008091B0008F7D8093B000F0E0EE0FFF1FAE
:1017C000E458FF4FA591B4919FB7F894611104C0FC
:1017D0008C913095382302C0EC913E2B3C939FBFF7
:1017E00008953FB7F8948091730490917404A09188
:1017F0007504B091760426B5A89B05C02F3F19F05B
:101800000196A11DB11D3FBFBA2FA92F982F882780
:10181000820F911DA11DB11DBC01CD0142E0660FDB
:10182000771F881F991F4A95D1F708952FB7F8940D
:1018300060916F04709170048091710490917204B2
:101840002FBF08951F920F920FB60F9211242F935E
:101850003F938F939F93AF93BF9380916F04909129
:101860007004A0917104B091720430916E0423E071
:10187000230F2D3720F40196A11DB11D05C026E8C8
:10188000230F0296A11DB11D20936E0480936F0457
:1018900090937004A0937104B093720480917304C8
:1018A00090917404A0917504B09176040196A11DE5
:1018B000B11D8093730490937404A0937504B09346
:1018C0007604BF91AF919F918F913F912F910F908F
:1018D0000FBE0F901F901895CF93DF9300D000D0CC
:1018E000CDB7DEB7789484B5826084BD84B581605D
:1018F00084BD85B5826085BD85B5816085BD8091DB
:101900006E00816080936E00109281008091810052
:10191000826080938100809181008160809381004A
:10192000809180008160809380008091B10084600C
:101930008093B1008091B00081608093B00080916D
:101940007A00846080937A0080917A00826080932C
:101950007A0080917A00816080937A0080917A0089
:10196000806880937A001092C100E0919603F09114
:10197000970382E08083E0919203F09193031082B9
:10198000E0919403F09195038FEC808310929E0375
:10199000E0919A03F0919B0386E08083E0919803A5
:1019A000F0919903808180618083E0919803F091A8
:1019B0009903808188608083E0919803F091990376
:1019C000808180688083E0919803F0919903808101
:1019D0008F7D808384E391E00E94D8078091540436
:1019E000882339F08FE494E00E94DB058111109286
:1019F00054041092300410922E0410922B04109272
:101A00002A048AE0809329040E94160C8B0180919D
:101A100029040E94180961E0809129040E94A40B06
:101A2000FFB6F89480918301811124C0EAE9F0E0C7
:101A30008491EEEAF0E09491E82FF0E0EE0FFF1FC2
:101A4000EA57FF4FA591B491EC91E92321F461E0AD
:101A50008AE00E94A40B8AE00E9418098CB580617C
:101A60008CBD8CB580648CBD8DE00E9418098BE024
:101A70000E941809809183018F5F80938301FFBECC
:101A800082E5809323041092240480912304909192
:101A900024040E94A3015AE0F52E8FEF0E949901C1
:101AA000FA94F110FACF85E294E00E94FC0120E064
:101AB00030E0A90160E085E294E00E943702F82E50
:101AC00080932F0421E0821749F00E94160C601BBE
:101AD000710B613D774058F381E056C02AEA31E04E
:101AE00040E050E068E085E294E00E94370282FF27
:101AF00003C0F092300410C044E0F42E0E94A00114
:101B000080932F04FA94F110F9CF8A3A11F082E011
:101B10003BC082E08093300480913004823021F019
:101B2000C12CD12C760105C0C12CD12CE12C30E484
:101B3000F32E20E030E0A90167E385E294E00E9403
:101B40003702A701960169E285E294E00E9437021C
:101B500080932F04882349F00E94160C601B710BA0
:101B6000613D774030F388E00FC0809130048230CF
:101B700001F520E030E0A9016AE385E294E00E94EB
:101B80003702882341F086E080932A0485E294E0BE
:101B90000E941202FFC00E94A001807C803C19F4C8
:101BA00083E0809330040E94A0010E94A0010E9463
:101BB000A00185E294E00E94120280E58093230454
:101BC0001092240481E00E94EA07882329F0809182
:101BD0005404882341F0DEC080E00E94EA07882395
:101BE00009F4D8C0F4CF80914804803109F582E02F
:101BF0008093540410926604109267041092680453
:101C0000109269048091490490914A04A0E0B0E0E8
:101C100025E0880F991FAA1FBB1F2A95D1F7809333
:101C2000620490936304A0936404B09365045DC060
:101C3000803209F0AFC083E08093540480914B045C
:101C400090914C04A0914D04B0914E048093660491
:101C500090936704A0936804B093690489839A837E
:101C6000AB83BC83C12CD12C7601812C92E0992EC0
:101C7000A12CB12C49815A816B817C819E012F5FFF
:101C80003F4F81E394E00E945805882309F482C005
:101C9000D501C40100903E0404C0880F991FAA1FFB
:101CA000BB1F0A94D2F7C80ED91EEA1EFB1E49813B
:101CB0005A816B817C8180914804803129F088EFC2
:101CC0009FEFAFEFBFE004C088EF9FEFA0E0B0E070
:101CD000481759076A077B0768F2C0926204D092DE
:101CE0006304E0926404F092650481E394E09093CD
:101CF0006B0480936A0481E080935304109255042E
:101D000010925604109257041092580410925904DD
:101D100010925A0410925B0410925C0410925D04BD
:101D200010925E0410925F0410926004109261049D
:101D30008CE491E00E94D80781E691E00E94D807E8
:101D40000E94F10B4B015C0180EDC82E87E0D82E7C
:101D5000E12CF12C0E94F10BDC01CB0188199909CF
:101D6000AA09BB09883E9340A105B10598F381E01B
:101D7000C81AD108E108F10828EE820E23E0921E6D
:101D8000A11CB11CC114D104E104F10419F70E9493
:101D90008901FDCF84E691E00E94D80781E691E0B9
:101DA0000E94D807FFCFE6E8F3E01382128288EEA4
:101DB00093E0A0E0B0E084839583A683B78328E016
:101DC00031E03183208325EC30E03587248724EC13
:101DD00030E03787268720EC30E0318B208B21ECF8
:101DE00030E0338B228B22EC30E0358B248B26ECD9
:101DF00030E0378B268B118E128E138E148EE3E219
:101E0000F4E020E520831182E5E2F4E015821682F9
:101E10001186138642E050E060E070E04487558709
:101E20006687778713A215A614A62AE131E033A7A7
:101E300022A717A6E7E7F4E0138212828483958332
:101E4000A683B78386E291E091838083128E118E00
:101E5000148608950E943B0FA59F900DB49F900D8E
:101E6000A49F800D911D11240895EE0FFF1F059072
:101E7000F491E02D0994A29FB001B39FC001A39FEC
:101E8000700D811D1124911DB29F700D811D1124B3
:101E9000911D089581E090E0F8940C944F0FF89410
:021EA000FFCF72
:101EA200FFFFFFFF000000001A018700B100670179
:101EB200E200C000D40000000000A3078700DE019A
:101EC200DD0100000000C701B407DE01D007A60152
:101ED20068032F03496E697469616C697A696E6778
:101EE20020534420636172642E2E2E00696E697441
:101EF20069616C697A6174696F6E20646F6E652EB8
:101F0200000D0A00696E697469616C697A617469AD
:0C1F12006F6E206661696C656421000040
:00000001FF
