:100000000C945C000C946E000C946E000C946E00CA
:100010000C946E000C946E000C946E000C946E00A8
:100020000C946E000C946E000C946E000C946E0098
:100030000C946E000C946E000C946E000C946E0088
:100040000C94AC000C946E000C946E000C946E003A
:100050000C946E000C946E000C946E000C946E0068
:100060000C946E000C946E00000000080002010069
:100070000003040700000000000000000000000072
:10008000250028002B0000000000240027002A0083
:10009000040404040404040402020202020203032E
:1000A0000303030301020408102040800102040836
:1000B000102001020408102011241FBECFEFD8E049
:1000C000DEBFCDBF21E0A0E0B1E001C01D92A930AC
:1000D000B207E1F70E94F6000C9497010C9400001F
:1000E000CF93DF9390E0FC01EC55FF4F2491FC018E
:1000F000E057FF4F8491882361F190E0880F991FAA
:10010000FC01EA57FF4FC591D491FC01E458FF4F21
:10011000A591B491611109C09FB7F8948881209589
:1001200082238883EC912E230BC0623061F49FB749
:10013000F8948881322F309583238883EC912E2B7D
:100140002C939FBF06C08FB7F894E8812E2B28838D
:100150008FBFDF91CF9108951F920F920FB60F922C
:1001600011242F933F938F939F93AF93BF938091CD
:10017000050190910601A0910701B091080130910D
:10018000040123E0230F2D3720F40196A11DB11D9A
:1001900005C026E8230F0296A11DB11D209304017E
:1001A0008093050190930601A0930701B093080185
:1001B0008091000190910101A0910201B091030191
:1001C0000196A11DB11D8093000190930101A093A0
:1001D0000201B0930301BF91AF919F918F913F9125
:1001E0002F910F900FBE0F901F901895789484B5A3
:1001F000826084BD84B5816084BD85B5826085BD23
:1002000085B5816085BD80916E00816080936E00B0
:1002100010928100809181008260809381008091A2
:100220008100816080938100809180008160809353
:1002300080008091B10084608093B1008091B00013
:1002400081608093B00080917A00846080937A000E
:1002500080917A00826080937A0080917A00816038
:1002600080937A0080917A00806880937A0010925F
:10027000C10060E082E00E94700061E083E00E94C3
:10028000700061E084E00E947000CBE6D0E007EAF5
:1002900010E093E9E92E90E0F92E20E0C22E20E054
:1002A000D22EFE018491F8012491F7013491332379
:1002B000B9F1882339F1833091F038F48130A9F015
:1002C000823001F594B59F7D12C0873091F088305F
:1002D000A1F08430B9F4809180008F7D03C08091BB
:1002E00080008F77809380000DC094B59F7794BD78
:1002F00009C09091B0009F7703C09091B0009F7D9E
:100300009093B000E32FF0E0EE0FFF1FE458FF4F93
:10031000A591B4919FB7F8948C91822B8C939FBF39
:10032000C114D10409F4BDCF0E940000BACFF894E3
:02033000FFCFFD
:00000001FF
