:100000000C9466000C948E000C948E000C947F0867
:100010000C947F080C947F080C948E000C948E0036
:100020000C948E000C948E000C948E000C948E0018
:100030000C948E000C948E000C948E000C948E0008
:100040000C94C2130C948E000C9421100C94FB0F92
:100050000C948E000C948E000C948E000C948E00E8
:100060000C948E000C948E000000000025002800E7
:100070002B0000000008000201000003040700003C
:1000800000000000000000000000240027002A00FB
:10009000010204081020408001020408102001021F
:1000A00004081020040404040404040402020202EC
:1000B00002020303030303037C3C3E5E2B3D3F2F00
:1000C0005B5D3B2C2A225C0020140C1411241FBE03
:1000D000CFEFD8E0DEBFCDBF25E0A4E0B2E001C0A5
:1000E0001D92AB35B207E1F712E0A0E0B1E0EEE619
:1000F000F8E302C005900D92A430B107D9F710E0E3
:10010000C5E6D0E004C02197FE010E94F819C4366C
:10011000D107C9F70E94A1140C942A1C0C9400006A
:10012000DC015996ED91FC915A973097B9F083898B
:100130009489A589B6894285538564857585841B14
:10014000950BA60BB70B811520E89207A105B10509
:1001500038F08FEF9FE7A0E0B0E0089580E090E0F6
:100160000895CF93DF931F92CDB7DEB76983DC018B
:10017000ED91FC910280F381E02D41E050E0BE0161
:100180006F5F7F4F09950F90DF91CF91089580E0C9
:1001900090E00895CF93DF93EC018D81882379F16E
:1001A0008C8187FF28C06E857F858889998941E089
:1001B0000E948E10882319F1EA8980E2E89FF001FD
:1001C0001124E45FFD4F3097D1F08D81823040F4EF
:1001D0008B899C89AD89BE89848F958FA68FB78FB7
:1001E0008F89988DA98DBA8D938F828FB58BA48BB3
:1001F0008C818F778C83DF91CF910C94531080E0AA
:10020000DF91CF910895FC01818D928D009711F0BF
:100210000C94CA0008958F929F92AF92BF92CF9292
:10022000DF92EF92FF920F931F93CF93DF93EC0136
:100230008D81811102C080E078C00B891C892D89D5
:100240003E890417150726073707A8F36A017B01C3
:10025000823029F4CA86DB86EC86FD860DC0C11487
:10026000D104E104F10451F41E821F82188619861C
:100270001A861B861C861D8681E057C08A849B8453
:10028000AC84BD84EB8DFC8D258530E0275F3F4F2E
:10029000B501A4014150510961097109022E04C040
:1002A00076956795579547950A94D2F7D701C60179
:1002B0000197A109B10904C0B695A79597958795AF
:1002C0002A95D2F784179507A607B70720F0892843
:1002D0008A288B2871F44F89588D698D7A8D4E83C9
:1002E0005F83688779874C015D018E010A5F1F4F2C
:1002F00016C0841B950BA60BB70BF5CF4E815F8103
:100300006885798598018B8D9C8D0E94781191E08C
:10031000891A9108A108B108882309F48CCF8114A7
:100320009104A104B10451F795CFDF91CF911F91B2
:100330000F91FF90EF90DF90CF90BF90AF909F9084
:100340008F9008958F929F92AF92BF92CF92DF923B
:10035000EF92FF920F931F93CF93DF9300D000D0C3
:10036000CDB7DEB77C0180E2689FF0011124E45F25
:10037000FD4F9385917121F0842F827409F08FC015
:10038000142FD70152966C935297409100015091CF
:10039000010160910201709103011E964D935D93DE
:1003A0006D937C9351974489558960E070E0BA0160
:1003B00055274427828D938DA0E0B0E0482B592B20
:1003C0006A2B7B2BD70157964D935D936D937C934E
:1003D0005A978385887159F4848D958DA68DB78D34
:1003E000F701838B948BA58BB68B81E012C0803193
:1003F00009F055C097012D5E3F4FD7015B968D9157
:100400009C915C970E94550A882309F448C084E0B7
:10041000F7018583812F8F70D70114968C931497E1
:10042000F70116821782108611861A961D921D9268
:100430001D921C921D9716FF34C015968C91813029
:1004400071F511FF2CC0F7014389548965897689BC
:10045000452B462B472B09F461C040E050E0BA0120
:10046000C7010E940B018823D1F0F7018788908C87
:10047000A18CB28CC38CD48C82E090E0A0E0B0E080
:10048000F60180839183A283B3839E012F5F3F4F48
:10049000B501A401C6010E947811811104C080E059
:1004A0003DC081E03BC000E010E09801B501A4012F
:1004B000C6010E94D710882391F389809A80AB806F
:1004C000BC80D60157968C91803129F088EF9FEF40
:1004D000AFEFBFE004C088EF9FEFA0E0B0E0881668
:1004E0009906AA06BB0688F2D70157961D921D925F
:1004F0001D921C925A97F701138A148A158A168A3C
:10050000848180688483C7010E94CA00882339F2ED
:1005100040E050E0BA01C7010E940B010F900F901C
:100520000F900F90DF91CF911F910F91FF90EF905F
:10053000DF90CF90BF90AF909F908F900895CF9312
:10054000DF93EC010E94CA00882311F01D8281E034
:10055000DF91CF9108953F924F925F926F927F9279
:100560008F929F92AF92BF92CF92DF92EF92FF92C3
:100570000F931F93CF93DF93CDB7DEB72C970FB6B2
:10058000F894DEBF0FBECDBF5C01DC015B968D90A1
:100590009C905C971696CD90DD90ED90FC9019970D
:1005A000C114D104E104F10439F0BFEFCB1ADB0A26
:1005B000EB0AFB0A312C07C0F401C080D180E28035
:1005C000F38033243394F40181859285A385B48527
:1005D0009C01AD012F5F3F4F4F4F5F4F29873A87F7
:1005E0004B875C87260137011D821E821F82188679
:1005F000F40181859285A385B4852D813E814F814B
:100600005885281739074A075B0708F063C08985B2
:100610009A85AB85BC858C159D05AE05BF0550F44C
:1006200082E0C82ED12CE12CF12C92E0492E512CE5
:10063000612C712C9E012F5F3F4FB701A601C401B1
:100640000E947811882309F445C089819A81AB8181
:10065000BC81892B8A2B8B2B41F0260137019FEF20
:10066000491A590A690A790A05C0C414D504E6046E
:10067000F70491F02D813E814F8158852F5F3F4FC8
:100680004F4F5F4F2D833E834F8358873FEFC31AF1
:10069000D30AE30AF30AACCF0FEF1FEF2FEF3FE0CF
:1006A000B301A201C4010E94D710882399F0D5019B
:1006B00016964D915D916D917C911997411551055B
:1006C0006105710549F093018201C4010E94D710B0
:1006D000811102C080E02AC0D50116964D925D922C
:1006E0006D927C921997332051F0D301C20101968B
:1006F000A11DB11DF40180839183A283B383F50111
:100700008789908DA18DB28D892B8A2B8B2B69F4D3
:10071000D50157964D925D926D927C925A971496A0
:100720008C911497806814968C9381E02C960FB668
:10073000F894DEBF0FBECDBFDF91CF911F910F9117
:10074000FF90EF90DF90CF90BF90AF909F908F90F1
:100750007F906F905F904F903F9008958FB7F8947F
:10076000809107028FBF089561E0FC0184810E949F
:10077000480C8091060281111092060208958EBDE8
:1007800000000DB407FEFDCF8EB508958FEF0C94D9
:10079000BF030F931F93CF93DF93EB010E94B61318
:1007A0008B010E94C6038F3F49F00E94B613601B65
:1007B000710B6C177D07A8F380E001C081E0DF9129
:1007C000CF911F910F910895CF93DF93EC018E810C
:1007D000882389F08F8198859C012F5F3F4F388750
:1007E0002F838230924018F40E94C603F3CFCE01CB
:1007F0000E94B4031E82DF91CF9108958CBD9DBDF0
:100800000895CF93DF93EC0180910602811109C016
:1008100081E0809306028091AB049091AC040E9429
:10082000FE0360E08C81DF91CF910C94480C8F9295
:100830009F92AF92BF92FF920F931F93CF93DF933C
:10084000EC01F62E49015A010E94E403CE010E94F8
:1008500001046CE271E0CE010E94C9038F2D806417
:100860000E94BF0308E110E0D501C401002E04C0BE
:10087000B695A795979587950A94D2F70E94BF03DE
:1008800008501109083F8FEF180771F7FF2029F072
:1008900088E0F81204C087E803C085E901C08FEF43
:1008A0000E94BF0310E00E94C6038A8787FF04C02E
:1008B0001F3F11F01F5FF7CFDF91CF911F910F9175
:1008C000FF90BF90AF909F908F900895AF92BF928E
:1008D000CF92DF92EF92FF920F931F93CF93DF930C
:1008E000EC016901C801820F931F8130924008F02A
:1008F00070C08E81882371F088819981AA81BB8123
:1009000084179507A607B70729F48F819885C8161D
:10091000D906B0F5488359836A837B838B858330FE
:1009200039F089E0440F551F661F771F8A95D1F76C
:100930009A01AB0161E1CE010E941704882319F0EE
:1009400083E08D8346C00E94B6135B010E94C603FC
:100950008A878F3F49F40E94B6136A197B096D326A
:100960007140A0F38FE003C08E3F31F08DE08D83A6
:10097000CE010E94B4032DC018861F8281E08E83B1
:100980008F8198858C159D0540F40E94C6038F8148
:100990009885019698878F83F3CF6701E00EF11E4B
:1009A000EC14FD0431F00E94C603F60181936F013F
:1009B000F7CF8F819885080F191F18870F838985B6
:1009C000882319F00115124048F0CE010E94E4037B
:1009D00005C0CE010E94B40380E001C081E0DF9138
:1009E000CF911F910F91FF90EF90DF90CF90BF902C
:1009F000AF900895EF92FF920F931F93CF93DF93E1
:100A0000EC017901411551056105710511F482E18F
:100A10003CC08B85833039F089E0440F551F661F39
:100A2000771F8A95D1F79A01AB0168E1CE010E9448
:100A30001704882311F084E028C08EEF0E94BF03C2
:100A400087018EEFF81AF80181918F010E94BF0390
:100A5000E016F106C1F78FEF0E94BF038FEF0E94EF
:100A6000BF030E94C6038A878F71853031F081E110
:100A70008D83CE010E94B40309C068E572E0CE0107
:100A80000E94C903811107C085E18D83CE010E94B8
:100A9000B40380E014C020E030E0A9016DE0CE0195
:100AA0000E941704811109C00E94C603811105C06C
:100AB000CE010E94B40381E002C084E1E6CFDF9161
:100AC000CF911F910F91FF90EF9008952F923F9239
:100AD0004F925F926F927F928F929F92AF92BF924E
:100AE000CF92DF92EF92FF920F931F93CF93DF93FA
:100AF00000D000D0CDB7DEB78C015B011A01DC015C
:100B000015968C9115978130C9F414968C9181FFBC
:100B100015C082FF1DC0F801438954896589768913
:100B200082859385A485B58584179507A607B707A1
:100B300079F0C8010E940B0181110AC081E090E0A8
:100B4000D80113969C938E93129780E090E036C163
:100B5000610183C05B968D919C915C97FC017480D0
:100B60002FEF270D2A013B0139E0769467945794C3
:100B700047943A95D1F7722E74207A01F1E0FF2262
:100B8000772009F476C080E092E08E199F09460133
:100B90008C159D0508F44C01D8015B962D913C9174
:100BA0005C9716968D919D910D90BC91A02D02970A
:100BB000A109B109F901058404C0880F991FAA1F72
:100BC000BB1F0A94D2F74685578560897189840FC7
:100BD000951FA61FB71F9C01AD01270D311D411D9B
:100BE000511D29013A01811432E0930609F088C0B1
:100BF0008091000190910101A0910201B091030147
:100C0000481659066A067B0659F48FEF9FEFDC0100
:100C10008093000190930101A0930201B09303011E
:100C20009501B301A20180910C0490910D040E94E2
:100C3000FA04882309F482CF9EEFB91AC818D9089C
:100C4000F80182859385A485B585880D991DA11D20
:100C5000B11D82879387A487B587D8011A964D91D5
:100C60005D916D917C911D97C114D10409F072CFF3
:100C700087C0E114F10409F086CF16964D915D917D
:100C80006D917C911997411551056105710559F4D4
:100C900057968D919D910D90BC91A02D0097A10527
:100CA000B10541F521C09E012F5F3F4F0E94781191
:100CB000882309F44BCF89819A81AB81BC81F801EB
:100CC000238D348DF9012789203129F048EF5FEF1A
:100CD0006FEF7FE004C048EF5FEF60E070E08417E3
:100CE0009507A607B70730F0C8010E94AB02811133
:100CF0004ACF24CFF80186839783A087B18743CF5B
:100D0000E114F10429F5D8011A964D915D916D9188
:100D10007C911D9753968D919D910D90BC91A02D26
:100D2000481759076A077B0798F00E9453108823D9
:100D300009F404CF40920001509201016092020137
:100D40007092030180914B05816080934B0508C030
:100D500041E0C301B2010E948E10882309F4EECE57
:100D6000D501F701E45FFD4F9F01280D391D2E17B6
:100D70003F0719F08D918193FACFA80CB91C5ECF73
:100D8000F80183899489A589B68984179507A607F0
:100D9000B70738F4438B548B658B768B84818068DE
:100DA0008483F801848183FD02C0C10107C0C801AA
:100DB0000E94CA00882309F4C1CEF7CF0F900F908C
:100DC0000F900F90DF91CF911F910F91FF90EF90B7
:100DD000DF90CF90BF90AF909F908F907F906F905B
:100DE0005F904F903F902F900895CF93DF93EC0149
:100DF000898D9A8D009739F481E090E09B838A83F6
:100E000080E090E00BC0FC01138212820E94660514
:100E1000E98DFA8D22813381232B71F7DF91CF91F8
:100E20000895FC01DB0112968D919C911397938399
:100E3000828381E291E09183808314968C91149750
:100E4000848315968C911597858316964D915D91A7
:100E50006D917C91199746835783608771871A96A5
:100E60004D915D916D917C911D9742875387648769
:100E700075871E964D915D916D917C915197468736
:100E80005787608B718B52968C915297828B5396B9
:100E90004D915D916D917C915697438B548B658BF1
:100EA000768B57964D915D916D917C915A97478BBA
:100EB000508F618F728F5B968D919C915C97948F10
:100EC000838F08954F925F926F927F92AF92BF92FD
:100ED000CF92DF92EF92FF920F931F93CF93DF9306
:100EE0001F92CDB7DEB7FC012581222309F4C1C0D2
:100EF000848180FFBEC083899489A589B689428494
:100F000053846484758484159505A605B70509F492
:100F1000B0C06F015201F1E0BF22D6015B968D9106
:100F20009C915C97B301A20139E07695679557953E
:100F300047953A95D1F7223071F4FC01828D938D5B
:100F4000A48DB58D8A019B01080F191F2A1F3B1F15
:100F5000C901B8014AC0DC0114961C911150142338
:100F6000A114B104F9F411111DC0452846284728E1
:100F700051F4F6018789908DA18DB28D8683978378
:100F8000A087B1870FC0D60116964D915D916D91E6
:100F90007C91199796012A5F3F4F0E947811882310
:100FA00009F467C0F601238D348D86819781A08571
:100FB000B1850297A109B109AC01BD01F901058410
:100FC00004C0440F551F661F771F0A94D2F7868509
:100FD0009785A089B189840F951FA61FB71FBC01F3
:100FE000CD01610F711D811D911DD60114962C91AB
:100FF00026FF0DC040900001509001016090020159
:1010000070900301461657066806790699F440E089
:101010000E948E10882369F1F501E45FFD4FDE0127
:1010200011969F012F5F3F4F2E173F0799F0819137
:101030008D93FACFFE0131967F0101E010E095011A
:10104000AB01BC0180910C0490910D040E946604D8
:10105000882379F0F60182859385A485B58501966C
:10106000A11DB11D82879387A487B587898190E0F0
:1010700002C08FEF9FEF0F90DF91CF911F910F91E3
:10108000FF90EF90DF90CF90BF90AF907F906F90E8
:101090005F904F900895FC01818D928D009711F023
:1010A0000C9462078FEF9FEF08950F931F93CF93D8
:1010B000DF93FC01818D928D0097B9F0EF010E94C2
:1010C00062078C010F3F8FEF180791F0898D9A8D81
:1010D000FC0142855385648575854150510961093C
:1010E00071090E940B01C80105C080E090E002C0B8
:1010F0008FEF9FEFDF91CF911F910F9108951F9276
:101100000F920FB60F9211240F900FBE0F901F90E9
:101110001895EF92FF920F931F93CF93DF93EC01FB
:101120007B018A011B821A8288EE93E0A0E0B0E086
:101130008C839D83AE83BF8389E391E09983888309
:101140008DE190E00E94FE199A8F898F009779F0C7
:101150002DE1F701DC0101900D922A95E1F74CE0B9
:1011600050E0B801CE010C960E941B1C188EDF9136
:10117000CF911F910F91FF90EF9008958F929F92C2
:10118000AF92BF92CF92DF92EF92FF92CF93DF9315
:10119000C82F8DEA94E090930D0480930C04CC2327
:1011A00069F1C53010F080E00CC140E060E070E013
:1011B000CB010E948E108823B1F320E1C29FC001B1
:1011C000112484509E4FFC01E254FE4F20812F7762
:1011D00051F73C96408151816281738144365105BB
:1011E0006105710500F33497C080D180E280F380FF
:1011F000C114D104E104F10421F4D5CFC12CD12CC8
:10120000760140E0C701B6010E948E10882359F292
:1012100080911702909118028115924021F6A091B9
:101220001C02AA2309F4BFCF60911A0270911B021D
:101230006115710509F4B7CF20911902222309F431
:10124000B2CFA093CB042093BD0480E030E041E016
:1012500050E0C82FFA01082E02C0EE0FFF1F0A94BB
:10126000E2F72E173F0739F08F5FC83091F789E01A
:101270008093C60498CF8093C604209122023091B7
:1012800023022115310519F040E050E008C02091FB
:10129000300230913102409132025091330220935A
:1012A000BE043093BF044093C0045093C104460170
:1012B0005701860E971EA11CB11C8092CC049092FF
:1012C000CD04A092CE04B092CF04E0911D02F09123
:1012D0001E02F093D204E093D104B0E00E94A7195B
:1012E000860E971EA81EB91E8092D3049092D40435
:1012F000A092D504B092D60485E0EE0FFF1F8A9528
:10130000E1F7E150FE4FEF2FFF27E6958E0E9F1E6F
:10131000A11CB11C8092C7049092C804A092C90479
:10132000B092CA0420911F0230912002211531058C
:1013300021F0A90160E070E008C040912C025091BA
:101340002D0260912E0270912F02D701C6018819DB
:101350009909AA09BB09840F951FA61FB71F04C0CE
:10136000B695A79597958795CA95D2F78093C204AD
:101370009093C304A093C404B093C504853F2FE0A9
:101380009207A105B10510F48CE018C0853F9F4F6E
:10139000A105B10510F480E111C08091380290914F
:1013A0003902A0913A02B0913B028093D30490930A
:1013B000D404A093D504B093D60480E28093D004E3
:1013C00081E0DF91CF91FF90EF90DF90CF90BF90C1
:1013D000AF909F908F900895EF92FF920F931F937D
:1013E000CF93DF93CDB7DEB7A2970FB6F894DEBFE9
:1013F0000FBECDBF8C01CB01BA01F8011182108262
:1014000013821282158214822AE0AE014F5F5F4F71
:101410007A010E943119F70101900020E9F7319714
:10142000AF014E195F09B701C8010E948D0FA29646
:101430000FB6F894DEBF0FBECDBFDF91CF911F91E5
:101440000F91FF90EF900895CF93DF93FB012281DE
:101450003381DC0113963C932E931297448155817E
:101460006681778114964D935D936D937C93179766
:10147000408551856285738518964D935D936D9374
:101480007C931B971C96EF012C969C01275E3F4F87
:1014900049914D93A217B307D9F7218D328DFC01E5
:1014A000328F218FDF91CF9108954F925F926F928B
:1014B0007F92AF92BF92CF92DF92EF92FF920F9303
:1014C0001F93CF93DF9300D000D0CDB7DEB78C0150
:1014D00049835A836B837C835901C12CD12C7601BB
:1014E000412C82E0582E612C712C49815A816B81EC
:1014F0007C819E012F5F3F4FC8010E947811882395
:1015000051F1D301C201F801058404C0880F991F6D
:10151000AA1FBB1F0A94D2F7C80ED91EEA1EFB1ED3
:1015200049815A816B817C818789803129F088EFDC
:101530009FEFAFEFBFE004C088EF9FEFA0E0B0E007
:10154000481759076A077B0780F2F501C082D182EC
:10155000E282F38281E00F900F900F900F90DF9165
:10156000CF911F910F91FF90EF90DF90CF90BF90A0
:10157000AF907F906F905F904F900895CF93DF93DF
:10158000FC012581222311F080E049C0EC0180910B
:10159000D0048031C1F482E08583178A108E118EC9
:1015A000128E8091D1049091D204A0E0B0E025E0A9
:1015B000880F991FAA1FBB1F2A95D1F7838B948B85
:1015C000A58BB68B19C08032F9F683E085834091F4
:1015D000D3045091D4046091D5047091D604478B04
:1015E000508F618F728F9F012D5E3F4F89EB94E08A
:1015F0000E94550A882341F289EB94E09C8F8B8FDF
:1016000081E08C831E821F82188619861A861B86AB
:101610001C861D861E861F86188A198A1A8ADF91E3
:10162000CF9108952F923F924F925F926F927F9247
:101630008F929F92AF92BF92CF92DF92EF92FF92E2
:101640000F931F93CF93DF93CDB7DEB7C756D10962
:101650000FB6F894DEBF0FBECDBF6C015B01A6963E
:101660004FAFA69719A218A281E291E09F8F8E8FAB
:101670001BA21C821B829A8389831E824E018EE1EB
:10168000880E911CC4010E94BE0A75018E010F5F75
:101690001F4F240118016FE270E0C7010E94001C77
:1016A000009709F442C0F70120812F3221F4FFEFA7
:1016B000EF1AFF0AF0CF8E198D3008F08CE0682EFB
:1016C000712CA301B701CE01885A9F4F0E941B1CA9
:1016D000E8E5F0E0EC0FFD1FE60DF71D1082C801F4
:1016E0000E949F02F8018581882351F01EAE1DAE35
:1016F00081E291E09CAF8BAF21961FAE219721C074
:1017000021E0AE01485A5F4FB201C8010E94FB11AF
:10171000882361F3E60CF71CC2010E949F02942DFE
:10172000852D2801092F182FB6CFC7018A199B09CB
:10173000A8969FAF8EAFA897B201CE01CB960E941C
:101740001107A896EEADFFADA897AE0EBF1EF5012E
:101750008081811109C0BE01655C7F4FC1010E947B
:10176000110747E451E041C019A218A281E291E0BB
:101770009F8F8E8F1BA221968FAD2197811113C051
:10178000F6011382128288EE93E0A0E0B0E0848339
:101790009583A683B78389E391E091838083128E3A
:1017A000118E148626C0A6962FADA697A501BE0160
:1017B000655C7F4FC4010E94FB11882309F3CE01B1
:1017C000CB960E949F02A6968FADA6978670863014
:1017D00039F449A95AA96BA97CA9C4010E940B013B
:1017E000B401C1010E941107A501B101C6010E9407
:1017F0008908C601C959DF4F0FB6F894DEBF0FBE86
:10180000CDBFDF91CF911F910F91FF90EF90DF90AF
:10181000CF90BF90AF909F908F907F906F905F9090
:101820004F903F902F9008950F931F930E94B613EF
:10183000609316047093170480931804909319040E
:101840008EE094E00E94480E97FF1FC00E94B613DE
:101850000091160410911704209118043091190476
:10186000DC01CB01801B910BA20BB30B0091120486
:1018700010911304209114043091150480179107DE
:10188000A207B307E8F28FEF9FEF1F910F91089522
:1018900090E0FC01EE58FF4F2491FC01E057FF4F10
:1018A0003491FC01EC55FF4FE491EE2309F43CC068
:1018B000222339F1233091F038F42130A9F022307D
:1018C00001F584B58F7D12C0273091F02830A1F04A
:1018D0002430B9F4809180008F7D03C08091800016
:1018E0008F77809380000DC084B58F7784BD09C049
:1018F0008091B0008F7703C08091B0008F7D80937E
:10190000B000F0E0EE0FFF1FE859FF4FA591B49132
:101910009FB7F894611104C08C913095382302C0B0
:10192000EC913E2B3C939FBF0895CF93DF9390E0C3
:10193000FC01E057FF4F2491FC01EC55FF4F8491CF
:10194000882361F190E0880F991FFC01EA57FF4F4F
:10195000C591D491FC01E859FF4FA591B491611153
:1019600009C09FB7F8948881209582238883EC91E1
:101970002E230BC0623061F49FB7F8948881322F18
:10198000309583238883EC912E2B2C939FBF06C028
:101990008FB7F894E8812E2B28838FBFDF91CF91EA
:1019A00008958F929F92AF92BF92CF92DF92EF9263
:1019B000FF92CF93C82F8091DC04882321F087ED1C
:1019C00094E00E949F021092B8041092B604109204
:1019D000B3041092B204C093B1040E94B6136B0119
:1019E0007C0161E08091B1040E94950C61E08091DE
:1019F000B1040E94480CCFB7F89480914A05811138
:101A000027C0EEEAF0E08491EAE9F0E09491E82F53
:101A1000F0E0EE0FFF1FEA57FF4FA591B491EC9154
:101A2000E92321F461E08AE00E94480C61E08AE049
:101A30000E94950C8CB580618CBD8CB580648CBD8A
:101A400061E08DE00E94950C61E08BE00E94950CB6
:101A500080914A058F5F80934A05CFBF82E58093CE
:101A6000AB041092AC048091AB049091AC040E9442
:101A7000FE03CAE08FEF0E94BF03C150D9F78DEA81
:101A800094E00E94010420E030E0A90160E08DEACA
:101A900094E00E941704C82F8093B704813049F066
:101AA0000E94B6136C197D09613D774060F381E0B7
:101AB00054C02AEA31E040E050E068E08DEA94E06A
:101AC0000E94170482FF03C0C093B8040EC0C4E094
:101AD0000E94C6038093B704C150D1F78A3A11F02F
:101AE00082E03BC082E08093B8048091B8048230E9
:101AF00021F0812C912C540105C0812C912CA12C1A
:101B000080E4B82E20E030E0A90167E38DEA94E09C
:101B10000E941704A501940169E28DEA94E00E94F5
:101B200017048093B704882349F00E94B6136C19F8
:101B30007D09613D774030F388E00FC08091B804A3
:101B4000823001F520E030E0A9016AE38DEA94E0FB
:101B50000E941704882341F086E08093B2048DEA46
:101B600094E00E94B40329C00E94C603807C803C9C
:101B700019F483E08093B8040E94C6030E94C60350
:101B80000E94C6038DEA94E00E94B40380E580932E
:101B9000AB041092AC0481E00E94BE08882341F09F
:101BA00087ED94E00E94BE0A91E0811107C005C054
:101BB00080E00E94BE088111F3CF90E0892FCF9181
:101BC000FF90EF90DF90CF90BF90AF909F908F905D
:101BD00008953FB7F8948091080290910902A0916E
:101BE0000A02B0910B0226B5A89B05C02F3F19F041
:101BF0000196A11DB11D3FBFBA2FA92F982F88278D
:101C0000820F911DA11DB11DBC01CD0142E0660FE7
:101C1000771F881F991F4A95D1F708950895CF928D
:101C2000DF92EF92FF920F931F93CF93DF936C019C
:101C30007A018B01C0E0D0E0CE15DF0581F0D8013C
:101C40006D918D01D601ED91FC910190F081E02D17
:101C5000C6010995892B11F02196EECF7E01C701AF
:101C6000DF91CF911F910F91FF90EF90DF90CF9078
:101C70000895FC01538D448D252F30E0842F90E092
:101C8000821B930B541710F0CF9608950197089577
:101C9000FC01918D828D981761F0828DDF01A80F74
:101CA000B11D5D968C91928D9F5F9F73928F90E096
:101CB00008958FEF9FEF0895FC01918D828D981705
:101CC00031F0828DE80FF11D858D90E008958FEF42
:101CD0009FEF0895FC01918D228D892F90E0805C0B
:101CE0009F4F821B91098F73992708958EE094E08E
:101CF0000E946A0E21E0892B09F420E0822F0895CA
:101D0000FC01848DDF01A80FB11DA35ABF4F2C9198
:101D1000848D90E001968F739927848FA689B78967
:101D20002C93A089B1898C91837080648C93938D5E
:101D3000848D981306C00288F389E02D80818F7D01
:101D400080830895EF92FF920F931F93CF93DF93B9
:101D5000EC0181E0888F9B8D8C8D981305C0E889FC
:101D6000F989808185FD26C0F62E0B8D10E00F5F6E
:101D70001F4F0F731127E02E8C8DE8120CC00FB689
:101D800007FCFACFE889F989808185FFF5CFCE017C
:101D90000E94800EF1CF8B8DFE01E80FF11DE35AFA
:101DA000FF4FF0829FB7F8940B8FEA89FB898081FF
:101DB00080620AC09FB7F894EE89FF896083E88942
:101DC000F98980818370806480839FBF81E090E087
:101DD000DF91CF911F910F91FF90EF900895CF93D6
:101DE000DF93EC01888D8823C9F0EA89FB89808123
:101DF00085FD05C0A889B9898C9186FD0FC00FB6F5
:101E000007FCF5CF808185FFF2CFA889B9898C9135
:101E100085FFEDCFCE010E94800EE7CFDF91CF91FD
:101E2000089580E090E0892B29F00E94760E8111C0
:101E30000C9400000895CF93DF931F92CDB7DEB7C7
:101E4000698341E050E0BE016F5F7F4F0E946605ED
:101E50000F90DF91CF9108950F931F93CF93DF934E
:101E60008C01EB01FC0180819181009739F0688140
:101E7000798161157105A1F40E94961A8881998172
:101E8000F801918380838A819B81938382838C81F3
:101E90009D8195838483198218821B821A820FC0C8
:101EA000F801428153812C813D814217530720F371
:101EB0000E94141C8C819D81F801958384831D826E
:101EC0001C82DF91CF911F910F9108950F931F9363
:101ED000CF93DF93EC0188819981009729F02A81C3
:101EE0003B812617370788F48B016F5F7F4F0E9475
:101EF0001F1B009761F0998388831B830A832C81C1
:101F00003D81232B11F4FC01108281E001C080E0AF
:101F1000DF91CF911F910F910895EF92FF920F9350
:101F20001F93CF93DF93EC017B018A01BA010E94DA
:101F3000660F2881398181110DC02115310519F0F5
:101F4000C9010E94961A198218821D821C821B8266
:101F50001A8206C01D830C83B701C9010E94141C9C
:101F6000CE01DF91CF911F910F91FF90EF900895D7
:101F7000FC01808191810C94961AFC0111821082DF
:101F800013821282158214826115710551F0FB01D2
:101F900001900020E9F73197AF01461B570B0C94D5
:101FA0008D0F08956115710579F0FB0101900020F6
:101FB000E9F73197AF01461B570BDC01ED91FC911E
:101FC0000280F381E02D099480E090E008950F9362
:101FD0001F93CF93DF93EC010E94D20F8C0169E431
:101FE00071E0CE010E94D20F800F911FDF91CF913F
:101FF0001F910F9108951F920F920FB60F92112407
:102000002F933F934F935F936F937F938F939F9300
:10201000AF93BF93EF93FF938EE094E00E94800E06
:10202000FF91EF91BF91AF919F918F917F916F91B0
:102030005F914F913F912F910F900FBE0F901F9086
:1020400018951F920F920FB60F9211242F938F9312
:102050009F93EF93FF93E0911E04F0911F04808102
:10206000E0912404F091250482FD12C090818091BA
:1020700027048F5F8F7320912804821751F0E0911D
:102080002704F0E0E25FFB4F958F8093270401C0A7
:102090008081FF91EF919F918F912F910F900FBEB3
:1020A0000F901F90189580914B058823A9F14091BE
:1020B00000015091010160910201709103012CE037
:1020C00032E080910C0490910D040E94FA04811179
:1020D00002C080E0089540914C0550914D056091FB
:1020E0004E0570914F05411551056105710591F03F
:1020F0002CE032E080910C0490910D040E94FA04CF
:10210000882339F310924C0510924D0510924E051C
:1021100010924F0510924B0581E008958F929F9287
:10212000AF92BF92EF92FF920F931F93CF934B0109
:102130005C01C42F8091000190910101A0910201E6
:10214000B091030188159905AA05BB0501F10E940C
:102150005310811102C080E020C08CE0E82E82E0A4
:10216000F82E00E012E020E030E0B501A4018091FB
:102170000C0490910D040E946604882361F3809200
:10218000000190920101A0920201B092030180919E
:102190004B05C82BC0934B0581E0CF911F910F9148
:1021A000FF90EF90BF90AF909F908F9008954F92C7
:1021B0005F926F927F928F929F92AF92BF92CF92D7
:1021C000DF92EF92FF920F931F93CF93DF93EC0177
:1021D000423051056105710510F480E078C08985B1
:1021E0009A85AB85BC850196A11DB11D8417950705
:1021F000A607B70790F3CB88DC88ED88FE888F8927
:10220000803129F4BB27A72F962F852F09C0DB012A
:10221000CA01E7E0B695A79597958795EA95D1F716
:10222000480159012A013B01C80ED91EEA1EFB1EB6
:102230008091000190910101A0910201B0910301F0
:10224000C816D906EA06FB0681F48F898031A9F405
:10225000B301A201552766277727440F551FFA01BE
:10226000E45FFD4F9182808219C040E0C701B60152
:102270000E948E108111E9CFB0CFB301A2014F7738
:10228000552766277727440F551F440F551FFA011E
:10229000E45FFD4F80829182A282B38280914B05E0
:1022A000816080934B058A89823080F08D819E8188
:1022B000AF81B885C80ED91EEA1EFB1EC0924C0520
:1022C000D0924D05E0924E05F0924F0581E0DF91EE
:1022D000CF911F910F91FF90EF90DF90CF90BF9023
:1022E000AF909F908F907F906F905F904F900895E8
:1022F0008F929F92AF92BF92CF92DF92EF92FF9216
:102300000F931F93CF93DF93FC0181859285A38563
:10231000B4850196A11DB11D84179507A607B707BF
:1023200010F480E05BC083889488A588B68887898C
:10233000803129F4BB27A72F962F852F09C0DB01F9
:10234000CA01C7E0B695A79597958795CA95D1F725
:10235000E9016A017B018F01BC01CD01680D791D86
:102360008A1D9B1D8090000190900101A0900201A8
:10237000B0900301681579058A059B0591F4F80171
:1023800087898031A1F4DD24EE24FF24C601880F63
:10239000991FFC01E45FFD4F80819181A0E0B0E0D6
:1023A00018C040E00E948E108111E9CFBACFE894A6
:1023B000C7F8DD24EE24FF24C601880F991F880F7B
:1023C000991FFC01E45FFD4F80819181A281B3815F
:1023D000BF7088839983AA83BB8381E0DF91CF910B
:1023E0001F910F91FF90EF90DF90CF90BF90AF9033
:1023F0009F908F9008952F923F924F925F926F928D
:102400007F928F929F92AF92BF92CF92DF92EF9284
:10241000FF920F931F93CF93DF93CDB7DEB72B9728
:102420000FB6F894DEBF0FBECDBF7C01FE01319622
:10243000CE010C966F0130E23193E817F907E1F70E
:10244000DA0130E087E09D91992331F19E3231F439
:102450008A3009F46BC138E08AE0F5CFE8EBF0E0B0
:102460004491442321F031969413FACF5FC183172E
:1024700008F45CC14FED490F4E3508F057C141E0FB
:10248000430FF601E30FF11D3FE9390F3A3108F42C
:1024900090529083342FD7CF8981803209F446C17E
:1024A000322E8B01DB015B968D919C915C97F7013D
:1024B000948F838F16961D921D921D921C921997D0
:1024C000FB011286138614861586B12CF8018285CD
:1024D0009385A485B5854389548965897689841750
:1024E0009507A607B70708F05BC025E0B695A79546
:1024F000979587952A95D1F7F82FFF70AF2ED801C1
:1025000015968C91823008F411C1C8010E946207AF
:1025100097FD0CC1F80182859385A485B5854F96FA
:10252000A11DB11D82879387A487B587F0E2AF9E76
:10253000B0011124645F7D4F6115710509F4F6C087
:10254000DB018C91882319F0853EC1F4F1C0B110F4
:102550000EC0F701A28A8091000190910101A09123
:102560000201B091030186879787A08BB18BDB01B5
:102570008C91882399F0BB24B394A8CF4BE050E012
:10258000C6010E94EA1B892B09F0A0CF832D80731E
:10259000803309F4CBC0432D6A2DC4C0BB24B3944F
:1025A000832D8271823109F0C1C0BB20C1F0F701D7
:1025B000668577858089918941E00E948E10882305
:1025C00009F4B4C0D70152968C91B0E28B9FC00140
:1025D0001124845F9D4F009709F078C0A7C0F801CF
:1025E0008581823009F4A2C0C8010E94AB02882311
:1025F00009F49CC0D8015B96ED91FC915C9716960E
:102600008D909D90AD90BC901997B2E08B1A910877
:10261000A108B108058404C0880C991CAA1CBB1C25
:102620000A94D2F786859785A089B189880E991E6C
:10263000AA1EBB1E2480E1E08E1A9108A108B108F1
:10264000222009F124013501420C511C611C711C2E
:102650000E945310882309F469C0ECE0F2E0119263
:1026600024E0EC30F207D9F74092000150920101CA
:10267000609202017092030180914B05816080930A
:102680004B052A94DDCFD8015B96ED91FC915C97C8
:1026900080E092E0A0E0B0E0058404C0880F991FBC
:1026A000AA1FBB1F0A94D2F7F80143895489658990
:1026B0007689840F951FA61FB71F838B948BA58BDC
:1026C000B68BD70152961C928CE092E020E2FC017E
:1026D00011922A95E9F72BE0F601DC0101900D92A9
:1026E0002A95E1F721E238E2DC0151963C932E93E2
:1026F000509740E058E01F965C934E931E97539678
:102700003C932E93529759963C932E9358975796F5
:102710005C934E9356970E945310882339F0432DB3
:10272000F7016289C7010E94A20105C080E003C0D1
:10273000B11021CF0ECF2B960FB6F894DEBF0FBE8F
:10274000CDBFDF91CF911F910F91FF90EF90DF9060
:10275000CF90BF90AF909F908F907F906F905F9041
:102760004F903F902F9008950E94E51B2FB7F8944B
:1027700060915105709152058091530590915405D7
:102780002FBF08951F920F920FB60F9211242F930F
:102790003F938F939F93AF93BF93809151059091F7
:1027A0005205A0915305B09154053091500523E096
:1027B000230F2D3720F40196A11DB11D05C026E879
:1027C000230F0296A11DB11D209350058093510542
:1027D00090935205A0935305B0935405809108023D
:1027E00090910902A0910A02B0910B020196A11DDD
:1027F000B11D8093080290930902A0930A02B0933E
:102800000B02BF91AF919F918F913F912F910F90AC
:102810000FBE0F901F90189586EF94E00E94B80F9E
:102820008CEF94E00E94B80F82E095E00E94B80F10
:1028300088E095E00E94B80F8EE095E00C94B80F08
:10284000EEE0F4E01382128288EE93E0A0E0B0E0C4
:1028500084839583A683B7832FE031E0318320837F
:1028600025EC30E03587248724EC30E03787268755
:1028700020EC30E0318B208B21EC30E0338B228B4D
:1028800022EC30E0358B248B26EC30E0378B268B26
:10289000118E128E138E148EEBEAF4E020E5208365
:1028A0001182EDEAF4E0158216821186138642E069
:1028B00050E060E070E0448755876687778713A211
:1028C00015A614A621E231E033A722A717A6EFE24E
:1028D000F5E01382128284839583A683B78329E36C
:1028E00031E031832083128E118E1486E4E1F5E00D
:1028F0001382128284839583A683B78331832083D6
:10290000128E118E14866BE471E08EE095E00E94C9
:10291000BD0F6BE471E088E095E00E94BD0F6BE4B1
:1029200071E082E095E00E94BD0F6BE471E08CEFF6
:1029300094E00E94BD0F6BE471E086EF94E00C948C
:10294000BD0FCF93DF93CDB7DEB7CF50D1400FB6D9
:10295000F894DEBF0FBECDBF789484B5826084BD8D
:1029600084B5816084BD85B5826085BD85B5816093
:1029700085BD80916E00816080936E001092810011
:1029800080918100826080938100809181008160CC
:10299000809381008091800081608093800080918D
:1029A000B10084608093B1008091B0008160809319
:1029B000B00080917A00846080937A0080917A00E0
:1029C000826080937A0080917A00816080937A009F
:1029D00080917A00806880937A001092C100E09123
:1029E0001E04F0911F0482E08083E0911A04F091AC
:1029F0001B041082E0911C04F0911D048FEC808375
:102A000010922604E0912204F091230486E0808352
:102A1000E0912004F0912104808180618083E09125
:102A20002004F0912104808188608083E09120045B
:102A3000F0912104808180688083E0912004F091EE
:102A4000210480818F7D808360E080E00E94950C6E
:102A50006CE471E08EE094E00E94D20F8AE00E9464
:102A6000D10C811107C064E671E08EE094E00E9411
:102A7000E70FFFCF6BE771E08EE094E00E94E70F75
:102A80000E94E90D4B015C0190EDC92E97E0D92E13
:102A9000E12CF12C0E94E90DDC01CB018819990988
:102AA000AA09BB09883E9340A105B10598F321E02E
:102AB000C21AD108E108F10888EE880E83E0981E5A
:102AC000A11CB11CC114D104E104F10419F78AE07E
:102AD0000E94D10C81110AC060E971E08EE094E09F
:102AE0000E94E70FCE0101966C011CC041E06CE929
:102AF00071E0CE0101960E94120BBE016F5F7F4F05
:102B00008FE295E00E94240AE0914805F091490582
:102B1000309719F085818111E5CF64EA71E0DECF4D
:102B20000E94110F81E2882E81E0982E34018EE000
:102B300094E00E946A0E892B99F36FEA71E08EE0AF
:102B400094E00E94E70F6BE471E0C6010E94BD0FA4
:102B50000E94140C97FD22C0C753DF4F8883C95CC5
:102B6000D040C653DF4F1882CA5CD0400D811E8111
:102B70000F5F1F4FB801C6010E94660F882341F303
:102B800029813A818D819E81BE0167537F4F820FDB
:102B9000931F0E94141C1E830D83DACFB60188E0B8
:102BA00095E00E942C0FC6010E94B80F760100E04C
:102BB00010E08FE295E00E944B0897FF2DC00115B1
:102BC000110509F4B4CFF601E00FF11F10824AE0BD
:102BD00050E0BE016D5F7E4FC6010E94EB17AB0156
:102BE000BC01CE0187539F4F0E94EC09BE01675381
:102BF0007F4F82E095E00E942C0FCE0187539F4FBC
:102C00000E94B80FCD5FDE4F88819981C350D140BB
:102C1000C816D906C1F48BCF8A309105A1F2F7010D
:102C200081937F010F5F1F4F083C110511F67FCF85
:102C3000CF010196CD5FDE4F99838883C350D14089
:102C400080818C3249F0CD5FDE4FE881F981C3503D
:102C5000D14080818111ECCF4AE050E0BE016A5141
:102C60007F4FCD5FDE4F88819981C350D1400E9454
:102C7000EB17AB01BC01CE0187539F4F0E94EC09BB
:102C8000BE0167537F4F8CEF94E00E942C0FCE0162
:102C900087539F4F0E94B80F0BC0CF010196CD5FA5
:102CA000DE4F99838883C350D14080818C3249F0B4
:102CB000CD5FDE4FE881F981C350D1408081811121
:102CC000ECCF4AE050E0BE016A517F4FCD5FDE4F4E
:102CD00088819981C350D1400E94EB17AB01BC01A0
:102CE000CE0187539F4F0E94EC09BE0167537F4F6F
:102CF00086EF94E00E942C0FCE0187539F4F0E94D5
:102D0000B80F0BC0CF010196CD5FDE4F998388834A
:102D1000C350D14080818C3249F0CD5FDE4FE881D5
:102D2000F981C350D14080818111ECCFAE014A516D
:102D30005F4F6DEB71E0CD5FDE4F88819981C350AD
:102D4000D1400E940A19BC01CE0187539F4F0E94B7
:102D5000BD0F55245394CA51DF4F28813981C65E77
:102D6000D040CD5FDE4F88819981C350D140281774
:102D7000390709F4512CCE0187539F4F0E94B80F99
:102D8000552009F4D4CE20910C0530910D05809189
:102D90000605909107052817390709F005C18091AC
:102DA000080590910905609102057091030500974F
:102DB00019F061157105A1F46115710549F0232B16
:102DC000A1F0FB01808190E09195819591090AC065
:102DD000009759F0232B49F0FC01808190E002C05C
:102DE0000E940B1C892B09F0DFC0C851DF4F1982EC
:102DF0001882C85ED040CA51DF4F99828882C65E71
:102E0000D040C551DF4F1882CB5ED040C553DF4F55
:102E100019821882CB5CD040C753DF4F99828882D9
:102E2000C95CD040C253DF4F1882CE5CD040E12C49
:102E3000F12CCE018A519F4F5C0107ED14E0C701D0
:102E4000F701E154FE4F20812F3209F40196DC0195
:102E5000A154BE4FFE01ED5FFE4F20E030E04D91EA
:102E60004F3249F0442339F02F5F3F4F0196419391
:102E70002C303105A1F7E3E0F1E0EC0FFD1FE20F8C
:102E8000F31F1082FC01E154FE4F20812F3209F420
:102E900001967C01FC01E154FE4F40801C821B82A4
:102EA0007A8269821E8221E0AE014D5F5E4FB801D9
:102EB000C6010E94FB11882331F0C6010E949F02C7
:102EC000411007C024C094E0073D190709F07FC0F6
:102ED0006DCEF5018581811175C021E0AE014D5F98
:102EE0005E4FB801C5010E94FB11482EF4E0073D7A
:102EF0001F0709F460C0C8010E949F02442009F422
:102F000055CE902F812F8501A92EB82E98CF24E081
:102F1000073D120719F0C8010E949F02552009F4CD
:102F200045CE47E16FEB71E0C6010E94120BB6017E
:102F300084E195E00E94240AE0912D05F0912E0590
:102F4000309779F18581882361F140910C0550918A
:102F50000D05609108057091090584E195E00E94D6
:102F6000F50669E471E084E195E00E94D20F62ED1C
:102F700071E084E195E00E94E70F80912D0590912A
:102F80002E05009709F412CE0E949F0280912D0514
:102F900090912E050E94961A10922E0510922D05E2
:102FA00005CE6DED71E002C064EF71E08EE094E05B
:102FB0000E94E70FFBCD882309F4F8CD8E0107535B
:102FC0001F4F9FCF84E0073D180709F4EFCDC801DC
:102FD0000E949F02EBCDA0E0B0E0E1EFF7E10C949E
:102FE000B3195C016B017A016115710519F0FB01E0
:102FF00091838083E114F10429F0C701029783973C
:1030000008F0E5C0E5012196F5011081812F90E0DF
:103010000E940119892B11F05E01F4CF1D3229F4B1
:103020002196F501118101E007C01B3221F4E50171
:103030002296F501118100E0E114F10409F1F0E1BB
:10304000EF16F10429F43FC010E3E114F10421F17B
:1030500028E0E216F10401F154F4E2E0EE16F10486
:1030600021F5812C912CA12CB0E4BB2E3EC0FAE0BE
:10307000EF16F10439F020E1E216F104B1F430C0AA
:10308000103319F1FAE0EF2EF12CACEC8A2E982CCB
:10309000A82CACE0BA2E29C078E0E72EF12C812CC8
:1030A000912CA12CE0E1BE2E20C060E070E080E019
:1030B00090E897010F2C000C440B550B0E948519CA
:1030C00049015A0112C0103359F488818F7D883527
:1030D00009F0BACF19812296026080E1E82EF12C26
:1030E000812C912CA12C68E0B62E40E060E070E0CD
:1030F000CB0127010F2C000C66087708FE0150ED6C
:10310000352E310E29E0231570F42FEB210F2A31D3
:1031100018F439EC332E06C02FE9210F2A3118F5A7
:1031200029EA322E310E232D30E02E153F05DCF436
:1031300047FD16C086169706A806B90670F0A301CB
:1031400092010E947519630D711D811D911D6130E1
:103150007105810520E8920710F04FEF01C041E0B2
:1031600021961081CBCF202F2170C114D10471F092
:10317000442329F02197F601D183C08307C001FFC2
:1031800019C02297F601D183C08314C047FF12C033
:10319000222329F060E070E080E090E804C06FEF47
:1031A0007FEF8FEF9FE722E230E0309356052093C8
:1031B000550509C0222381F0909580957095619501
:1031C0007F4F8F4F9F4F462F372F282F12C040E041
:1031D00030E020E090E00DC097FFF5CF82E290E074
:1031E00090935605809355056FEF7FEF8FEF9FE724
:1031F000EACF642F732F822FCDB7DEB7E1E10C94B5
:10320000CF1991110C946219803219F089508550B0
:10321000C8F70895FA01A191B081009719F41097A9
:10322000E1F0CD01DC01CD010D90002011F4C001D1
:1032300013C0FB012191222319F02015D9F7F3CFF8
:10324000FB012191201519F41E92119606C022232C
:10325000C1F70D900020A1F7D001FA01A193B0832E
:103260000895BB272A3051F4992342F4BDE290958A
:103270008095709561957F4F8F4F9F4F0C944119AA
:10328000BB27FA01A62F6217710581059105330B43
:1032900030FB66F0AA27660F771F881F991FAA1FA9
:1032A000A21710F0A21B63953850A9F7A05DAA33AE
:1032B00008F0A95DA19336F7B111B1931082CA014C
:1032C0000C946519992788270895DC01FC01672F64
:1032D00071917723E1F7329704C07C916D937083ED
:1032E0006291AE17BF07C8F30895DB018F939F93D8
:1032F0000E94A719BF91AF91A29F800D911DA39F1E
:10330000900DB29F900D11240895A1E21A2EAA1BD0
:10331000BB1BFD010DC0AA1FBB1FEE1FFF1FA21785
:10332000B307E407F50720F0A21BB30BE40BF50B82
:10333000661F771F881F991F1A9469F7609570950B
:10334000809590959B01AC01BD01CF0108950E942D
:10335000E919A59F900DB49F900DA49F800D911D1C
:10336000112408952F923F924F925F926F927F9215
:103370008F929F92AF92BF92CF92DF92EF92FF9285
:103380000F931F93CF93DF93CDB7DEB7CA1BDB0B31
:103390000FB6F894DEBF0FBECDBF09942A883988D6
:1033A00048885F846E847D848C849B84AA84B984DD
:1033B000C884DF80EE80FD800C811B81AA81B981E9
:1033C000CE0FD11D0FB6F894DEBF0FBECDBFED01FD
:1033D0000895A29FB001B39FC001A39F700D811DEE
:1033E0001124911DB29F700D811D1124911D08950E
:1033F000EE0FFF1F0590F491E02D09940F931F939A
:10340000CF93DF938230910510F482E090E0E09159
:103410005905F0915A0520E030E0A0E0B0E0309787
:1034200019F1408151810281138148175907C8F071
:103430008417950769F4109731F012960C93129740
:1034400013961C9327C00093590510935A0522C068
:103450002115310519F04217530718F49A01BD01DF
:10346000EF01DF01F801DBCF21153105F9F0281B51
:10347000390B2430310580F48A819B8161157105F7
:1034800021F0FB019383828304C090935A058093BB
:103490005905FE01329644C0FE01E20FF31F8193ED
:1034A000919322503109398328833AC020915705DE
:1034B00030915805232B41F42091060130910701EA
:1034C0003093580520935705209104013091050150
:1034D0002115310541F42DB73EB7409108015091B7
:1034E0000901241B350BE0915705F0915805E217AF
:1034F000F307A0F42E1B3F0B2817390778F0AC0117
:103500004E5F5F4F2417350748F04E0F5F1F5093F3
:103510005805409357058193919302C0E0E0F0E095
:10352000CF01DF91CF911F910F910895CF93DF933A
:10353000009709F481C0FC01329713821282A09196
:103540005905B0915A05109781F420813181820F7D
:10355000931F20915705309158052817390751F5C9
:10356000F0935805E093570567C0ED0120E030E087
:10357000CE17DF0740F44A815B819E01411551055A
:10358000F1F0EA01F5CFD383C28340815181840FEA
:10359000951FC817D90759F488819981840F951F01
:1035A0000296918380838A819B81938382832115F4
:1035B000310529F4F0935A05E09359053DC0E9011E
:1035C000FB83EA8349915991C40FD51FEC17FD077E
:1035D00061F480819181840F951F0296E90199839E
:1035E0008883828193819B838A83E0E0F0E0129656
:1035F0008D919C911397009719F0FD01DC01F7CF95
:103600008D919C9111979D012E5F3F4F820F931FCB
:1036100020915705309158052817390769F43097DC
:1036200029F410925A051092590502C01382128291
:10363000B0935805A0935705DF91CF910895A0E06E
:10364000B0E0E5E2FBE10C94B619EC01009721F43F
:10365000CB010E94FE19B4C0FC01E60FF71F9C01CC
:1036600022503109E217F30708F4A8C0D9010D91DF
:103670001C91119706171707B0F00530110508F4D3
:103680009BC0C80104978617970708F495C002509D
:103690001109061B170B019311936D937C93CF01B6
:1036A0000E94961A89C05B01A01AB10A4C01800ED3
:1036B000911EA0915905B0915A05612C712CE12CF5
:1036C000F12C109709F446C08D919C911197A81583
:1036D000B905B1F56C0142E0C40ED11CCA14DB047B
:1036E00078F14C018A189B08640142E0C40ED11C99
:1036F0001296BC9012971396AC91B5E0CB16D104FC
:1037000040F0B282A38391828082D9016D937C9331
:1037100009C00E5F1F4F800F911FF90191838083B5
:10372000EB2DFA2FE114F10431F0D7011396FC933D
:10373000EE93129741C0F0935A05E09359053CC0AF
:103740006816790608F43C017D0112960D90BC9133
:10375000A02DB7CF809157059091580588169906EE
:10376000E1F466167706C8F4809104019091050192
:10377000009741F48DB79EB740910801509109011F
:10378000841B950BE817F907C8F4F0935805E093EC
:103790005705F901718360830FC0CB010E94FE19A8
:1037A0007C01009759F0A801BE010E94F71BCE01D1
:1037B0000E94961AC70104C0CE0102C080E090E0CA
:1037C000CDB7DEB7EEE00C94D21981E090E0F8942A
:1037D0000C942A1CFB01DC0104C08D91019080191E
:1037E00021F441505040C8F7881B990B0895FB0104
:1037F000DC0102C001900D9241505040D8F708956D
:10380000FC018191861721F08823D9F79927089523
:103810003197CF010895FB01DC018D910190801952
:103820000110D9F3990B0895FB01DC0101900D9271
:103830000020E1F70895FB01DC014150504048F0C1
:1038400001900D920020C9F701C01D9241505040D7
:10385000E0F7089510E0C5E6D0E004C0FE010E9444
:0E386000F8192196C636D107C9F7F894FFCFA4
:10386E00FFFFFFFF00005B0580000000000000A2CC
:10387E000E0F0E390EEF0E6A0E480E5C0E00000093
:10388E00001B0F0F0EC7000E0E00000000B4130F2A
:10389E000EC7000E0E00000000B100F506C70003B3
:1038AE000190004B0855082F000D0A00496E6974EF
:1038BE0069616C697A696E67205344206361726432
:1038CE002E2E2E00696E697469616C697A61746955
:1038DE006F6E206661696C65642100696E6974693A
:1038EE00616C697A6174696F6E20646F6E652E000B
:1038FE00626567696E206572726F72006770732EF3
:10390E00637376006F70656E206572726F720069F8
:10391E006E207768696C65206C6F6F70002C006488
:10392E00617461626173655F77726974652E63732A
:10393E0076006461746153657269616C00657272C0
:10394E006F72206F70656E696E6720637376206686
:10395E00696C65006E6F206D6174636820666F75AB
:04396E006E64000083
:107E0000112484B714BE81FFF0D085E080938100F7
:107E100082E08093C00088E18093C10086E0809377
:107E2000C20080E18093C4008EE0C9D0259A86E02C
:107E300020E33CEF91E0309385002093840096BBD3
:107E4000B09BFECF1D9AA8958150A9F7CC24DD24C4
:107E500088248394B5E0AB2EA1E19A2EF3E0BF2EE7
:107E6000A2D0813461F49FD0082FAFD0023811F036
:107E7000013811F484E001C083E08DD089C08234E0
:107E800011F484E103C0853419F485E0A6D080C0E4
:107E9000853579F488D0E82EFF2485D0082F10E0AE
:107EA000102F00270E291F29000F111F8ED06801E7
:107EB0006FC0863521F484E090D080E0DECF843638
:107EC00009F040C070D06FD0082F6DD080E0C81688
:107ED00080E7D80618F4F601B7BEE895C0E0D1E017
:107EE00062D089930C17E1F7F0E0CF16F0E7DF06D8
:107EF00018F0F601B7BEE89568D007B600FCFDCFD4
:107F0000A601A0E0B1E02C9130E011968C91119780
:107F100090E0982F8827822B932B1296FA010C0160
:107F200087BEE89511244E5F5F4FF1E0A038BF0790
:107F300051F7F601A7BEE89507B600FCFDCF97BE46
:107F4000E89526C08437B1F42ED02DD0F82E2BD052
:107F50003CD0F601EF2C8F010F5F1F4F84911BD097
:107F6000EA94F801C1F70894C11CD11CFA94CF0C13
:107F7000D11C0EC0853739F428D08EE10CD085E9AC
:107F80000AD08FE07ACF813511F488E018D01DD067
:107F900080E101D065CF982F8091C00085FFFCCF94
:107FA0009093C60008958091C00087FFFCCF809118
:107FB000C00084FD01C0A8958091C6000895E0E648
:107FC000F0E098E1908380830895EDDF803219F02E
:107FD00088E0F5DFFFCF84E1DECF1F93182FE3DFCA
:107FE0001150E9F7F2DF1F91089580E0E8DFEE27F6
:047FF000FF270994CA
:027FFE00040479
:0400000300007E007B
:00000001FF
