:100000000C9466000C948E000C948E000C947F0867
:100010000C947F080C947F080C948E000C948E0036
:100020000C948E000C948E000C948E000C948E0018
:100030000C948E000C948E000C948E000C948E0008
:100040000C942F0E0C948E000C9478100C9452107B
:100050000C948E000C948E000C948E000C948E00E8
:100060000C948E000C948E000000000025002800E7
:100070002B0000000008000201000003040700003C
:1000800000000000000000000000240027002A00FB
:10009000010204081020408001020408102001021F
:1000A00004081020040404040404040402020202EC
:1000B00002020303030303037C3C3E5E2B3D3F2F00
:1000C0005B5D3B2C2A225C001F140B1411241FBE05
:1000D000CFEFD8E0DEBFCDBF25E0A4E3B2E001C0A2
:1000E0001D92AB38B207E1F712E0A0E0B1E0E6EC18
:1000F000F8E302C005900D92A433B107D9F710E0E0
:10010000C5E6D0E004C02197FE010E94241AC4363F
:10011000D107C9F70E94A0140C94561C0C9400003F
:10012000DC015996ED91FC915A973097B9F083898B
:100130009489A589B6894285538564857585841B14
:10014000950BA60BB70B811520E89207A105B10509
:1001500038F08FEF9FE7A0E0B0E0089580E090E0F6
:100160000895CF93DF931F92CDB7DEB76983DC018B
:10017000ED91FC910280F381E02D41E050E0BE0161
:100180006F5F7F4F09950F90DF91CF91089580E0C9
:1001900090E00895CF93DF93EC018D81882379F16E
:1001A0008C8187FF28C06E857F858889998941E089
:1001B0000E94E510882319F1EA8980E2E89FF001A6
:1001C0001124E45CFD4F3097D1F08D81823040F4F2
:1001D0008B899C89AD89BE89848F958FA68FB78FB7
:1001E0008F89988DA98DBA8D938F828FB58BA48BB3
:1001F0008C818F778C83DF91CF910C94AA1080E053
:10020000DF91CF910895FC01818D928D009711F0BF
:100210000C94CA0008958F929F92AF92BF92CF9292
:10022000DF92EF92FF920F931F93CF93DF93EC0136
:100230008D81811102C080E078C00B891C892D89D5
:100240003E890417150726073707A8F36A017B01C3
:10025000823029F4CA86DB86EC86FD860DC0C11487
:10026000D104E104F10451F41E821F82188619861C
:100270001A861B861C861D8681E057C08A849B8453
:10028000AC84BD84EB8DFC8D258530E0275F3F4F2E
:10029000B501A4014150510961097109022E04C040
:1002A00076956795579547950A94D2F7D701C60179
:1002B0000197A109B10904C0B695A79597958795AF
:1002C0002A95D2F784179507A607B70720F0892843
:1002D0008A288B2871F44F89588D698D7A8D4E83C9
:1002E0005F83688779874C015D018E010A5F1F4F2C
:1002F00016C0841B950BA60BB70BF5CF4E815F8103
:100300006885798598018B8D9C8D0E94CF1191E035
:10031000891A9108A108B108882309F48CCF8114A7
:100320009104A104B10451F795CFDF91CF911F91B2
:100330000F91FF90EF90DF90CF90BF90AF909F9084
:100340008F9008958F929F92AF92BF92CF92DF923B
:10035000EF92FF920F931F93CF93DF9300D000D0C3
:10036000CDB7DEB77C0180E2689FF0011124E45C28
:10037000FD4F9385917121F0842F827409F08FC015
:10038000142FD70152966C935297409100015091CF
:10039000010160910201709103011E964D935D93DE
:1003A0006D937C9351974489558960E070E0BA0160
:1003B00055274427828D938DA0E0B0E0482B592B20
:1003C0006A2B7B2BD70157964D935D936D937C934E
:1003D0005A978385887159F4848D958DA68DB78D34
:1003E000F701838B948BA58BB68B81E012C0803193
:1003F00009F055C097012D5E3F4FD7015B968D9157
:100400009C915C970E94680A882309F448C084E0A4
:10041000F7018583812F8F70D70114968C931497E1
:10042000F70116821782108611861A961D921D9268
:100430001D921C921D9716FF34C015968C91813029
:1004400071F511FF2CC0F7014389548965897689BC
:10045000452B462B472B09F461C040E050E0BA0120
:10046000C7010E940B018823D1F0F7018788908C87
:10047000A18CB28CC38CD48C82E090E0A0E0B0E080
:10048000F60180839183A283B3839E012F5F3F4F48
:10049000B501A401C6010E94CF11811104C080E002
:1004A0003DC081E03BC000E010E09801B501A4012F
:1004B000C6010E942E11882391F389809A80AB8017
:1004C000BC80D60157968C91803129F088EF9FEF40
:1004D000AFEFBFE004C088EF9FEFA0E0B0E0881668
:1004E0009906AA06BB0688F2D70157961D921D925F
:1004F0001D921C925A97F701138A148A158A168A3C
:10050000848180688483C7010E94CA00882339F2ED
:1005100040E050E0BA01C7010E940B010F900F901C
:100520000F900F90DF91CF911F910F91FF90EF905F
:10053000DF90CF90BF90AF909F908F900895CF9312
:10054000DF93EC010E94CA00882311F01D8281E034
:10055000DF91CF9108953F924F925F926F927F9279
:100560008F929F92AF92BF92CF92DF92EF92FF92C3
:100570000F931F93CF93DF93CDB7DEB72C970FB6B2
:10058000F894DEBF0FBECDBF5C01DC015B968D90A1
:100590009C905C971696CD90DD90ED90FC9019970D
:1005A000C114D104E104F10439F0BFEFCB1ADB0A26
:1005B000EB0AFB0A312C07C0F401C080D180E28035
:1005C000F38033243394F40181859285A385B48527
:1005D0009C01AD012F5F3F4F4F4F5F4F29873A87F7
:1005E0004B875C87260137011D821E821F82188679
:1005F000F40181859285A385B4852D813E814F814B
:100600005885281739074A075B0708F063C08985B2
:100610009A85AB85BC858C159D05AE05BF0550F44C
:1006200082E0C82ED12CE12CF12C92E0492E512CE5
:10063000612C712C9E012F5F3F4FB701A601C401B1
:100640000E94CF11882309F445C089819A81AB812A
:10065000BC81892B8A2B8B2B41F0260137019FEF20
:10066000491A590A690A790A05C0C414D504E6046E
:10067000F70491F02D813E814F8158852F5F3F4FC8
:100680004F4F5F4F2D833E834F8358873FEFC31AF1
:10069000D30AE30AF30AACCF0FEF1FEF2FEF3FE0CF
:1006A000B301A201C4010E942E11882399F0D50143
:1006B00016964D915D916D917C911997411551055B
:1006C0006105710549F093018201C4010E942E1158
:1006D000811102C080E02AC0D50116964D925D922C
:1006E0006D927C921997332051F0D301C20101968B
:1006F000A11DB11DF40180839183A283B383F50111
:100700008789908DA18DB28D892B8A2B8B2B69F4D3
:10071000D50157964D925D926D927C925A971496A0
:100720008C911497806814968C9381E02C960FB668
:10073000F894DEBF0FBECDBFDF91CF911F910F9117
:10074000FF90EF90DF90CF90BF90AF909F908F90F1
:100750007F906F905F904F903F9008958FB7F8947F
:10076000809137028FBF089561E0FC0184810E946F
:100770005B0C8091360281111092360208958EBD75
:1007800000000DB407FEFDCF8EB508958FEF0C94D9
:10079000BF030F931F93CF93DF93EB010E94230EB0
:1007A0008B010E94C6038F3F49F00E94230E601BFD
:1007B000710B6C177D07A8F380E001C081E0DF9129
:1007C000CF911F910F910895CF93DF93EC018E810C
:1007D000882389F08F8198859C012F5F3F4F388750
:1007E0002F838230924018F40E94C603F3CFCE01CB
:1007F0000E94B4031E82DF91CF9108958CBD9DBDF0
:100800000895CF93DF93EC0180913602811109C0E6
:1008100081E0809336028091DB049091DC040E9499
:10082000FE0360E08C81DF91CF910C945B0C8F9282
:100830009F92AF92BF92FF920F931F93CF93DF933C
:10084000EC01F62E49015A010E94E403CE010E94F8
:1008500001046CE271E0CE010E94C9038F2D806417
:100860000E94BF0308E110E0D501C401002E04C0BE
:10087000B695A795979587950A94D2F70E94BF03DE
:1008800008501109083F8FEF180771F7FF2029F072
:1008900088E0F81204C087E803C085E901C08FEF43
:1008A0000E94BF0310E00E94C6038A8787FF04C02E
:1008B0001F3F11F01F5FF7CFDF91CF911F910F9175
:1008C000FF90BF90AF909F908F900895AF92BF928E
:1008D000CF92DF92EF92FF920F931F93CF93DF930C
:1008E000EC016901C801820F931F8130924008F02A
:1008F00070C08E81882371F088819981AA81BB8123
:1009000084179507A607B70729F48F819885C8161D
:10091000D906B0F5488359836A837B838B858330FE
:1009200039F089E0440F551F661F771F8A95D1F76C
:100930009A01AB0161E1CE010E941704882319F0EE
:1009400083E08D8346C00E94230E5B010E94C60394
:100950008A878F3F49F40E94230E6A197B096D3202
:100960007140A0F38FE003C08E3F31F08DE08D83A6
:10097000CE010E94B4032DC018861F8281E08E83B1
:100980008F8198858C159D0540F40E94C6038F8148
:100990009885019698878F83F3CF6701E00EF11E4B
:1009A000EC14FD0431F00E94C603F60181936F013F
:1009B000F7CF8F819885080F191F18870F838985B6
:1009C000882319F00115124048F0CE010E94E4037B
:1009D00005C0CE010E94B40380E001C081E0DF9138
:1009E000CF911F910F91FF90EF90DF90CF90BF902C
:1009F000AF900895EF92FF920F931F93CF93DF93E1
:100A0000EC017901411551056105710511F482E18F
:100A10003CC08B85833039F089E0440F551F661F39
:100A2000771F8A95D1F79A01AB0168E1CE010E9448
:100A30001704882311F084E028C08EEF0E94BF03C2
:100A400087018EEFF81AF80181918F010E94BF0390
:100A5000E016F106C1F78FEF0E94BF038FEF0E94EF
:100A6000BF030E94C6038A878F71853031F081E110
:100A70008D83CE010E94B40309C068E572E0CE0107
:100A80000E94C903811107C085E18D83CE010E94B8
:100A9000B40380E014C020E030E0A9016DE0CE0195
:100AA0000E941704811109C00E94C603811105C06C
:100AB000CE010E94B40381E002C084E1E6CFDF9161
:100AC000CF911F910F91FF90EF9008952F923F9239
:100AD0004F925F926F927F928F929F92AF92BF924E
:100AE000CF92DF92EF92FF920F931F93CF93DF93FA
:100AF00000D000D0CDB7DEB78C015B011A01DC015C
:100B000015968C9115978130C9F414968C9181FFBC
:100B100015C082FF1DC0F801438954896589768913
:100B200082859385A485B58584179507A607B707A1
:100B300079F0C8010E940B0181110AC081E090E0A8
:100B4000D80113969C938E93129780E090E036C163
:100B5000610183C05B968D919C915C97FC017480D0
:100B60002FEF270D2A013B0139E0769467945794C3
:100B700047943A95D1F7722E74207A01F1E0FF2262
:100B8000772009F476C080E092E08E199F09460133
:100B90008C159D0508F44C01D8015B962D913C9174
:100BA0005C9716968D919D910D90BC91A02D02970A
:100BB000A109B109F901058404C0880F991FAA1F72
:100BC000BB1F0A94D2F74685578560897189840FC7
:100BD000951FA61FB71F9C01AD01270D311D411D9B
:100BE000511D29013A01811432E0930609F088C0B1
:100BF0008091000190910101A0910201B091030147
:100C0000481659066A067B0659F48FEF9FEFDC0100
:100C10008093000190930101A0930201B09303011E
:100C20009501B301A20180913C0490913D040E9482
:100C3000FA04882309F482CF9EEFB91AC818D9089C
:100C4000F80182859385A485B585880D991DA11D20
:100C5000B11D82879387A487B587D8011A964D91D5
:100C60005D916D917C911D97C114D10409F072CFF3
:100C700087C0E114F10409F086CF16964D915D917D
:100C80006D917C911997411551056105710559F4D4
:100C900057968D919D910D90BC91A02D0097A10527
:100CA000B10541F521C09E012F5F3F4F0E94CF113A
:100CB000882309F44BCF89819A81AB81BC81F801EB
:100CC000238D348DF9012789203129F048EF5FEF1A
:100CD0006FEF7FE004C048EF5FEF60E070E08417E3
:100CE0009507A607B70730F0C8010E94AB02811133
:100CF0004ACF24CFF80186839783A087B18743CF5B
:100D0000E114F10429F5D8011A964D915D916D9188
:100D10007C911D9753968D919D910D90BC91A02D26
:100D2000481759076A077B0798F00E94AA10882382
:100D300009F404CF40920001509201016092020137
:100D4000709203018091800581608093800508C0C6
:100D500041E0C301B2010E94E510882309F4EECE00
:100D6000D501F701E45CFD4F9F01280D391D2E17B9
:100D70003F0719F08D918193FACFA80CB91C5ECF73
:100D8000F80183899489A589B68984179507A607F0
:100D9000B70738F4438B548B658B768B84818068DE
:100DA0008483F801848183FD02C0C10107C0C801AA
:100DB0000E94CA00882309F4C1CEF7CF0F900F908C
:100DC0000F900F90DF91CF911F910F91FF90EF90B7
:100DD000DF90CF90BF90AF909F908F907F906F905B
:100DE0005F904F903F902F900895CF93DF93EC0149
:100DF000898D9A8D009739F481E090E09B838A83F6
:100E000080E090E00BC0FC01138212820E94660514
:100E1000E98DFA8D22813381232B71F7DF91CF91F8
:100E20000895FC01DB0112968D919C911397938399
:100E3000828381E291E09183808314968C91149750
:100E4000848315968C911597858316964D915D91A7
:100E50006D917C91199746835783608771871A96A5
:100E60004D915D916D917C911D9742875387648769
:100E700075871E964D915D916D917C915197468736
:100E80005787608B718B52968C915297828B5396B9
:100E90004D915D916D917C915697438B548B658BF1
:100EA000768B57964D915D916D917C915A97478BBA
:100EB000508F618F728F5B968D919C915C97948F10
:100EC000838F08954F925F926F927F92AF92BF92FD
:100ED000CF92DF92EF92FF920F931F93CF93DF9306
:100EE0001F92CDB7DEB7FC012581222309F4C1C0D2
:100EF000848180FFBEC083899489A589B689428494
:100F000053846484758484159505A605B70509F492
:100F1000B0C06F015201F1E0BF22D6015B968D9106
:100F20009C915C97B301A20139E07695679557953E
:100F300047953A95D1F7223071F4FC01828D938D5B
:100F4000A48DB58D8A019B01080F191F2A1F3B1F15
:100F5000C901B8014AC0DC0114961C911150142338
:100F6000A114B104F9F411111DC0452846284728E1
:100F700051F4F6018789908DA18DB28D8683978378
:100F8000A087B1870FC0D60116964D915D916D91E6
:100F90007C91199796012A5F3F4F0E94CF118823B9
:100FA00009F467C0F601238D348D86819781A08571
:100FB000B1850297A109B109AC01BD01F901058410
:100FC00004C0440F551F661F771F0A94D2F7868509
:100FD0009785A089B189840F951FA61FB71FBC01F3
:100FE000CD01610F711D811D911DD60114962C91AB
:100FF00026FF0DC040900001509001016090020159
:1010000070900301461657066806790699F440E089
:101010000E94E510882369F1F501E45CFD4FDE01D3
:1010200011969F012F5F3F4F2E173F0799F0819137
:101030008D93FACFFE0131967F0101E010E095011A
:10104000AB01BC0180913C0490913D040E94660478
:10105000882379F0F60182859385A485B58501966C
:10106000A11DB11D82879387A487B587898190E0F0
:1010700002C08FEF9FEF0F90DF91CF911F910F91E3
:10108000FF90EF90DF90CF90BF90AF907F906F90E8
:101090005F904F900895FC01818D928D009711F023
:1010A0000C9462078FEF9FEF08950F931F93CF93D8
:1010B000DF93FC01818D928D0097B9F0EF010E94C2
:1010C00062078C010F3F8FEF180791F0898D9A8D81
:1010D000FC0142855385648575854150510961093C
:1010E00071090E940B01C80105C080E090E002C0B8
:1010F0008FEF9FEFDF91CF911F910F9108951F9276
:101100000F920FB60F9211240F900FBE0F901F90E9
:101110001895EF92FF920F931F93CF93DF93EC01FB
:101120007B018A011B821A8288EE93E0A0E0B0E086
:101130008C839D83AE83BF8389E391E09983888309
:101140008DE190E00E942A1A9A8F898F009779F09A
:101150002DE1F701DC0101900D922A95E1F74CE0B9
:1011600050E0B801CE010C960E94471C188EDF910A
:10117000CF911F910F91FF90EF9008958F929F92C2
:10118000AF92BF92CF92DF92EF92FF92CF93DF9315
:10119000C82F8DED94E090933D0480933C04CC23C4
:1011A00069F1C53010F080E00CC140E060E070E013
:1011B000CB010E94E5108823B1F320E1C29FC0015A
:1011C0001124845D9D4FFC01E254FE4F20812F7756
:1011D00051F73C96408151816281738144365105BB
:1011E0006105710500F33497C080D180E280F380FF
:1011F000C114D104E104F10421F4D5CFC12CD12CC8
:10120000760140E0C701B6010E94E510882359F23B
:1012100080914702909148028115924021F6A09159
:101220004C02AA2309F4BFCF60914A0270914B028D
:101230006115710509F4B7CF20914902222309F401
:10124000B2CFA093FB042093ED0480E030E041E0B6
:1012500050E0C82FFA01082E02C0EE0FFF1F0A94BB
:10126000E2F72E173F0739F08F5FC83091F789E01A
:101270008093F60498CF8093F60420915202309127
:1012800053022115310519F040E050E008C02091CB
:10129000600230916102409162025091630220939A
:1012A000EE043093EF044093F0045093F1044601B0
:1012B0005701860E971EA11CB11C8092FC049092CF
:1012C000FD04A092FE04B092FF04E0914D02F09163
:1012D0004E02F0930205E0930105B0E00E94D3199D
:1012E000860E971EA81EB91E8092030590920405D3
:1012F000A0920505B092060585E0EE0FFF1F8A95C6
:10130000E1F7E150FE4FEF2FFF27E6958E0E9F1E6F
:10131000A11CB11C8092F7049092F804A092F904E9
:10132000B092FA0420914F023091500221153105FC
:1013300021F0A90160E070E008C040915C0250918A
:101340005D0260915E0270915F02D701C60188194B
:101350009909AA09BB09840F951FA61FB71F04C0CE
:10136000B695A79597958795CA95D2F78093F2047D
:101370009093F304A093F404B093F504853F2FE019
:101380009207A105B10510F48CE018C0853F9F4F6E
:10139000A105B10510F480E111C08091680290911F
:1013A0006902A0916A02B0916B0280930305909349
:1013B0000405A0930505B093060580E2809300051F
:1013C00081E0DF91CF91FF90EF90DF90CF90BF90C1
:1013D000AF909F908F900895CF93DF93BC018EE3E1
:1013E00094E00E943D10EC0167E471E08EE394E02C
:1013F0000E943D108C0F9D1FDF91CF910895EF92B9
:10140000FF920F931F93CF93DF93CDB7DEB7A297D1
:101410000FB6F894DEBF0FBECDBF8C01CB01BA0171
:10142000F8011182108213821282158214822AE03E
:10143000AE014F5F5F4F7A010E945D19F701019085
:101440000020E9F73197AF014E195F09B701C801D4
:101450000E94F80FA2960FB6F894DEBF0FBECDBF64
:10146000DF91CF911F910F91FF90EF900895CF934F
:10147000DF93FB0122813381DC0113963C932E9391
:101480001297448155816681778114964D935D93BF
:101490006D937C9317974085518562857385189667
:1014A0004D935D936D937C931B971C96EF012C9647
:1014B0009C01275E3F4F49914D93A217B307D9F77F
:1014C000218D328DFC01328F218FDF91CF910895D4
:1014D0004F925F926F927F92AF92BF92CF92DF92C4
:1014E000EF92FF920F931F93CF93DF9300D000D022
:1014F000CDB7DEB78C0149835A836B837C83590156
:10150000C12CD12C7601412C82E0582E612C712CFB
:1015100049815A816B817C819E012F5F3F4FC801B9
:101520000E94CF11882351F1D301C201F801058433
:1015300004C0880F991FAA1FBB1F0A94D2F7C80EB8
:10154000D91EEA1EFB1E49815A816B817C818789E5
:10155000803129F088EF9FEFAFEFBFE004C088EF44
:101560009FEFA0E0B0E0481759076A077B0780F2B9
:10157000F501C082D182E282F38281E00F900F9068
:101580000F900F90DF91CF911F910F91FF90EF90EF
:10159000DF90CF90BF90AF907F906F905F904F9013
:1015A0000895CF93DF93FC012581222311F080E081
:1015B00049C0EC01809100058031C1F482E085834F
:1015C000178A108E118E128E80910105909102055E
:1015D000A0E0B0E025E0880F991FAA1FBB1F2A9545
:1015E000D1F7838B948BA58BB68B19C08032F9F61B
:1015F00083E08583409103055091040560910505C2
:1016000070910605478B508F618F728F9F012D5E01
:101610003F4F89EE94E00E94680A882341F289EEE8
:1016200094E09C8F8B8F81E08C831E821F821886B2
:1016300019861A861B861C861D861E861F86188A9A
:10164000198A1A8ADF91CF9108952F923F924F9273
:101650005F926F927F928F929F92AF92BF92CF9242
:10166000DF92EF92FF920F931F93CF93DF93CDB74B
:10167000DEB7C756D1090FB6F894DEBF0FBECDBF97
:101680006C015B01A6964FAFA69719A218A281E242
:1016900091E09F8F8E8F1BA21C821B829A8389836D
:1016A0001E824E018EE1880E911CC4010E94D10A57
:1016B00075018E010F5F1F4F240118016FE270E06A
:1016C000C7010E942C1C009709F442C0F701208139
:1016D0002F3221F4FFEFEF1AFF0AF0CF8E198D3071
:1016E00008F08CE0682E712CA301B701CE01885A56
:1016F0009F4F0E94471CE8E5F0E0EC0FFD1FE60D50
:10170000F71D1082C8010E949F02F801858188237D
:1017100051F01EAE1DAE81E291E09CAF8BAF2196E1
:101720001FAE219721C021E0AE01485A5F4FB201A0
:10173000C8010E945212882361F3E60CF71CC20113
:101740000E949F02942D852D2801092F182FB6CFB6
:10175000C7018A199B09A8969FAF8EAFA897B201BF
:10176000CE01CB960E941107A896EEADFFADA897CB
:10177000AE0EBF1EF5018081811109C0BE01655CFE
:101780007F4FC1010E9411074AE451E041C019A2F4
:1017900018A281E291E09F8F8E8F1BA221968FADC0
:1017A0002197811113C0F6011382128288EE93E013
:1017B000A0E0B0E084839583A683B78389E391E0BA
:1017C00091838083128E118E148626C0A6962FAD2B
:1017D000A697A501BE01655C7F4FC4010E9452120D
:1017E000882309F3CE01CB960E949F02A6968FAD67
:1017F000A6978670863039F449A95AA96BA97CA9A5
:10180000C4010E940B01B401C1010E941107A5018E
:10181000B101C6010E948908C601C959DF4F0FB640
:10182000F894DEBF0FBECDBFDF91CF911F910F9116
:10183000FF90EF90DF90CF90BF90AF909F908F90F0
:101840007F906F905F904F903F902F9008950F93EF
:101850001F930E94230E6093460470934704809365
:101860004804909349048EE394E00E94B30E97FFDE
:101870001FC00E94230E009146041091470420913E
:10188000480430914904DC01CB01801B910BA20B71
:10189000B30B009142041091430420914404309111
:1018A000450480179107A207B307E8F28FEF9FEF77
:1018B0001F910F91089590E0FC01EE58FF4F249185
:1018C000FC01E057FF4F3491FC01EC55FF4FE491D0
:1018D000EE2309F43CC0222339F1233091F038F48F
:1018E0002130A9F0223001F584B58F7D12C0273058
:1018F00091F02830A1F02430B9F4809180008F7DE0
:1019000003C0809180008F77809380000DC084B5E4
:101910008F7784BD09C08091B0008F7703C080911C
:10192000B0008F7D8093B000F0E0EE0FFF1FE8590C
:10193000FF4FA591B4919FB7F894611104C08C91A9
:101940003095382302C0EC913E2B3C939FBF089505
:10195000CF93DF9390E0FC01E057FF4F2491FC010F
:10196000EC55FF4F8491882361F190E0880F991F17
:10197000FC01EA57FF4FC591D491FC01E859FF4F94
:10198000A591B491611109C09FB7F8948881209501
:1019900082238883EC912E230BC0623061F49FB7C1
:1019A000F8948881322F309583238883EC912E2BF5
:1019B0002C939FBF06C08FB7F894E8812E2B288305
:1019C0008FBFDF91CF9108958F929F92AF92BF9278
:1019D000CF92DF92EF92FF92CF93C82F80910C05A8
:1019E000882321F087E095E00E949F021092E8048E
:1019F0001092E6041092E3041092E204C093E10412
:101A00000E94230E6B017C0161E08091E1040E9441
:101A1000A80C61E08091E1040E945B0CCFB7F894C0
:101A200080917A05811127C0EEEAF0E08491EAE91D
:101A3000F0E09491E82FF0E0EE0FFF1FEA57FF4F20
:101A4000A591B491EC91E92321F461E08AE00E9430
:101A50005B0C61E08AE00E94A80C8CB580618CBDB3
:101A60008CB580648CBD61E08DE00E94A80C61E0C3
:101A70008BE00E94A80C80917A058F5F80937A0595
:101A8000CFBF82E58093DB041092DC048091DB04FD
:101A90009091DC040E94FE03CAE08FEF0E94BF0316
:101AA000C150D9F78DED94E00E94010420E030E0B0
:101AB000A90160E08DED94E00E941704C82F809387
:101AC000E704813049F00E94230E6C197D09613DC5
:101AD000774060F381E054C02AEA31E040E050E012
:101AE00068E08DED94E00E94170482FF03C0C0936C
:101AF000E8040EC0C4E00E94C6038093E704C1500E
:101B0000D1F78A3A11F082E03BC082E08093E8048A
:101B10008091E804823021F0812C912C540105C081
:101B2000812C912CA12C80E4B82E20E030E0A9017A
:101B300067E38DED94E00E941704A501940169E22A
:101B40008DED94E00E9417048093E704882349F008
:101B50000E94230E6C197D09613D774030F388E0C7
:101B60000FC08091E804823001F520E030E0A90147
:101B70006AE38DED94E00E941704882341F086E02B
:101B80008093E2048DED94E00E94B40329C00E948A
:101B9000C603807C803C19F483E08093E8040E94B3
:101BA000C6030E94C6030E94C6038DED94E00E9406
:101BB000B40380E58093DB041092DC0481E00E9492
:101BC000BE08882341F087E095E00E94D10A91E0A9
:101BD000811107C005C080E00E94BE088111F3CFCB
:101BE00090E0892FCF91FF90EF90DF90CF90BF9042
:101BF000AF909F908F9008953FB7F89480913802EE
:101C000090913902A0913A02B0913B0226B5A89B6F
:101C100005C02F3F19F00196A11DB11D3FBFBA2F7E
:101C2000A92F982F8827820F911DA11DB11DBC01DE
:101C3000CD0142E0660F771F881F991F4A95D1F7A3
:101C400008950E94111C2FB7F89460917C05709143
:101C50007D0580917E0590917F052FBF08951F928D
:101C60000F920FB60F9211242F933F938F939F9350
:101C7000AF93BF9380917C0590917D05A0917E05E7
:101C8000B0917F0530917B0523E0230F2D3720F4A1
:101C90000196A11DB11D05C026E8230F0296A11DC6
:101CA000B11D20937B0580937C0590937D05A093C7
:101CB0007E05B0937F058091380290913902A09102
:101CC0003A02B0913B020196A11DB11D80933802EA
:101CD00090933902A0933A02B0933B02BF91AF9127
:101CE0009F918F913F912F910F900FBE0F901F905A
:101CF00018950895CF92DF92EF92FF920F931F9362
:101D0000CF93DF936C017A018B01C0E0D0E0CE1558
:101D1000DF0581F0D8016D918D01D601ED91FC9127
:101D20000190F081E02DC6010995892B11F02196D3
:101D3000EECF7E01C701DF91CF911F910F91FF90F0
:101D4000EF90DF90CF900895FC01538D448D252FA7
:101D500030E0842F90E0821B930B541710F0CF9645
:101D6000089501970895FC01918D828D981761F077
:101D7000828DDF01A80FB11D5D968C91928D9F5FC2
:101D80009F73928F90E008958FEF9FEF0895FC016D
:101D9000918D828D981731F0828DE80FF11D858D20
:101DA00090E008958FEF9FEF0895FC01918D228DB3
:101DB000892F90E0805C9F4F821B91098F73992738
:101DC00008958EE394E00E94D50E21E0892B09F45A
:101DD00020E0822F0895FC01848DDF01A80FB11D42
:101DE000A35ABF4F2C91848D90E001968F73992751
:101DF000848FA689B7892C93A089B1898C9183702F
:101E000080648C93938D848D981306C00288F38927
:101E1000E02D80818F7D80830895EF92FF920F9354
:101E20001F93CF93DF93EC0181E0888F9B8D8C8D86
:101E3000981305C0E889F989808185FD26C0F62EB2
:101E40000B8D10E00F5F1F4F0F731127E02E8C8D4D
:101E5000E8120CC00FB607FCFACFE889F989808137
:101E600085FFF5CFCE010E94EB0EF1CF8B8DFE01E9
:101E7000E80FF11DE35AFF4FF0829FB7F8940B8FE4
:101E8000EA89FB89808180620AC09FB7F894EE8955
:101E9000FF896083E889F989808183708064808309
:101EA0009FBF81E090E0DF91CF911F910F91FF9054
:101EB000EF900895CF93DF93EC01888D8823C9F0CC
:101EC000EA89FB89808185FD05C0A889B9898C9143
:101ED00086FD0FC00FB607FCF5CF808185FFF2CFDE
:101EE000A889B9898C9185FFEDCFCE010E94EB0EB8
:101EF000E7CFDF91CF91089580E090E0892B29F022
:101F00000E94E10E81110C9400000895CF93DF939D
:101F10001F92CDB7DEB7698341E050E0BE016F5F2D
:101F20007F4F0E9466050F90DF91CF9108950F9328
:101F30001F93CF93DF938C01EB01FC018081918192
:101F4000009739F06881798161157105A1F40E94CB
:101F5000C21A88819981F801918380838A819B814B
:101F6000938382838C819D819583848319821882D7
:101F70001B821A820FC0F801428153812C813D815E
:101F80004217530720F30E94401C8C819D81F80169
:101F9000958384831D821C82DF91CF911F910F91C5
:101FA00008950F931F93CF93DF93EC01888199815C
:101FB000009729F02A813B812617370788F48B0187
:101FC0006F5F7F4F0E944B1B009761F0998388835E
:101FD0001B830A832C813D81232B11F4FC01108289
:101FE00081E001C080E0DF91CF911F910F910895B2
:101FF000EF92FF920F931F93CF93DF93EC017B013E
:102000008A01BA010E94D10F2881398181110DC046
:102010002115310519F0C9010E94C21A19821882CE
:102020001D821C821B821A8206C01D830C83B7018D
:10203000C9010E94401CCE01DF91CF911F910F91E9
:10204000FF90EF900895FC01808191810C94C21A59
:10205000FC01118210821382128215821482611592
:10206000710551F0FB0101900020E9F73197AF01B4
:10207000461B570B0C94F80F08956115710579F004
:10208000FB0101900020E9F73197AF01461B570B88
:10209000DC01ED91FC910280F381E02D099480E058
:1020A00090E008951F920F920FB60F9211242F9374
:1020B0003F934F935F936F937F938F939F93AF93D0
:1020C000BF93EF93FF938EE394E00E94EB0EFF919A
:1020D000EF91BF91AF919F918F917F916F915F91A0
:1020E0004F913F912F910F900FBE0F901F90189519
:1020F0001F920F920FB60F9211242F938F939F93DD
:10210000EF93FF93E0914E04F0914F048081E091B2
:102110005404F091550482FD12C0908180915704BF
:102120008F5F8F7320915804821751F0E09157040C
:10213000F0E0E25CFB4F958F8093570401C08081F3
:10214000FF91EF919F918F912F910F900FBE0F9064
:102150001F901895809180058823A9F14091000176
:102160005091010160910201709103012CE332E072
:1021700080913C0490913D040E94FA04811102C0B8
:1021800080E008954091810550918205609183051A
:1021900070918405411551056105710591F02CE39D
:1021A00032E080913C0490913D040E94FA0488231F
:1021B00039F31092810510928205109283051092D6
:1021C00084051092800581E008958F929F92AF92CE
:1021D000BF92EF92FF920F931F93CF934B015C013D
:1021E000C42F8091000190910101A0910201B09152
:1021F000030188159905AA05BB0501F10E94AA10E3
:10220000811102C080E020C08CE3E82E82E0F82E2D
:1022100000E012E020E030E0B501A40180913C0430
:1022200090913D040E946604882361F3809200012E
:1022300090920101A0920201B09203018091800569
:10224000C82BC093800581E0CF911F910F91FF9023
:10225000EF90BF90AF909F908F9008954F925F92B4
:102260006F927F928F929F92AF92BF92CF92DF92A6
:10227000EF92FF920F931F93CF93DF93EC014230C5
:1022800051056105710510F480E078C089859A8553
:10229000AB85BC850196A11DB11D84179507A607C6
:1022A000B70790F3CB88DC88ED88FE888F89803172
:1022B00029F4BB27A72F962F852F09C0DB01CA0160
:1022C000E7E0B695A79597958795EA95D1F74801E8
:1022D00059012A013B01C80ED91EEA1EFB1E80913E
:1022E000000190910101A0910201B0910301C81673
:1022F000D906EA06FB0681F48F898031A9F4B3017F
:10230000A201552766277727440F551FFA01E45C81
:10231000FD4F9182808219C040E0C701B6010E9442
:10232000E5108111E9CFB0CFB301A2014F77552756
:1023300066277727440F551F440F551FFA01E45CA9
:10234000FD4F80829182A282B3828091800581605C
:10235000809380058A89823080F08D819E81AF8153
:10236000B885C80ED91EEA1EFB1EC0928105D09208
:102370008205E0928305F092840581E0DF91CF91A0
:102380001F910F91FF90EF90DF90CF90BF90AF9093
:102390009F908F907F906F905F904F9008958F9255
:1023A0009F92AF92BF92CF92DF92EF92FF920F93E4
:1023B0001F93CF93DF93FC0181859285A385B4851C
:1023C0000196A11DB11D84179507A607B70710F444
:1023D00080E05BC083889488A588B688878980312F
:1023E00029F4BB27A72F962F852F09C0DB01CA012F
:1023F000C7E0B695A79597958795CA95D1F7E90156
:102400006A017B018F01BC01CD01680D791D8A1D18
:102410009B1D8090000190900101A0900201B0905E
:102420000301681579058A059B0591F4F8018789F0
:102430008031A1F4DD24EE24FF24C601880F991F0A
:10244000FC01E45CFD4F80819181A0E0B0E018C008
:1024500040E00E94E5108111E9CFBACFE894C7F8B7
:10246000DD24EE24FF24C601880F991F880F991FD1
:10247000FC01E45CFD4F80819181A281B381BF703A
:1024800088839983AA83BB8381E0DF91CF911F91D9
:102490000F91FF90EF90DF90CF90BF90AF909F9003
:1024A0008F9008952F923F924F925F926F927F92FA
:1024B0008F929F92AF92BF92CF92DF92EF92FF9254
:1024C0000F931F93CF93DF93CDB7DEB72B970FB644
:1024D000F894DEBF0FBECDBF7C01FE013196CE0168
:1024E0000C966F0130E23193E817F907E1F7DA0152
:1024F00030E087E09D91992331F19E3231F48A30AA
:1025000009F46BC138E08AE0F5CFE8EBF0E04491E4
:10251000442321F031969413FACF5FC1831708F456
:102520005CC14FED490F4E3508F057C141E0430FF4
:10253000F601E30FF11D3FE9390F3A3108F49052EB
:102540009083342FD7CF8981803209F446C1322E4F
:102550008B01DB015B968D919C915C97F701948FC9
:10256000838F16961D921D921D921C921997FB0146
:102570001286138614861586B12CF8018285938500
:10258000A485B5854389548965897689841795071B
:10259000A607B70708F05BC025E0B695A795979505
:1025A00087952A95D1F7F82FFF70AF2ED801159691
:1025B0008C91823008F411C1C8010E94620797FD16
:1025C0000CC1F80182859385A485B5854F96A11D20
:1025D000B11D82879387A487B587F0E2AF9EB001D3
:1025E0001124645C7D4F6115710509F4F6C0DB01AF
:1025F0008C91882319F0853EC1F4F1C0B1100EC052
:10260000F701A28A8091000190910101A09102013D
:10261000B091030186879787A08BB18BDB018C91EA
:10262000882399F0BB24B394A8CF4BE050E0C601B7
:102630000E94161C892B09F0A0CF832D8073803354
:1026400009F4CBC0432D6A2DC4C0BB24B394832DA1
:102650008271823109F0C1C0BB20C1F0F7016685EB
:1026600077858089918941E00E94E510882309F4EB
:10267000B4C0D70152968C91B0E28B9FC001112457
:10268000845C9D4F009709F078C0A7C0F801858150
:10269000823009F4A2C0C8010E94AB02882309F469
:1026A0009CC0D8015B96ED91FC915C9716968D903D
:1026B0009D90AD90BC901997B2E08B1A9108A1083B
:1026C000B108058404C0880C991CAA1CBB1C0A9480
:1026D000D2F786859785A089B189880E991EAA1E92
:1026E000BB1E2480E1E08E1A9108A108B1082220C7
:1026F00009F124013501420C511C611C711C0E941E
:10270000AA10882309F469C0ECE3F2E0119224E0F6
:10271000EC33F207D9F74092000150920101609228
:102720000201709203018091800581608093800591
:102730002A94DDCFD8015B96ED91FC915C9780E007
:1027400092E0A0E0B0E0058404C0880F991FAA1FA2
:10275000BB1F0A94D2F7F8014389548965897689A9
:10276000840F951FA61FB71F838B948BA58BB68BE9
:10277000D70152961C928CE392E020E2FC01119268
:102780002A95E9F72BE0F601DC0101900D922A95DC
:10279000E1F721E238E2DC0151963C932E93509709
:1027A00040E058E01F965C934E931E9753963C93DF
:1027B0002E93529759963C932E93589757965C9325
:1027C0004E9356970E94AA10882339F0432DF701A3
:1027D0006289C7010E94A20105C080E003C0B11058
:1027E00021CF0ECF2B960FB6F894DEBF0FBECDBF14
:1027F000DF91CF911F910F91FF90EF90DF90CF90DD
:10280000BF90AF909F908F907F906F905F904F9010
:102810003F902F90089586E295E00E9423108CE26D
:1028200095E00E94231082E395E00E94231088E344
:1028300095E00E9423108EE395E00C942310EEE3C4
:10284000F4E01382128288EE93E0A0E0B0E084838B
:102850009583A683B7832FE031E03183208325EC75
:1028600030E03587248724EC30E03787268720EC5A
:1028700030E0318B208B21EC30E0338B228B22EC4B
:1028800030E0358B248B26EC30E0378B268B118E95
:10289000128E138E148EEBEDF4E020E5208311826E
:1028A000EDEDF4E0158216821186138642E050E0C9
:1028B00060E070E0448755876687778713A215A686
:1028C00014A621E231E033A722A717A6EFE5F5E031
:1028D0001382128284839583A683B78329E331E030
:1028E00031832083128E118E1486E4E4F5E0138286
:1028F000128284839583A683B78331832083128ECB
:10290000118E148669E471E08EE395E00E94281030
:1029100069E471E088E395E00E94281069E471E0C1
:1029200082E395E00E94281069E471E08CE295E072
:102930000E94281069E471E086E295E00C9428106A
:10294000CF93DF93CDB7DEB7CF50D1400FB6F89419
:10295000DEBF0FBECDBF789484B5826084BD84B5E0
:10296000816084BD85B5826085BD85B5816085BD8A
:1029700080916E00816080936E0010928100809142
:1029800081008260809381008091810081608093CA
:102990008100809180008160809380008091B100EF
:1029A00084608093B1008091B00081608093B0001A
:1029B00080917A00846080937A0080917A008260AE
:1029C00080937A0080917A00816080937A00809170
:1029D0007A00806880937A001092C100E0914E04E2
:1029E000F0914F0482E08083E0914A04F0914B041F
:1029F0001082E0914C04F0914D048FEC8083109292
:102A00005604E0915204F091530486E08083E091F3
:102A10005004F0915104808180618083E0915004E2
:102A2000F0915104808188608083E0915004F0919E
:102A30005104808180688083E0915004F0915104BA
:102A400080818F7D808360E080E00E94A80C6CE430
:102A500071E08EE394E00E943D108AE00E94E40C55
:102A6000811105C084E691E00E94EC09FFCF8BE75D
:102A700091E00E94EC090E94FC0D4B015C0190ED7D
:102A8000C92E97E0D92EE12CF12C0E94FC0DDC011F
:102A9000CB0188199909AA09BB09883E9340A10571
:102AA000B10598F321E0C21AD108E108F10888EED7
:102AB000880E83E0981EA11CB11CC114D104E1044E
:102AC000F10419F78AE00E94E40C811103C080E947
:102AD00091E019C041E06CE971E0CE0101960E94DD
:102AE000250BBE016F5F7F4F8FE595E00E94370A8F
:102AF000E0917805F0917905309719F08581811181
:102B000004C084EA91E00E94EC0981E2882E81E011
:102B1000982E3401CE0101966C018EE394E00E9460
:102B2000D50E892B09F46DC28FEA91E00E94EC0961
:102B300069E471E0C6010E9428100E94270C97FDED
:102B400022C0C753DF4F8883C95CD040C653DF4FD4
:102B50001882CA5CD0400D811E810F5F1F4FB801E3
:102B6000C6010E94D10F882341F329813A818D81CA
:102B70009E81BE0167537F4F820F931F0E94401CAE
:102B80001E830D83DACFB60188E395E00E94970F8C
:102B9000C6010E942310760100E010E08FE595E069
:102BA0000E944B0897FF2DC00115110509F42CC296
:102BB000F601E00FF11F10824AE050E0BE016D5FA8
:102BC0007E4FC6010E941718AB01BC01CE0187538E
:102BD0009F4F0E94FF09BE0167537F4F82E395E03C
:102BE0000E94970FCE0187539F4F0E942310CD5F05
:102BF000DE4F88819981C350D140C816D906C1F4EF
:102C000003C28A309105A1F2F70181937F010F5F22
:102C10001F4F083C110511F6F7C1CF010196CD5F9A
:102C2000DE4F99838883C350D14080818C3249F034
:102C3000CD5FDE4FE881F981C350D14080818111A1
:102C4000ECCF4AE050E0BE016A517F4FCD5FDE4FCE
:102C500088819981C350D1400E941718AB01BC01F3
:102C6000CE0187539F4F0E94FF09BE0167537F4FDC
:102C70008CE295E00E94970FCE0187539F4F0E94F0
:102C800023100BC0CF010196CD5FDE4F998388835F
:102C9000C350D14080818C3249F0CD5FDE4FE88156
:102CA000F981C350D14080818111ECCF4AE050E0DE
:102CB000BE016A517F4FCD5FDE4F88819981C3503D
:102CC000D1400E941718AB01BC01CE0187539F4F22
:102CD0000E94FF09BE0167537F4F86E295E00E9484
:102CE000970FCE0187539F4F0E9423100BC0CF0137
:102CF0000196CD5FDE4F99838883C350D140808198
:102D00008C3249F0CD5FDE4FE881F981C350D1406C
:102D100080818111ECCFAE014A515F4F6DEB71E0C4
:102D2000CD5FDE4F88819981C350D1400E94361912
:102D3000BC01CE0187539F4F0E9428105524539405
:102D4000CA51DF4F28813981C65ED040CD5FDE4F4A
:102D500088819981C350D1402817390709F4512C33
:102D6000CE0187539F4F0E942310552009F44CC178
:102D700040913605509137056091320570913305C9
:102D80008EE394E00E947A0E67E471E08EE394E0B3
:102D90000E943D1020913C0530913D058091360503
:102DA000909137052817390709F0F5CE809138053D
:102DB000909139056091320570913305009719F0B3
:102DC00061157105A1F46115710549F0232BA1F07E
:102DD000FB01808190E09195819591090AC000974F
:102DE00059F0232B49F0FC01808190E002C00E9441
:102DF000371C892B09F0CFCE8FEB91E00E94EC09B4
:102E0000C851DF4F19821882C85ED040CA51DF4FC7
:102E100099828882C65ED040C551DF4F1882CB5E52
:102E2000D040C553DF4F19821882CB5CD040C753C6
:102E3000DF4F99828882C95CD040C253DF4F18822D
:102E4000CE5CD040E12CF12CCE018A519F4F5C0129
:102E500007E015E0C701F701E253FE4F20812F3252
:102E600009F40196DC01A253BE4FFE01ED5FFE4F57
:102E700020E030E04D914F3249F0442339F02F5F8C
:102E80003F4F019641932C303105A1F7E3E0F1E08B
:102E9000EC0FFD1FE20FF31F1082FC01E253FE4F07
:102EA00020812F3209F401967C01FC01E253FE4F90
:102EB00040801C821B827A8269821E8221E0AE01E0
:102EC0004D5F5E4FB801C6010E945212882331F057
:102ED000C6010E949F02411007C024C095E0073040
:102EE000190709F0A0C088C0F5018581811197C03C
:102EF00021E0AE014D5F5E4FB801C5010E94521244
:102F0000482EF5E007301F0709F483C0C8010E946E
:102F10009F02442009F470C0902F812F8501A92EB3
:102F2000B82E98CF25E00730120719F0C8010E948B
:102F30009F02552009F460C086ED91E00E94EC09E3
:102F400047E16EEC71E0C6010E94250BB60184E4F6
:102F500095E00E94370AE0915D05F0915E0530979B
:102F600021F081E09581911101C080E019A2805D7E
:102F700088A3BE01605E7F4F8EE394E00E943D1007
:102F800067E471E08EE394E00E943D10E0915D05FE
:102F9000F0915E05309761F18581882349F187EED4
:102FA00091E00E94EC0940913C0550913D056091F3
:102FB00038057091390584E495E00E94F50667E4D0
:102FC00071E084E495E00E943D1080915D05909150
:102FD0005E05009789F00E949F0280915D059091A7
:102FE0005E050E94C21A10925E0510925D0504C033
:102FF00080E092E00E94EC0987E192E00E94EC09F7
:103000008CCD0E947C0F81CD84E292E00E94EC097D
:1030100081CD882389F38E0107531F4F7DCF85E033
:103020000730180749F3C8010E949F02E5CFA0E0CE
:10303000B0E0EDE1F8E10C94DF195C016B017A017D
:103040006115710519F0FB0191838083E114F1048E
:1030500029F0C7010297839708F0E5C0E5012196A2
:10306000F5011081812F90E00E942D19892B11F01C
:103070005E01F4CF1D3229F42196F501118101E0A2
:1030800007C01B3221F4E5012296F501118100E011
:10309000E114F10409F1F0E1EF16F10429F43FC065
:1030A00010E3E114F10421F128E0E216F10401F14A
:1030B00054F4E2E0EE16F10421F5812C912CA12CC0
:1030C000B0E4BB2E3EC0FAE0EF16F10439F020E187
:1030D000E216F104B1F430C0103319F1FAE0EF2E2A
:1030E000F12CACEC8A2E982CA82CACE0BA2E29C07E
:1030F00078E0E72EF12C812C912CA12CE0E1BE2E62
:1031000020C060E070E080E090E897010F2C000C98
:10311000440B550B0E94B11949015A0112C01033DA
:1031200059F488818F7D883509F0BACF19812296AC
:10313000026080E1E82EF12C812C912CA12C68E01A
:10314000B62E40E060E070E0CB0127010F2C000CB0
:1031500066087708FE0150ED352E310E29E0231563
:1031600070F42FEB210F2A3118F439EC332E06C0FE
:103170002FE9210F2A3118F529EA322E310E232D9D
:1031800030E02E153F05DCF447FD16C08616970685
:10319000A806B90670F0A30192010E94A119630D5F
:1031A000711D811D911D61307105810520E8920717
:1031B00010F04FEF01C041E021961081CBCF202FBE
:1031C0002170C114D10471F0442329F02197F60134
:1031D000D183C08307C001FF19C02297F601D183B4
:1031E000C08314C047FF12C0222329F060E070E0C2
:1031F00080E090E804C06FEF7FEF8FEF9FE722E25F
:1032000030E0309386052093850509C0222381F0A4
:1032100090958095709561957F4F8F4F9F4F462F6A
:10322000372F282F12C040E030E020E090E00DC0A2
:1032300097FFF5CF82E290E0909386058093850515
:103240006FEF7FEF8FEF9FE7EACF642F732F822F0F
:10325000CDB7DEB7E1E10C94FB1991110C948E19F6
:10326000803219F089508550C8F70895FA01A1916C
:10327000B081009719F41097E1F0CD01DC01CD0188
:103280000D90002011F4C00113C0FB0121912223F5
:1032900019F02015D9F7F3CFFB012191201519F46E
:1032A0001E92119606C02223C1F70D900020A1F7AF
:1032B000D001FA01A193B0830895BB272A3051F4BD
:1032C000992342F4BDE290958095709561957F4F6A
:1032D0008F4F9F4F0C946D19BB27FA01A62F6217D1
:1032E000710581059105330B30FB66F0AA27660F47
:1032F000771F881F991FAA1FA21710F0A21B6395A2
:103300003850A9F7A05DAA3308F0A95DA19336F75C
:10331000B111B1931082CA010C9491199927882791
:103320000895DC01FC01672F71917723E1F7329753
:1033300004C07C916D9370836291AE17BF07C8F390
:103340000895DB018F939F930E94D319BF91AF9192
:10335000A29F800D911DA39F900DB29F900D1124EF
:103360000895A1E21A2EAA1BBB1BFD010DC0AA1FC6
:10337000BB1FEE1FFF1FA217B307E407F50720F0DE
:10338000A21BB30BE40BF50B661F771F881F991F59
:103390001A9469F760957095809590959B01AC01A2
:1033A000BD01CF0108950E94151AA59F900DB49FED
:1033B000900DA49F800D911D112408952F923F928E
:1033C0004F925F926F927F928F929F92AF92BF9235
:1033D000CF92DF92EF92FF920F931F93CF93DF93E1
:1033E000CDB7DEB7CA1BDB0B0FB6F894DEBF0FBE3E
:1033F000CDBF09942A88398848885F846E847D848B
:103400008C849B84AA84B984C884DF80EE80FD808C
:103410000C811B81AA81B981CE0FD11D0FB6F89402
:10342000DEBF0FBECDBFED010895A29FB001B39FD7
:10343000C001A39F700D811D1124911DB29F700DBD
:10344000811D1124911D0895EE0FFF1F0590F49129
:10345000E02D09940F931F93CF93DF938230910552
:1034600010F482E090E0E0918905F0918A0520E077
:1034700030E0A0E0B0E0309719F140815181028145
:10348000138148175907C8F08417950769F41097F6
:1034900031F012960C93129713961C9327C0009349
:1034A000890510938A0522C02115310519F04217AC
:1034B000530718F49A01BD01EF01DF01F801DBCFDA
:1034C00021153105F9F0281B390B2430310580F422
:1034D0008A819B816115710521F0FB0193838283B1
:1034E00004C090938A0580938905FE01329644C0FA
:1034F000FE01E20FF31F819391932250310939832A
:1035000028833AC02091870530918805232B41F408
:10351000209106013091070130938805209387059B
:1035200020910401309105012115310541F42DB799
:103530003EB74091080150910901241B350BE091E1
:103540008705F0918805E217F307A0F42E1B3F0BC7
:103550002817390778F0AC014E5F5F4F2417350705
:1035600048F04E0F5F1F5093880540938705819365
:10357000919302C0E0E0F0E0CF01DF91CF911F9185
:103580000F910895CF93DF93009709F481C0FC0158
:10359000329713821282A0918905B0918A05109703
:1035A00081F420813181820F931F20918705309112
:1035B00088052817390751F5F0938805E0938705AA
:1035C00067C0ED0120E030E0CE17DF0740F44A810C
:1035D0005B819E0141155105F1F0EA01F5CFD383DE
:1035E000C28340815181840F951FC817D90759F4B0
:1035F00088819981840F951F0296918380838A81A7
:103600009B81938382832115310529F4F0938A05E8
:10361000E09389053DC0E901FB83EA834991599113
:10362000C40FD51FEC17FD0761F480819181840FD1
:10363000951F0296E90199838883828193819B83F8
:103640008A83E0E0F0E012968D919C9113970097A9
:1036500019F0FD01DC01F7CF8D919C9111979D012F
:103660002E5F3F4F820F931F209187053091880571
:103670002817390769F4309729F410928A051092B7
:10368000890502C013821282B0938805A093870532
:10369000DF91CF910895A0E0B0E0E1E5FBE10C946B
:1036A000E219EC01009721F4CB010E942A1AB4C060
:1036B000FC01E60FF71F9C0122503109E217F307C6
:1036C00008F4A8C0D9010D911C911197061717078E
:1036D000B0F00530110508F49BC0C80104978617A7
:1036E000970708F495C002501109061B170B0193A8
:1036F00011936D937C93CF010E94C21A89C05B0124
:10370000A01AB10A4C01800E911EA0918905B091BA
:103710008A05612C712CE12CF12C109709F446C01C
:103720008D919C911197A815B905B1F56C0142E0F6
:10373000C40ED11CCA14DB0478F14C018A189B0812
:10374000640142E0C40ED11C1296BC9012971396ED
:10375000AC91B5E0CB16D10440F0B282A383918244
:103760008082D9016D937C9309C00E5F1F4F800F3B
:10377000911FF90191838083EB2DFA2FE114F1045D
:1037800031F0D7011396FC93EE93129741C0F0935A
:103790008A05E09389053CC06816790608F43C0167
:1037A0007D0112960D90BC91A02DB7CF8091870519
:1037B0009091880588169906E1F466167706C8F494
:1037C0008091040190910501009741F48DB79EB757
:1037D0004091080150910901841B950BE817F907E6
:1037E000C8F4F0938805E0938705F901718360833D
:1037F0000FC0CB010E942A1A7C01009759F0A80142
:10380000BE010E94231CCE010E94C21AC70104C03F
:10381000CE0102C080E090E0CDB7DEB7EEE00C94C0
:10382000FE1981E090E0F8940C94561CFB01DC0139
:1038300004C08D910190801921F441505040C8F787
:10384000881B990B0895FB01DC0102C001900D92C9
:1038500041505040D8F70895FC018191861721F01E
:103860008823D9F7992708953197CF010895FB014F
:10387000DC018D91019080190110D9F3990B089505
:10388000FB01DC0101900D920020E1F70895FB019E
:10389000DC014150504048F001900D920020C9F7E2
:1038A00001C01D9241505040E0F7089510E0C5E678
:1038B000D0E004C0FE010E94241A2196C636D1072A
:0638C000C9F7F894FFCFE8
:1038C600FFFFFFFF00008B05800000000000000DD9
:1038D6000F7A0EA40E5A0FD50EB30EC70E000000B7
:1038E60000860F7A0EC700790E00000000210E7ABE
:1038F6000EC700790E00000000B100F506C70003F0
:103906000190004B0855080D0A002F00496E697496
:1039160069616C697A696E672053442063617264D9
:103926002E2E2E00696E697469616C697A617469FC
:103936006F6E206661696C65642100696E697469E1
:10394600616C697A6174696F6E20646F6E652E00B2
:10395600626567696E206572726F72006770732E9A
:10396600637376006F70656E206572726F720069A0
:103976006E207768696C65206C6F6F70002C00692B
:103986006E736964652073746F72652829006477A5
:10399600742E6373760066696C6520666F756E6457
:1039A60020696E2053440066696C65206F70656EF1
:1039B6006564207375636365737366756C6C7900F3
:1039C6006572726F72206F70656E696E67206373C1
:1039D600762066696C65006D6174636820666F7534
:1039E6006E6421006E6F206D6174636820666F756A
:0439F6006E640000FB
:00000001FF
