:100000000C9466000C948E000C948E000C948E0060
:100010000C948E000C948E000C948E000C948E0028
:100020000C948E000C948E000C948E000C948E0018
:100030000C948E000C948E000C948E000C948E0008
:100040000C9418110C948E000C94010A0C94DB098A
:100050000C948E000C948E000C948E000C948E00E8
:100060000C948E000C948E007C3C3E5E2B3D3F2F0A
:100070005B5D3B2C2A225C0000000000240027006E
:100080002A0000000000250028002B0000000008C6
:10009000000201000003040700000000000000004F
:1000A000040404040404040402020202020203031E
:1000B0000303030301020408102040800102040826
:1000C0001020010204081020E914621111241FBE3F
:1000D000CFEFD8E0DEBFCDBF25E0AAECB1E001C094
:1000E0001D92A230B207E1F711E0A0E0B1E0EEEC22
:1000F000FFE202C005900D92AA3CB107D9F710E0CB
:10010000C5E6D0E004C02197FE010E94BC15C436AC
:10011000D107C9F70E946E110C94DA170C940000F5
:10012000DC015996ED91FC915A973097B9F083898B
:100130009489A589B6894285538564857585841B14
:10014000950BA60BB70B811520E89207A105B10509
:1001500038F08FEF9FE7A0E0B0E0089580E090E0F6
:100160000895CF93DF931F92CDB7DEB76983DC018B
:10017000ED91FC910280F381E02D41E050E0BE0161
:100180006F5F7F4F09950F90DF91CF91089580E0C9
:1001900090E00895CF93DF93EC018D81882379F16E
:1001A0008C8187FF28C06E857F858889998941E089
:1001B0000E946E0A882319F1EA8980E2E89FF00123
:1001C0001124EE52FE4F3097D1F08D81823040F4F1
:1001D0008B899C89AD89BE89848F958FA68FB78FB7
:1001E0008F89988DA98DBA8D938F828FB58BA48BB3
:1001F0008C818F778C83DF91CF910C94330A80E0D0
:10020000DF91CF910895FC01818D928D009711F0BF
:100210000C94CA0008958F929F92AF92BF92CF9292
:10022000DF92EF92FF920F931F93CF93DF93EC0136
:100230008D81811102C080E078C00B891C892D89D5
:100240003E890417150726073707A8F36A017B01C3
:10025000823029F4CA86DB86EC86FD860DC0C11487
:10026000D104E104F10451F41E821F82188619861C
:100270001A861B861C861D8681E057C08A849B8453
:10028000AC84BD84EB8DFC8D258530E0275F3F4F2E
:10029000B501A4014150510961097109022E04C040
:1002A00076956795579547950A94D2F7D701C60179
:1002B0000197A109B10904C0B695A79597958795AF
:1002C0002A95D2F784179507A607B70720F0892843
:1002D0008A288B2871F44F89588D698D7A8D4E83C9
:1002E0005F83688779874C015D018E010A5F1F4F2C
:1002F00016C0841B950BA60BB70BF5CF4E815F8103
:100300006885798598018B8D9C8D0E94580B91E0B2
:10031000891A9108A108B108882309F48CCF8114A7
:100320009104A104B10451F795CFDF91CF911F91B2
:100330000F91FF90EF90DF90CF90BF90AF909F9084
:100340008F9008958F929F92AF92BF92CF92DF923B
:10035000EF92FF920F931F93CF93DF9300D000D0C3
:10036000CDB7DEB77C0180E2689FF0011124EE5228
:10037000FE4F9385917121F0842F827409F08FC014
:10038000142FD70152966C935297409100015091CF
:10039000010160910201709103011E964D935D93DE
:1003A0006D937C9351974489558960E070E0BA0160
:1003B00055274427828D938DA0E0B0E0482B592B20
:1003C0006A2B7B2BD70157964D935D936D937C934E
:1003D0005A978385887159F4848D958DA68DB78D34
:1003E000F701838B948BA58BB68B81E012C0803193
:1003F00009F055C097012D5E3F4FD7015B968D9157
:100400009C915C970E94F50D882309F448C084E014
:10041000F7018583812F8F70D70114968C931497E1
:10042000F70116821782108611861A961D921D9268
:100430001D921C921D9716FF34C015968C91813029
:1004400071F511FF2CC0F7014389548965897689BC
:10045000452B462B472B09F461C040E050E0BA0120
:10046000C7010E940B018823D1F0F7018788908C87
:10047000A18CB28CC38CD48C82E090E0A0E0B0E080
:10048000F60180839183A283B3839E012F5F3F4F48
:10049000B501A401C6010E94580B811104C080E07F
:1004A0003DC081E03BC000E010E09801B501A4012F
:1004B000C6010E94B70A882391F389809A80AB8095
:1004C000BC80D60157968C91803129F088EF9FEF40
:1004D000AFEFBFE004C088EF9FEFA0E0B0E0881668
:1004E0009906AA06BB0688F2D70157961D921D925F
:1004F0001D921C925A97F701138A148A158A168A3C
:10050000848180688483C7010E94CA00882339F2ED
:1005100040E050E0BA01C7010E940B010F900F901C
:100520000F900F90DF91CF911F910F91FF90EF905F
:10053000DF90CF90BF90AF909F908F900895CF9312
:10054000DF93EC010E94CA00882311F01D8281E034
:10055000DF91CF9108953F924F925F926F927F9279
:100560008F929F92AF92BF92CF92DF92EF92FF92C3
:100570000F931F93CF93DF93CDB7DEB72C970FB6B2
:10058000F894DEBF0FBECDBF5C01DC015B968D90A1
:100590009C905C971696CD90DD90ED90FC9019970D
:1005A000C114D104E104F10439F0BFEFCB1ADB0A26
:1005B000EB0AFB0A312C07C0F401C080D180E28035
:1005C000F38033243394F40181859285A385B48527
:1005D0009C01AD012F5F3F4F4F4F5F4F29873A87F7
:1005E0004B875C87260137011D821E821F82188679
:1005F000F40181859285A385B4852D813E814F814B
:100600005885281739074A075B0708F063C08985B2
:100610009A85AB85BC858C159D05AE05BF0550F44C
:1006200082E0C82ED12CE12CF12C92E0492E512CE5
:10063000612C712C9E012F5F3F4FB701A601C401B1
:100640000E94580B882309F445C089819A81AB81A7
:10065000BC81892B8A2B8B2B41F0260137019FEF20
:10066000491A590A690A790A05C0C414D504E6046E
:10067000F70491F02D813E814F8158852F5F3F4FC8
:100680004F4F5F4F2D833E834F8358873FEFC31AF1
:10069000D30AE30AF30AACCF0FEF1FEF2FEF3FE0CF
:1006A000B301A201C4010E94B70A882399F0D501C1
:1006B00016964D915D916D917C911997411551055B
:1006C0006105710549F093018201C4010E94B70AD6
:1006D000811102C080E02AC0D50116964D925D922C
:1006E0006D927C921997332051F0D301C20101968B
:1006F000A11DB11DF40180839183A283B383F50111
:100700008789908DA18DB28D892B8A2B8B2B69F4D3
:10071000D50157964D925D926D927C925A971496A0
:100720008C911497806814968C9381E02C960FB668
:10073000F894DEBF0FBECDBFDF91CF911F910F9117
:10074000FF90EF90DF90CF90BF90AF909F908F90F1
:100750007F906F905F904F903F9008958FB7F8947F
:100760008091CB018FBF089561E0FC0184810E94DC
:1007700015108091CA0181111092CA0108958EBD91
:1007800000000DB407FEFDCF8EB508958FEF0C94D9
:10079000BF030F931F93CF93DF93EB010E94D810F9
:1007A0008B010E94C6038F3F49F00E94D810601B46
:1007B000710B6C177D07A8F380E001C081E0DF9129
:1007C000CF911F910F910895CF93DF93EC018E810C
:1007D000882389F08F8198859C012F5F3F4F388750
:1007E0002F838230924018F40E94C603F3CFCE01CB
:1007F0000E94B4031E82DF91CF9108958CBD9DBDF0
:100800000895CF93DF93EC018091CA01811109C053
:1008100081E08093CA0180917104909172040E94DA
:10082000FE0360E08C81DF91CF910C9415108F92C4
:100830009F92AF92BF92FF920F931F93CF93DF933C
:10084000EC01F62E49015A010E94E403CE010E94F8
:1008500001046CE271E0CE010E94C9038F2D806417
:100860000E94BF0308E110E0D501C401002E04C0BE
:10087000B695A795979587950A94D2F70E94BF03DE
:1008800008501109083F8FEF180771F7FF2029F072
:1008900088E0F81204C087E803C085E901C08FEF43
:1008A0000E94BF0310E00E94C6038A8787FF04C02E
:1008B0001F3F11F01F5FF7CFDF91CF911F910F9175
:1008C000FF90BF90AF909F908F900895AF92BF928E
:1008D000CF92DF92EF92FF920F931F93CF93DF930C
:1008E000EC016901C801820F931F8130924008F02A
:1008F00070C08E81882371F088819981AA81BB8123
:1009000084179507A607B70729F48F819885C8161D
:10091000D906B0F5488359836A837B838B858330FE
:1009200039F089E0440F551F661F771F8A95D1F76C
:100930009A01AB0161E1CE010E941704882319F0EE
:1009400083E08D8346C00E94D8105B010E94C603DD
:100950008A878F3F49F40E94D8106A197B096D324B
:100960007140A0F38FE003C08E3F31F08DE08D83A6
:10097000CE010E94B4032DC018861F8281E08E83B1
:100980008F8198858C159D0540F40E94C6038F8148
:100990009885019698878F83F3CF6701E00EF11E4B
:1009A000EC14FD0431F00E94C603F60181936F013F
:1009B000F7CF8F819885080F191F18870F838985B6
:1009C000882319F00115124048F0CE010E94E4037B
:1009D00005C0CE010E94B40380E001C081E0DF9138
:1009E000CF911F910F91FF90EF90DF90CF90BF902C
:1009F000AF900895EF92FF920F931F93CF93DF93E1
:100A0000EC017901411551056105710511F482E18F
:100A10003CC08B85833039F089E0440F551F661F39
:100A2000771F8A95D1F79A01AB0168E1CE010E9448
:100A30001704882311F084E028C08EEF0E94BF03C2
:100A400087018EEFF81AF80181918F010E94BF0390
:100A5000E016F106C1F78FEF0E94BF038FEF0E94EF
:100A6000BF030E94C6038A878F71853031F081E110
:100A70008D83CE010E94B40309C068E572E0CE0107
:100A80000E94C903811107C085E18D83CE010E94B8
:100A9000B40380E014C020E030E0A9016DE0CE0195
:100AA0000E941704811109C00E94C603811105C06C
:100AB000CE010E94B40381E002C084E1E6CFDF9161
:100AC000CF911F910F91FF90EF9008952F923F9239
:100AD0004F925F926F927F928F929F92AF92BF924E
:100AE000CF92DF92EF92FF920F931F93CF93DF93FA
:100AF00000D000D0CDB7DEB78C015B011A01DC015C
:100B000015968C9115978130C9F414968C9181FFBC
:100B100015C082FF1DC0F801438954896589768913
:100B200082859385A485B58584179507A607B707A1
:100B300079F0C8010E940B0181110AC081E090E0A8
:100B4000D80113969C938E93129780E090E036C163
:100B5000610183C05B968D919C915C97FC017480D0
:100B60002FEF270D2A013B0139E0769467945794C3
:100B700047943A95D1F7722E74207A01F1E0FF2262
:100B8000772009F476C080E092E08E199F09460133
:100B90008C159D0508F44C01D8015B962D913C9174
:100BA0005C9716968D919D910D90BC91A02D02970A
:100BB000A109B109F901058404C0880F991FAA1F72
:100BC000BB1F0A94D2F74685578560897189840FC7
:100BD000951FA61FB71F9C01AD01270D311D411D9B
:100BE000511D29013A01811432E0930609F088C0B1
:100BF0008091000190910101A0910201B091030147
:100C0000481659066A067B0659F48FEF9FEFDC0100
:100C10008093000190930101A0930201B09303011E
:100C20009501B301A2018091D2039091D3030E9458
:100C3000FA04882309F482CF9EEFB91AC818D9089C
:100C4000F80182859385A485B585880D991DA11D20
:100C5000B11D82879387A487B587D8011A964D91D5
:100C60005D916D917C911D97C114D10409F072CFF3
:100C700087C0E114F10409F086CF16964D915D917D
:100C80006D917C911997411551056105710559F4D4
:100C900057968D919D910D90BC91A02D0097A10527
:100CA000B10541F521C09E012F5F3F4F0E94580BB7
:100CB000882309F44BCF89819A81AB81BC81F801EB
:100CC000238D348DF9012789203129F048EF5FEF1A
:100CD0006FEF7FE004C048EF5FEF60E070E08417E3
:100CE0009507A607B70730F0C8010E94AB02811133
:100CF0004ACF24CFF80186839783A087B18743CF5B
:100D0000E114F10429F5D8011A964D915D916D9188
:100D10007C911D9753968D919D910D90BC91A02D26
:100D2000481759076A077B0798F00E94330A8823FF
:100D300009F404CF40920001509201016092020137
:100D4000709203018091CD0181608093CD0108C034
:100D500041E0C301B2010E946E0A882309F4EECE7D
:100D6000D501F701EE52FE4F9F01280D391D2E17B8
:100D70003F0719F08D918193FACFA80CB91C5ECF73
:100D8000F80183899489A589B68984179507A607F0
:100D9000B70738F4438B548B658B768B84818068DE
:100DA0008483F801848183FD02C0C10107C0C801AA
:100DB0000E94CA00882309F4C1CEF7CF0F900F908C
:100DC0000F900F90DF91CF911F910F91FF90EF90B7
:100DD000DF90CF90BF90AF909F908F907F906F905B
:100DE0005F904F903F902F900895CF93DF93EC0149
:100DF000898D9A8D009739F481E090E09B838A83F6
:100E000080E090E00BC0FC01138212820E94660514
:100E1000E98DFA8D22813381232B71F7DF91CF91F8
:100E20000895FC01DB0112968D919C911397938399
:100E3000828380E291E09183808314968C91149751
:100E4000848315968C911597858316964D915D91A7
:100E50006D917C91199746835783608771871A96A5
:100E60004D915D916D917C911D9742875387648769
:100E700075871E964D915D916D917C915197468736
:100E80005787608B718B52968C915297828B5396B9
:100E90004D915D916D917C915697438B548B658BF1
:100EA000768B57964D915D916D917C915A97478BBA
:100EB000508F618F728F5B968D919C915C97948F10
:100EC000838F08954F925F926F927F92AF92BF92FD
:100ED000CF92DF92EF92FF920F931F93CF93DF9306
:100EE0001F92CDB7DEB7FC012581222309F4C1C0D2
:100EF000848180FFBEC083899489A589B689428494
:100F000053846484758484159505A605B70509F492
:100F1000B0C06F015201F1E0BF22D6015B968D9106
:100F20009C915C97B301A20139E07695679557953E
:100F300047953A95D1F7223071F4FC01828D938D5B
:100F4000A48DB58D8A019B01080F191F2A1F3B1F15
:100F5000C901B8014AC0DC0114961C911150142338
:100F6000A114B104F9F411111DC0452846284728E1
:100F700051F4F6018789908DA18DB28D8683978378
:100F8000A087B1870FC0D60116964D915D916D91E6
:100F90007C91199796012A5F3F4F0E94580B882336
:100FA00009F467C0F601238D348D86819781A08571
:100FB000B1850297A109B109AC01BD01F901058410
:100FC00004C0440F551F661F771F0A94D2F7868509
:100FD0009785A089B189840F951FA61FB71FBC01F3
:100FE000CD01610F711D811D911DD60114962C91AB
:100FF00026FF0DC040900001509001016090020159
:1010000070900301461657066806790699F440E089
:101010000E946E0A882369F1F501EE52FE4FDE014F
:1010200011969F012F5F3F4F2E173F0799F0819137
:101030008D93FACFFE0131967F0101E010E095011A
:10104000AB01BC018091D2039091D3030E9466044E
:10105000882379F0F60182859385A485B58501966C
:10106000A11DB11D82879387A487B587898190E0F0
:1010700002C08FEF9FEF0F90DF91CF911F910F91E3
:10108000FF90EF90DF90CF90BF90AF907F906F90E8
:101090005F904F900895FC01818D928D009711F023
:1010A0000C9462078FEF9FEF08950F931F93CF93D8
:1010B000DF93FC01818D928D0097B9F0EF010E94C2
:1010C00062078C010F3F8FEF180791F0898D9A8D81
:1010D000FC0142855385648575854150510961093C
:1010E00071090E940B01C80105C080E090E002C0B8
:1010F0008FEF9FEFDF91CF911F910F9108950E9485
:10110000A9170895CF92DF92EF92FF920F931F934A
:10111000CF93DF936C017A018B01C0E0D0E0CE1554
:10112000DF0581F0D8016D918D01D601ED91FC9123
:101130000190F081E02DC6010995892B11F02196CF
:10114000EECF7E01C701DF91CF911F910F91FF90EC
:10115000EF90DF90CF900895FC01538D448D252FA3
:1011600030E0842F90E0821B930B541710F0CF9641
:10117000089501970895FC01918D828D981761F073
:10118000828DDF01A80FB11D5D968C91928D9F5FBE
:101190009F73928F90E008958FEF9FEF0895FC0169
:1011A000918D828D981731F0828DE80FF11D858D1C
:1011B00090E008958FEF9FEF0895FC01918D228DAF
:1011C000892F90E0805C9F4F821B91098F73992734
:1011D000089584ED93E00E94DD0821E0892B09F455
:1011E00020E0822F0895FC01848DDF01A80FB11D3E
:1011F000A35ABF4F2C91848D90E001968F7399274D
:10120000848FA689B7892C93A089B1898C9183702A
:1012100080648C93938D848D981306C00288F38923
:10122000E02D80818F7D80830895EF92FF920F9350
:101230001F93CF93DF93EC0181E0888F9B8D8C8D82
:10124000981305C0E889F989808185FD26C0F62EAE
:101250000B8D10E00F5F1F4F0F731127E02E8C8D49
:10126000E8120CC00FB607FCFACFE889F989808133
:1012700085FFF5CFCE010E94F308F1CF8B8DFE01E3
:10128000E80FF11DE35AFF4FF0829FB7F8940B8FE0
:10129000EA89FB89808180620AC09FB7F894EE8951
:1012A000FF896083E889F989808183708064808305
:1012B0009FBF81E090E0DF91CF911F910F91FF9050
:1012C000EF900895CF93DF93EC01888D8823C9F0C8
:1012D000EA89FB89808185FD05C0A889B9898C913F
:1012E00086FD0FC00FB607FCF5CF808185FFF2CFDA
:1012F000A889B9898C9185FFEDCFCE010E94F308B2
:10130000E7CFDF91CF91089580E090E0892B29F01D
:101310000E94E90881110C9400000895CF93DF9397
:101320001F92CDB7DEB7698341E050E0BE016F5F29
:101330007F4F0E9466050F90DF91CF9108950F9324
:101340001F93CF93DF93EC0188819981009729F057
:101350002A813B812617370788F48B016F5F7F4F07
:101360000E94E316009761F0998388831B830A83A8
:101370002C813D81232B11F4FC01108281E001C0FE
:1013800080E0DF91CF911F910F9108956115710554
:1013900079F0FB0101900020E9F73197AF01461B7E
:1013A000570BDC01ED91FC910280F381E02D099453
:1013B00080E090E008951F920F920FB60F921124D3
:1013C0002F933F934F935F936F937F938F939F934D
:1013D000AF93BF93EF93FF9384ED93E00E94F308E4
:1013E000FF91EF91BF91AF919F918F917F916F91FD
:1013F0005F914F913F912F910F900FBE0F901F90D3
:1014000018951F920F920FB60F9211242F938F935E
:101410009F93EF93FF93E091E403F091E5038081C4
:10142000E091EA03F091EB0382FD12C0908180917C
:10143000ED038F5F8F732091EE03821751F0E091DF
:10144000ED03F0E0EC52FC4F958F8093ED0301C06B
:101450008081FF91EF919F918F912F910F900FBEFF
:101460000F901F9018958091CD018823A9F140918C
:10147000000150910101609102017091030122ED80
:1014800031E08091D2039091D3030E94FA0481113C
:1014900002C080E008954091CE015091CF0160914B
:1014A000D0017091D101411551056105710591F08F
:1014B00022ED31E08091D2039091D3030E94FA048F
:1014C000882339F31092CE011092CF011092D001EF
:1014D0001092D1011092CD0181E008958F929F92D8
:1014E000AF92BF92EF92FF920F931F93CF934B0156
:1014F0005C01C42F8091000190910101A091020133
:10150000B091030188159905AA05BB0501F10E9458
:10151000330A811102C080E020C082EDE82E81E014
:10152000F82E00E012E020E030E0B501A401809147
:10153000D2039091D3030E946604882361F38092C2
:10154000000190920101A0920201B09203018091EA
:10155000CD01C82BC093CD0181E0CF911F910F9198
:10156000FF90EF90BF90AF909F908F9008954F9213
:101570005F926F927F928F929F92AF92BF92CF9223
:10158000DF92EF92FF920F931F93CF93DF93EC01C3
:10159000423051056105710510F480E078C08985FD
:1015A0009A85AB85BC850196A11DB11D8417950751
:1015B000A607B70790F3CB88DC88ED88FE888F8973
:1015C000803129F4BB27A72F962F852F09C0DB0177
:1015D000CA01E7E0B695A79597958795EA95D1F763
:1015E000480159012A013B01C80ED91EEA1EFB1E03
:1015F0008091000190910101A0910201B09103013D
:10160000C816D906EA06FB0681F48F898031A9F451
:10161000B301A201552766277727440F551FFA010A
:10162000EE52FE4F9182808219C040E0C701B601A0
:101630000E946E0A8111E9CFB0CFB301A2014F77AA
:10164000552766277727440F551F440F551FFA016A
:10165000EE52FE4F80829182A282B3828091CD01B0
:1016600081608093CD018A89823080F08D819E8156
:10167000AF81B885C80ED91EEA1EFB1EC092CE01EE
:10168000D092CF01E092D001F092D10181E0DF91C0
:10169000CF911F910F91FF90EF90DF90CF90BF906F
:1016A000AF909F908F907F906F905F904F90089534
:1016B0008F929F92AF92BF92CF92DF92EF92FF9262
:1016C0000F931F93CF93DF93FC0181859285A385B0
:1016D000B4850196A11DB11D84179507A607B7070C
:1016E00010F480E05BC083889488A588B6888789D9
:1016F000803129F4BB27A72F962F852F09C0DB0146
:10170000CA01C7E0B695A79597958795CA95D1F771
:10171000E9016A017B018F01BC01CD01680D791DD2
:101720008A1D9B1D8090000190900101A0900201F4
:10173000B0900301681579058A059B0591F4F801BD
:1017400087898031A1F4DD24EE24FF24C601880FAF
:10175000991FFC01EE52FE4F80819181A0E0B0E024
:1017600018C040E00E946E0A8111E9CFBACFE89418
:10177000C7F8DD24EE24FF24C601880F991F880FC7
:10178000991FFC01EE52FE4F80819181A281B381AD
:10179000BF7088839983AA83BB8381E0DF91CF9157
:1017A0001F910F91FF90EF90DF90CF90BF90AF907F
:1017B0009F908F9008952F923F924F925F926F92D9
:1017C0007F928F929F92AF92BF92CF92DF92EF92D1
:1017D000FF920F931F93CF93DF93CDB7DEB72B9775
:1017E0000FB6F894DEBF0FBECDBF7C01FE0131966F
:1017F000CE010C966F0130E23193E817F907E1F75B
:10180000DA0130E087E09D91992331F19E3231F485
:101810008A3009F46BC138E08AE0F5CFE8E6F0E001
:101820004491442321F031969413FACF5FC183177A
:1018300008F45CC14FED490F4E3508F057C141E047
:10184000430FF601E30FF11D3FE9390F3A3108F478
:1018500090529083342FD7CF8981803209F446C1CA
:10186000322E8B01DB015B968D919C915C97F70189
:10187000948F838F16961D921D921D921C9219971C
:10188000FB011286138614861586B12CF801828519
:101890009385A485B585438954896589768984179C
:1018A0009507A607B70708F05BC025E0B695A79592
:1018B000979587952A95D1F7F82FFF70AF2ED8010D
:1018C00015968C91823008F411C1C8010E946207FC
:1018D00097FD0CC1F80182859385A485B5854F9647
:1018E000A11DB11D82879387A487B587F0E2AF9EC3
:1018F000B00111246E527E4F6115710509F4F6C0D6
:10190000DB018C91882319F0853EC1F4F1C0B11040
:101910000EC0F701A28A8091000190910101A0916F
:101920000201B091030186879787A08BB18BDB0101
:101930008C91882399F0BB24B394A8CF4BE050E05E
:10194000C6010E94AE17892B09F0A0CF832D8073AA
:10195000803309F4CBC0432D6A2DC4C0BB24B3949B
:10196000832D8271823109F0C1C0BB20C1F0F70123
:10197000668577858089918941E00E946E0A882377
:1019800009F4B4C0D70152968C91B0E28B9FC0018C
:1019900011248E529E4F009709F078C0A7C0F8011D
:1019A0008581823009F4A2C0C8010E94AB0288235D
:1019B00009F49CC0D8015B96ED91FC915C9716965A
:1019C0008D909D90AD90BC901997B2E08B1A9108C4
:1019D000A108B108058404C0880C991CAA1CBB1C72
:1019E0000A94D2F786859785A089B189880E991EB9
:1019F000AA1EBB1E2480E1E08E1A9108A108B1083E
:101A0000222009F124013501420C511C611C711C7A
:101A10000E94330A882309F469C0E2EDF1E01192D3
:101A200023E0E23DF207D9F7409200015092010114
:101A300060920201709203018091CD0181608093D8
:101A4000CD012A94DDCFD8015B96ED91FC915C9796
:101A500080E092E0A0E0B0E0058404C0880F991F08
:101A6000AA1FBB1F0A94D2F7F801438954896589DC
:101A70007689840F951FA61FB71F838B948BA58B28
:101A8000B68BD70152961C9282ED91E020E2FC01C8
:101A900011922A95E9F72BE0F601DC0101900D92F5
:101AA0002A95E1F721E238E2DC0151963C932E932E
:101AB000509740E058E01F965C934E931E975396C4
:101AC0003C932E93529759963C932E935897579642
:101AD0005C934E9356970E94330A882339F0432D26
:101AE000F7016289C7010E94A20105C080E003C01E
:101AF000B11021CF0ECF2B960FB6F894DEBF0FBEDC
:101B0000CDBFDF91CF911F910F91FF90EF90DF90AC
:101B1000CF90BF90AF909F908F907F906F905F908D
:101B20004F903F902F9008953FB7F8948091E8042C
:101B30009091E904A091EA04B091EB0426B5A89B2A
:101B400005C02F3F19F00196A11DB11D3FBFBA2F4F
:101B5000A92F982F8827820F911DA11DB11DBC01AF
:101B6000CD0142E0660F771F881F991F4A95D1F774
:101B70000895CF93DF93EC01198218821B821A8299
:101B80001D821C8260E070E00E949F0928813981DB
:101B900081110FC02115310519F0C9010E945A1693
:101BA000198218821D821C821B821A82DF91CF91BA
:101BB00008951D821C826AEA71E0C901DF91CF910C
:101BC0000C94C417CF93DF93BC0184ED93E00E9483
:101BD000C609EC0168EA71E084ED93E00E94C60951
:101BE0008C0F9D1FDF91CF9108954F925F926F925E
:101BF0007F92AF92BF92CF92DF92EF92FF920F93BC
:101C00001F93CF93DF9300D000D0CDB7DEB78C0108
:101C100049835A836B837C835901C12CD12C760173
:101C2000412C82E0582E612C712C49815A816B81A4
:101C30007C819E012F5F3F4FC8010E94580B882373
:101C400051F1D301C201F801058404C0880F991F26
:101C5000AA1FBB1F0A94D2F7C80ED91EEA1EFB1E8C
:101C600049815A816B817C818789803129F088EF95
:101C70009FEFAFEFBFE004C088EF9FEFA0E0B0E0C0
:101C8000481759076A077B0780F2F501C082D182A5
:101C9000E282F38281E00F900F900F900F90DF911E
:101CA000CF911F910F91FF90EF90DF90CF90BF9059
:101CB000AF907F906F905F904F900895CF93DF9398
:101CC000FC012581222311F080E049C0EC018091C4
:101CD00096048031C1F482E08583178A108E118EBC
:101CE000128E8091970490919804A0E0B0E025E0D6
:101CF000880F991FAA1FBB1F2A95D1F7838B948B3E
:101D0000A58BB68B19C08032F9F683E085834091AC
:101D1000990450919A0460919B0470919C04478BA4
:101D2000508F618F728F9F012D5E3F4F8FE794E040
:101D30000E94F50D882341F28FE794E09C8F8B8FF2
:101D400081E08C831E821F82188619861A861B8664
:101D50001C861D861E861F86188A198A1A8ADF919C
:101D6000CF9108958F929F92AF92BF92CF92DF92C0
:101D7000EF92FF92CF93DF93C82F83E794E0909385
:101D8000D3038093D203CC2369F1C53010F080E0F7
:101D90000CC140E060E070E0CB010E946E0A882335
:101DA000B1F320E1C29FC00111248E539E4FFC016C
:101DB000E254FE4F20812F7751F73C9640815181AC
:101DC00062817381443651056105710500F33497D2
:101DD000C080D180E280F380C114D104E104F10419
:101DE00021F4D5CFC12CD12C760140E0C701B6013A
:101DF0000E946E0A882359F28091DD019091DE01E4
:101E00008115924021F6A091E201AA2309F4BFCFE7
:101E10006091E0017091E1016115710509F4B7CF9E
:101E20002091DF01222309F4B2CFA09391042093E3
:101E3000830480E030E041E050E0C82FFA01082E32
:101E400002C0EE0FFF1F0A94E2F72E173F0739F08A
:101E50008F5FC83091F789E080938C0498CF80938E
:101E60008C042091E8013091E9012115310519F028
:101E700040E050E008C02091F6013091F701409118
:101E8000F8015091F9012093840430938504409324
:101E900086045093870446015701860E971EA11CA5
:101EA000B11C8092920490929304A0929404B092F8
:101EB0009504E091E301F091E401F0939804E0933C
:101EC0009704B0E00E946B15860E971EA81EB91EDF
:101ED0008092990490929A04A0929B04B0929C04E0
:101EE00085E0EE0FFF1F8A95E1F7E150FE4FEF2FDF
:101EF000FF27E6958E0E9F1EA11CB11C80928D04BB
:101F000090928E04A0928F04B09290042091E501EB
:101F10003091E6012115310521F0A90160E070E062
:101F200008C04091F2015091F3016091F401709169
:101F3000F501D701C60188199909AA09BB09840FBF
:101F4000951FA61FB71F04C0B695A79597958795AF
:101F5000CA95D2F78093880490938904A0938A0449
:101F6000B0938B04853F2FE09207A105B10510F4D3
:101F70008CE018C0853F9F4FA105B10510F480E1AA
:101F800011C08091FE019091FF01A0910002B091DB
:101F900001028093990490939A04A0939B04B093B8
:101FA0009C0480E28093960481E0DF91CF91FF90C2
:101FB000EF90DF90CF90BF90AF909F908F9008955B
:101FC000EF92FF920F931F93CF93DF93EC017B016E
:101FD0008A011B821A8288EE93E0A0E0B0E08C8335
:101FE0009D83AE83BF838AE491E0998388838DE1EA
:101FF00090E00E94C2159A8F898F009779F02DE1A9
:10200000F701DC0101900D922A95E1F74CE050E0D8
:10201000B801CE010C960E94CB17188EDF91CF919C
:102020001F910F91FF90EF90089590E0FC01E4570D
:10203000FF4F2491FC01EC54FF4F3491FC01E0561A
:10204000FF4FE491EE2309F43CC0222339F1233001
:1020500091F038F42130A9F0223001F584B58F7D5C
:1020600012C0273091F02830A1F02430B9F48091CB
:1020700080008F7D03C0809180008F7780938000E7
:102080000DC084B58F7784BD09C08091B0008F7773
:1020900003C08091B0008F7D8093B000F0E0EE0F20
:1020A000FF1FEE57FF4FA591B4919FB7F8946111B0
:1020B00004C08C913095382302C0EC913E2B3C93A8
:1020C0009FBF0895CF93DF9390E0FC01EC54FF4F46
:1020D0002491FC01E056FF4F8491882361F190E048
:1020E000880F991FFC01E858FF4FC591D491FC015E
:1020F000EE57FF4FA591B491611109C09FB7F894B5
:102100008881209582238883EC912E230BC0623036
:1021100061F49FB7F8948881322F309583238883A8
:10212000EC912E2B2C939FBF06C08FB7F894E881BB
:102130002E2B28838FBFDF91CF9108958F929F928E
:10214000AF92BF92CF92DF92EF92FF926B017C0130
:102150000E94940D4B015C01C114D104E104F1040F
:10216000F1F00E94940DDC01CB0188199909AA09AC
:10217000BB09883E9340A105B10570F321E0C21A66
:10218000D108E108F10888EE880E83E0981EA11CB2
:10219000B11CC114D104E104F10419F7DDCFFF90A3
:1021A000EF90DF90CF90BF90AF909F908F90089569
:1021B0002FB7F8946091E4047091E5048091E604EF
:1021C0009091E7042FBF08950F931F930E94D8109A
:1021D0006093DC037093DD038093DE039093DF0351
:1021E00084ED93E00E94BB0897FF1FC00E94D810A7
:1021F0000091DC031091DD032091DE033091DF03B9
:10220000DC01CB01801B910BA20BB30B0091D80317
:102210001091D9032091DA033091DB0380179107E5
:10222000A207B307E8F28FEF9FEF1F910F91089578
:102230001F920F920FB60F9211242F933F938F93FB
:102240009F93AF93BF938091E4049091E504A09194
:10225000E604B091E7043091E30423E0230F2D3727
:1022600020F40196A11DB11D05C026E8230F02969A
:10227000A11DB11D2093E3048093E4049093E50431
:10228000A093E604B093E7048091E8049091E904F8
:10229000A091EA04B091EB040196A11DB11D8093B9
:1022A000E8049093E904A093EA04B093EB04BF918F
:1022B000AF919F918F913F912F910F900FBE0F90F3
:1022C0001F9018958091BC049091BD040E945A16ED
:1022D0008091C2049091C3040C945A16CF93DF935B
:1022E000CDB7DEB7C257D1090FB6F894DEBF0FBE27
:1022F000CDBF789484B5826084BD84B5816084BD8F
:1023000085B5826085BD85B5816085BD80916E0093
:10231000816080936E0010928100809181008260C4
:102320008093810080918100816080938100809101
:1023300080008160809380008091B10084608093F0
:10234000B1008091B00081608093B00080917A00EC
:10235000846080937A0080917A00826080937A0012
:1023600080917A00816080937A0080917A00806801
:1023700080937A001092C100E091E403F091E503AC
:1023800082E08083E091E003F091E1031082E0912C
:10239000E203F091E3038FEC80831092EC03E09171
:1023A000E803F091E90386E08083E091E603F09191
:1023B000E703808180618083E091E603F091E70389
:1023C000808188608083E091E603F091E70380815B
:1023D00080688083E091E603F091E70380818F7D40
:1023E000808360E080E00E94621068E571E084ED27
:1023F00093E00E94C6098091A204882321F08DE910
:1024000094E00E949F0210927E0410927C0410922D
:102410007904109278048AE0809377040E94D8109F
:102420008B0161E0809177040E94621061E08091ED
:1024300077040E941510FFB6F8948091CC018111A9
:1024400027C0EAEAF0E08491EEEBF0E09491E82F07
:10245000F0E0EE0FFF1FE858FF4FA591B491EC910B
:10246000E92321F461E08AE00E94151061E08AE02E
:102470000E9462108CB580618CBD8CB580648CBD6F
:1024800061E08DE00E94621061E08BE00E946210CA
:102490008091CC018F5F8093CC01FFBE82E5809359
:1024A00071041092720480917104909172040E94E0
:1024B000FE034AE0F42E8FEF0E94BF03FA94F1105E
:1024C000FACF83E794E00E94010420E030E0A90104
:1024D00060E083E794E00E941704F82E80937D0467
:1024E00081E0F81649F00E94D810601B710B613D25
:1024F000774058F381E056C02AEA31E040E050E0EE
:1025000068E083E794E00E94170482FF03C0F09222
:102510007E0410C034E0F32E0E94C60380937D0435
:10252000FA94F110F9CF8A3A11F082E03BC082E0D0
:1025300080937E0480917E04823031F4C12CD12CB2
:10254000E12C20E4F22E03C0C12CD12C760120E036
:1025500030E0A90167E383E794E00E941704A70134
:10256000960169E283E794E00E94170480937D045A
:10257000882349F00E94D810601B710B613D7740A1
:1025800030F388E00FC080917E04823001F520E0B6
:1025900030E0A9016AE383E794E00E9417048823EE
:1025A00041F086E08093780483E794E00E94B403CE
:1025B00028C00E94C603807C803C19F483E080938D
:1025C0007E040E94C6030E94C6030E94C60383E7DE
:1025D00094E00E94B40380E5809371041092720429
:1025E00081E00E94B20E882339F08DE994E00E94C8
:1025F0005E0E882331F00AC080E00E94B20E811185
:10260000F4CF80E791E00E94E20DFFCF87E891E0F0
:102610000E94E20D60ED77E080E090E00E949E1065
:1026200068EE73E080E090E00E949E108CE991E0FB
:102630000E94E20D80E2882E81E0982E98EE492ECD
:1026400093E0592E612C712C84ED93E00E94DD08FB
:10265000892B09F4A5C1CE0101960E94B90D0E94F3
:10266000E41097FD1BC08E8F1F8E0D811E810F5FA2
:102670001F4FB801CE0101960E949F09882379F36C
:1026800029813A818D819E81BE01625E7F4F820FDA
:10269000931F0E94C4171E830D83E1CF8091BC0459
:1026A0009091BD040097C9F069817A816115710527
:1026B00091F04091BE045091BF042D813E8142179C
:1026C000530748F00E94C4178D819E819093C104E6
:1026D0008093C00416C00E945A1689819A819093F3
:1026E000BD048093BC048B819C819093BF04809334
:1026F000BE048D819E819093C1048093C0041A8290
:10270000198289819A810E945A164091C004509181
:10271000C1046091BC047091BD0484ED93E00E94FB
:10272000820868EA71E084ED93E00E94C6091EAE5B
:102730001DAE9CAE8BAE21961FAE219719A218A29A
:102740009F8E8E8E1BA2E12CF12CFE01FB965F0169
:102750000DE914E0C701F701E555FE4F20812F3246
:1027600009F40196DC01A555BE4FFE01E85AFF4F62
:1027700020E030E06F014D914F3249F0442339F0B1
:102780002F5F3F4F019641932C303105A1F7F601A1
:10279000E20FF31F1082FC01E555FE4F20812F321E
:1027A00009F401967C01FC01E555FE4F30801C8246
:1027B0001B829A8289821E8221E0A601B801CE0185
:1027C00001960E94DB0B882339F0CE0101960E940E
:1027D0009F02311007C023C0F4E00D391F0709F034
:1027E000F4C032CFD50115968C918111E9C021E05A
:1027F000A601B801C5010E94DB0BD82EB4E00D394B
:102800001B0709F4D6C0C8010E949F02DD2009F40D
:102810001BCF902F812F8501A92EB82E9BCFE4E0EE
:102820000D391E0719F0C8010E949F021C821B82ED
:102830009A8289821E82CE0101960E945E0EBE019E
:102840006F5F7F4FCE01CB960E94110719A218A28D
:102850009F8E8E8E1BA221968FAD2197811112C063
:10286000D60113961C921E921297F601448255824D
:10287000668277828AE491E091838083128E118E42
:10288000148627C027E14BEA51E0BE01655C7F4F0B
:10289000CE014E960E94DB0B882311F3CE01CB961E
:1028A0000E949F0249A95AA96BA97CA9CE014E9604
:1028B0000E940B01BE01625E7F4FCE0101960E9415
:1028C00011074BEA51E0BE016F5F7F4FC6010E94C6
:1028D000E00FD60112968D919C9113979093CB04A3
:1028E0008093CA0414968D919D910D90BC91A02D5A
:1028F0008093CC049093CD04A093CE04B093CF04E6
:10290000F60180859185A285B3858093D00490934C
:10291000D104A093D204B093D304D6011C96E4ED65
:10292000F4E08D91819384E0E13EF807D1F7D60180
:102930005996ED91FC915A97F093E204E093E104EB
:10294000309749F18581882331F14091C00450913D
:10295000C1046091BC047091BD0488EC94E00E94B5
:10296000F50668EA71E088EC94E00E94C60980915F
:10297000E1049091E204009709F466CE0E949F0260
:102980008091E1049091E2040E945A161092E204B0
:102990001092E10459CE83EB91E00E94E20D54CEF7
:1029A00060ED77E080E090E00E949E100E94840934
:1029B00037CE882309F448CE8E01025E1F4F29CFFF
:1029C000B4E00D391B0709F43FCEC8010E949F02F5
:1029D0003BCE0F931F93E4EDF3E01382128248EE97
:1029E00053E060E070E044835583668377838EE034
:1029F00091E09183808385EC90E09587848784ECD7
:102A000090E09787868780EC90E0918B808B81ECBB
:102A100090E0938B828B82EC90E0958B848B86EC9C
:102A200090E0978B868B118E128E138E148EE1E7B9
:102A3000F4E080E580831182E3E7F4E015821682FA
:102A40001186138682E090E0A0E0B0E0848795874D
:102A5000A687B78713A215A614A680E291E093A7D4
:102A600082A717A6ACEEB4E084E015968C93159778
:102A70008BE016968C931697E8EBF0E0E4911796AE
:102A8000EC931797E4EAF0E0E4911896EC9318972A
:102A900000E81EE320E030E01D960D931D932D937A
:102AA0003C935097E8ECF4E0138212824483558300
:102AB000668377838AE491E091838083128E118EFE
:102AC000148682EC94E00E94B90D8CEB94E01F9187
:102AD0000F910C94B90D0E94AD15A59F900DB49F58
:102AE000900DA49F800D911D112408952F923F9267
:102AF0004F925F926F927F928F929F92AF92BF920E
:102B0000CF92DF92EF92FF920F931F93CF93DF93B9
:102B1000CDB7DEB7CA1BDB0B0FB6F894DEBF0FBE16
:102B2000CDBF09942A88398848885F846E847D8463
:102B30008C849B84AA84B984C884DF80EE80FD8065
:102B40000C811B81AA81B981CE0FD11D0FB6F894DB
:102B5000DEBF0FBECDBFED010895A29FB001B39FB0
:102B6000C001A39F700D811D1124911DB29F700D96
:102B7000811D1124911D0895EE0FFF1F0590F49102
:102B8000E02D09940F931F93CF93DF93823091052B
:102B900010F482E090E0E0910005F091010520E062
:102BA00030E0A0E0B0E0309719F14081518102811E
:102BB000138148175907C8F08417950769F41097CF
:102BC00031F012960C93129713961C9327C0009322
:102BD00000051093010522C02115310519F0421797
:102BE000530718F49A01BD01EF01DF01F801DBCFB3
:102BF00021153105F9F0281B390B2430310580F4FB
:102C00008A819B816115710521F0FB019383828389
:102C100004C09093010580930005FE01329644C0E4
:102C2000FE01E20FF31F8193919322503109398302
:102C300028833AC02091FE043091FF04232B41F4F5
:102C400020910601309107013093FF042093FE0488
:102C500020910401309105012115310541F42DB772
:102C60003EB74091080150910901241B350BE091BA
:102C7000FE04F091FF04E217F307A0F42E1B3F0BB4
:102C80002817390778F0AC014E5F5F4F24173507DE
:102C900048F04E0F5F1F5093FF044093FE04819352
:102CA000919302C0E0E0F0E0CF01DF91CF911F915E
:102CB0000F910895CF93DF93009709F481C0FC0131
:102CC000329713821282A0910005B09101051097EE
:102CD00081F420813181820F931F2091FE04309175
:102CE000FF042817390751F5F093FF04E093FE0421
:102CF00067C0ED0120E030E0CE17DF0740F44A81E5
:102D00005B819E0141155105F1F0EA01F5CFD383B6
:102D1000C28340815181840F951FC817D90759F488
:102D200088819981840F951F0296918380838A817F
:102D30009B81938382832115310529F4F09301054A
:102D4000E09300053DC0E901FB83EA834991599175
:102D5000C40FD51FEC17FD0761F480819181840FAA
:102D6000951F0296E90199838883828193819B83D1
:102D70008A83E0E0F0E012968D919C911397009782
:102D800019F0FD01DC01F7CF8D919C9111979D0108
:102D90002E5F3F4F820F931F2091FE043091FF045E
:102DA0002817390769F4309729F410920105109219
:102DB000000502C013821282B093FF04A093FE04A8
:102DC000DF91CF910895A0E0B0E0E9EEF6E10C9438
:102DD0007A15EC01009721F4CB010E94C215B4C012
:102DE000FC01E60FF71F9C0122503109E217F3079F
:102DF00008F4A8C0D9010D911C9111970617170767
:102E0000B0F00530110508F49BC0C801049786177F
:102E1000970708F495C002501109061B170B019380
:102E200011936D937C93CF010E945A1689C05B0168
:102E3000A01AB10A4C01800E911EA0910005B0911C
:102E40000105612C712CE12CF12C109709F446C07E
:102E50008D919C911197A815B905B1F56C0142E0CF
:102E6000C40ED11CCA14DB0478F14C018A189B08EB
:102E7000640142E0C40ED11C1296BC9012971396C6
:102E8000AC91B5E0CB16D10440F0B282A38391821D
:102E90008082D9016D937C9309C00E5F1F4F800F14
:102EA000911FF90191838083EB2DFA2FE114F10436
:102EB00031F0D7011396FC93EE93129741C0F09333
:102EC0000105E09300053CC06816790608F43C0152
:102ED0007D0112960D90BC91A02DB7CF8091FE047C
:102EE0009091FF0488169906E1F466167706C8F4F7
:102EF0008091040190910501009741F48DB79EB730
:102F00004091080150910901841B950BE817F907BE
:102F1000C8F4F093FF04E093FE04F9017183608329
:102F20000FC0CB010E94C2157C01009759F0A80187
:102F3000BE010E94BB17CE010E945A16C70104C0F1
:102F4000CE0102C080E090E0CDB7DEB7EEE00C9499
:102F5000961581E090E0F8940C94DA17FB01DC01FF
:102F600004C08D910190801921F441505040C8F760
:102F7000881B990B0895FB01DC0102C001900D92A2
:102F800041505040D8F70895FB01DC0101900D92AB
:102F90000020E1F70895FB01DC014150504048F06A
:102FA00001900D920020C9F701C01D924150504080
:102FB000E0F7089510E0C5E6D0E004C0FE010E94ED
:0E2FC000BC152196C636D107C9F7F894FFCF8D
:102FCE00FFFFFFFF00000205800000000000150952
:102FDE008208AC086209DD08BB08CF0800000000BB
:102FEE008E098208C7008108000000007F08820851
:102FFE00C70081087F087F087F08000000007F0857
:10300E008208C700810800000000B100F506C70065
:10301E00030190004B085508496E697469616C692B
:10302E007A696E6720534420636172642E2E2E00DF
:10303E00696E697469616C697A6174696F6E206614
:10304E0061696C65642100696E697469616C697A85
:10305E006174696F6E20646F6E652E00696E2073E9
:10306E0061766564617461000D0A006770732E638A
:10307E007376006572726F72206F70656E696E671F
:0A308E00206373762066696C65000C
:00000001FF
